{
	"workers log book contract/logbook.sol": {
		"logBook": {
			"abi": [
				{
					"inputs": [],
					"stateMutability": "nonpayable",
					"type": "constructor"
				},
				{
					"anonymous": false,
					"inputs": [
						{
							"indexed": true,
							"internalType": "address",
							"name": "workerAddress_",
							"type": "address"
						},
						{
							"indexed": false,
							"internalType": "string",
							"name": "newName",
							"type": "string"
						},
						{
							"indexed": false,
							"internalType": "uint256",
							"name": "newId",
							"type": "uint256"
						}
					],
					"name": "ProfileUpdated",
					"type": "event"
				},
				{
					"anonymous": false,
					"inputs": [
						{
							"indexed": true,
							"internalType": "uint256",
							"name": "time",
							"type": "uint256"
						},
						{
							"indexed": true,
							"internalType": "address",
							"name": "signer",
							"type": "address"
						}
					],
					"name": "Signed",
					"type": "event"
				},
				{
					"inputs": [
						{
							"internalType": "address",
							"name": "_address",
							"type": "address"
						},
						{
							"internalType": "string",
							"name": "_name",
							"type": "string"
						},
						{
							"internalType": "uint256",
							"name": "_id",
							"type": "uint256"
						}
					],
					"name": "addWorkers",
					"outputs": [],
					"stateMutability": "nonpayable",
					"type": "function"
				},
				{
					"inputs": [
						{
							"internalType": "address",
							"name": "_workersAddress",
							"type": "address"
						}
					],
					"name": "getWorkersData",
					"outputs": [
						{
							"internalType": "string",
							"name": "",
							"type": "string"
						},
						{
							"internalType": "uint256",
							"name": "",
							"type": "uint256"
						},
						{
							"internalType": "bool",
							"name": "",
							"type": "bool"
						}
					],
					"stateMutability": "view",
					"type": "function"
				},
				{
					"inputs": [],
					"name": "logOut",
					"outputs": [],
					"stateMutability": "nonpayable",
					"type": "function"
				},
				{
					"inputs": [
						{
							"internalType": "uint256",
							"name": "",
							"type": "uint256"
						}
					],
					"name": "loggedInWorkers",
					"outputs": [
						{
							"internalType": "address",
							"name": "workerAddress",
							"type": "address"
						},
						{
							"internalType": "string",
							"name": "name",
							"type": "string"
						},
						{
							"internalType": "uint256",
							"name": "Id",
							"type": "uint256"
						},
						{
							"internalType": "bool",
							"name": "signed",
							"type": "bool"
						}
					],
					"stateMutability": "view",
					"type": "function"
				},
				{
					"inputs": [
						{
							"internalType": "address",
							"name": "_address",
							"type": "address"
						}
					],
					"name": "removeWorkers",
					"outputs": [],
					"stateMutability": "nonpayable",
					"type": "function"
				},
				{
					"inputs": [],
					"name": "resetSignIn",
					"outputs": [],
					"stateMutability": "nonpayable",
					"type": "function"
				},
				{
					"inputs": [],
					"name": "signIn",
					"outputs": [],
					"stateMutability": "nonpayable",
					"type": "function"
				},
				{
					"inputs": [
						{
							"internalType": "address",
							"name": "_address",
							"type": "address"
						},
						{
							"internalType": "string",
							"name": "newName",
							"type": "string"
						},
						{
							"internalType": "uint256",
							"name": "newId",
							"type": "uint256"
						}
					],
					"name": "updateProfile",
					"outputs": [],
					"stateMutability": "nonpayable",
					"type": "function"
				},
				{
					"inputs": [
						{
							"internalType": "address",
							"name": "",
							"type": "address"
						}
					],
					"name": "workers",
					"outputs": [
						{
							"internalType": "address",
							"name": "workerAddress",
							"type": "address"
						},
						{
							"internalType": "string",
							"name": "name",
							"type": "string"
						},
						{
							"internalType": "uint256",
							"name": "Id",
							"type": "uint256"
						},
						{
							"internalType": "bool",
							"name": "signed",
							"type": "bool"
						}
					],
					"stateMutability": "view",
					"type": "function"
				},
				{
					"inputs": [
						{
							"internalType": "uint256",
							"name": "",
							"type": "uint256"
						}
					],
					"name": "workersList",
					"outputs": [
						{
							"internalType": "address",
							"name": "workerAddress",
							"type": "address"
						},
						{
							"internalType": "string",
							"name": "name",
							"type": "string"
						},
						{
							"internalType": "uint256",
							"name": "Id",
							"type": "uint256"
						},
						{
							"internalType": "bool",
							"name": "signed",
							"type": "bool"
						}
					],
					"stateMutability": "view",
					"type": "function"
				}
			],
			"devdoc": {
				"kind": "dev",
				"methods": {},
				"version": 1
			},
			"evm": {
				"assembly": "    /* \"workers log book contract/logbook.sol\":57:4901  contract logBook {... */\n  mstore(0x40, 0x80)\n    /* \"workers log book contract/logbook.sol\":324:414  constructor() {... */\n  callvalue\n  dup1\n  iszero\n  tag_1\n  jumpi\n  0x00\n  dup1\n  revert\ntag_1:\n  pop\n    /* \"workers log book contract/logbook.sol\":356:366  msg.sender */\n  caller\n    /* \"workers log book contract/logbook.sol\":348:353  owner */\n  0x00\n  dup1\n    /* \"workers log book contract/logbook.sol\":348:366  owner = msg.sender */\n  0x0100\n  exp\n  dup2\n  sload\n  dup2\n  0xffffffffffffffffffffffffffffffffffffffff\n  mul\n  not\n  and\n  swap1\n  dup4\n  0xffffffffffffffffffffffffffffffffffffffff\n  and\n  mul\n  or\n  swap1\n  sstore\n  pop\n    /* \"workers log book contract/logbook.sol\":392:407  block.timestamp */\n  timestamp\n    /* \"workers log book contract/logbook.sol\":376:389  lastResetTime */\n  0x01\n    /* \"workers log book contract/logbook.sol\":376:407  lastResetTime = block.timestamp */\n  dup2\n  swap1\n  sstore\n  pop\n    /* \"workers log book contract/logbook.sol\":57:4901  contract logBook {... */\n  dataSize(sub_0)\n  dup1\n  dataOffset(sub_0)\n  0x00\n  codecopy\n  0x00\n  return\nstop\n\nsub_0: assembly {\n        /* \"workers log book contract/logbook.sol\":57:4901  contract logBook {... */\n      mstore(0x40, 0x80)\n      callvalue\n      dup1\n      iszero\n      tag_1\n      jumpi\n      0x00\n      dup1\n      revert\n    tag_1:\n      pop\n      jumpi(tag_2, lt(calldatasize, 0x04))\n      shr(0xe0, calldataload(0x00))\n      dup1\n      0x6de95201\n      gt\n      tag_13\n      jumpi\n      dup1\n      0x6de95201\n      eq\n      tag_8\n      jumpi\n      dup1\n      0x9e4cda43\n      eq\n      tag_9\n      jumpi\n      dup1\n      0x9fc1fce9\n      eq\n      tag_10\n      jumpi\n      dup1\n      0xa8bb05d2\n      eq\n      tag_11\n      jumpi\n      dup1\n      0xc47f7fdd\n      eq\n      tag_12\n      jumpi\n      jump(tag_2)\n    tag_13:\n      dup1\n      0x21811a91\n      eq\n      tag_3\n      jumpi\n      dup1\n      0x35801f27\n      eq\n      tag_4\n      jumpi\n      dup1\n      0x4048a257\n      eq\n      tag_5\n      jumpi\n      dup1\n      0x4be422ae\n      eq\n      tag_6\n      jumpi\n      dup1\n      0x65cc7981\n      eq\n      tag_7\n      jumpi\n    tag_2:\n      0x00\n      dup1\n      revert\n        /* \"workers log book contract/logbook.sol\":854:885  Worker[] public loggedInWorkers */\n    tag_3:\n      tag_14\n      0x04\n      dup1\n      calldatasize\n      sub\n      dup2\n      add\n      swap1\n      tag_15\n      swap2\n      swap1\n      tag_16\n      jump\t// in\n    tag_15:\n      tag_17\n      jump\t// in\n    tag_14:\n      mload(0x40)\n      tag_18\n      swap5\n      swap4\n      swap3\n      swap2\n      swap1\n      tag_19\n      jump\t// in\n    tag_18:\n      mload(0x40)\n      dup1\n      swap2\n      sub\n      swap1\n      return\n        /* \"workers log book contract/logbook.sol\":920:1547  function addWorkers(... */\n    tag_4:\n      tag_20\n      0x04\n      dup1\n      calldatasize\n      sub\n      dup2\n      add\n      swap1\n      tag_21\n      swap2\n      swap1\n      tag_22\n      jump\t// in\n    tag_21:\n      tag_23\n      jump\t// in\n    tag_20:\n      stop\n        /* \"workers log book contract/logbook.sol\":574:615  mapping(address => Worker) public workers */\n    tag_5:\n      tag_24\n      0x04\n      dup1\n      calldatasize\n      sub\n      dup2\n      add\n      swap1\n      tag_25\n      swap2\n      swap1\n      tag_26\n      jump\t// in\n    tag_25:\n      tag_27\n      jump\t// in\n    tag_24:\n      mload(0x40)\n      tag_28\n      swap5\n      swap4\n      swap3\n      swap2\n      swap1\n      tag_19\n      jump\t// in\n    tag_28:\n      mload(0x40)\n      dup1\n      swap2\n      sub\n      swap1\n      return\n        /* \"workers log book contract/logbook.sol\":4003:4447  function logOut() public {... */\n    tag_6:\n      tag_29\n      tag_30\n      jump\t// in\n    tag_29:\n      stop\n        /* \"workers log book contract/logbook.sol\":1611:2307  function removeWorkers(address _address) public onlyOwner {... */\n    tag_7:\n      tag_31\n      0x04\n      dup1\n      calldatasize\n      sub\n      dup2\n      add\n      swap1\n      tag_32\n      swap2\n      swap1\n      tag_26\n      jump\t// in\n    tag_32:\n      tag_33\n      jump\t// in\n    tag_31:\n      stop\n        /* \"workers log book contract/logbook.sol\":3009:3447  function updateProfile(address _address, string memory newName, uint256 newId) public onlyOwner {... */\n    tag_8:\n      tag_34\n      0x04\n      dup1\n      calldatasize\n      sub\n      dup2\n      add\n      swap1\n      tag_35\n      swap2\n      swap1\n      tag_22\n      jump\t// in\n    tag_35:\n      tag_36\n      jump\t// in\n    tag_34:\n      stop\n        /* \"workers log book contract/logbook.sol\":3480:3970  function signIn() public {... */\n    tag_9:\n      tag_37\n      tag_38\n      jump\t// in\n    tag_37:\n      stop\n        /* \"workers log book contract/logbook.sol\":783:810  Worker[] public workersList */\n    tag_10:\n      tag_39\n      0x04\n      dup1\n      calldatasize\n      sub\n      dup2\n      add\n      swap1\n      tag_40\n      swap2\n      swap1\n      tag_16\n      jump\t// in\n    tag_40:\n      tag_41\n      jump\t// in\n    tag_39:\n      mload(0x40)\n      tag_42\n      swap5\n      swap4\n      swap3\n      swap2\n      swap1\n      tag_19\n      jump\t// in\n    tag_42:\n      mload(0x40)\n      dup1\n      swap2\n      sub\n      swap1\n      return\n        /* \"workers log book contract/logbook.sol\":2338:2948  function getWorkersData(address _workersAddress)... */\n    tag_11:\n      tag_43\n      0x04\n      dup1\n      calldatasize\n      sub\n      dup2\n      add\n      swap1\n      tag_44\n      swap2\n      swap1\n      tag_26\n      jump\t// in\n    tag_44:\n      tag_45\n      jump\t// in\n    tag_43:\n      mload(0x40)\n      tag_46\n      swap4\n      swap3\n      swap2\n      swap1\n      tag_47\n      jump\t// in\n    tag_46:\n      mload(0x40)\n      dup1\n      swap2\n      sub\n      swap1\n      return\n        /* \"workers log book contract/logbook.sol\":4480:4899  function resetSignIn() onlyOwner public {... */\n    tag_12:\n      tag_48\n      tag_49\n      jump\t// in\n    tag_48:\n      stop\n        /* \"workers log book contract/logbook.sol\":854:885  Worker[] public loggedInWorkers */\n    tag_17:\n      0x04\n      dup2\n      dup2\n      sload\n      dup2\n      lt\n      tag_50\n      jumpi\n      0x00\n      dup1\n      revert\n    tag_50:\n      swap1\n      0x00\n      mstore\n      keccak256(0x00, 0x20)\n      swap1\n      0x04\n      mul\n      add\n      0x00\n      swap2\n      pop\n      swap1\n      pop\n      dup1\n      0x00\n      add\n      0x00\n      swap1\n      sload\n      swap1\n      0x0100\n      exp\n      swap1\n      div\n      0xffffffffffffffffffffffffffffffffffffffff\n      and\n      swap1\n      dup1\n      0x01\n      add\n      dup1\n      sload\n      tag_52\n      swap1\n      tag_53\n      jump\t// in\n    tag_52:\n      dup1\n      0x1f\n      add\n      0x20\n      dup1\n      swap2\n      div\n      mul\n      0x20\n      add\n      mload(0x40)\n      swap1\n      dup2\n      add\n      0x40\n      mstore\n      dup1\n      swap3\n      swap2\n      swap1\n      dup2\n      dup2\n      mstore\n      0x20\n      add\n      dup3\n      dup1\n      sload\n      tag_54\n      swap1\n      tag_53\n      jump\t// in\n    tag_54:\n      dup1\n      iszero\n      tag_55\n      jumpi\n      dup1\n      0x1f\n      lt\n      tag_56\n      jumpi\n      0x0100\n      dup1\n      dup4\n      sload\n      div\n      mul\n      dup4\n      mstore\n      swap2\n      0x20\n      add\n      swap2\n      jump(tag_55)\n    tag_56:\n      dup3\n      add\n      swap2\n      swap1\n      0x00\n      mstore\n      keccak256(0x00, 0x20)\n      swap1\n    tag_57:\n      dup2\n      sload\n      dup2\n      mstore\n      swap1\n      0x01\n      add\n      swap1\n      0x20\n      add\n      dup1\n      dup4\n      gt\n      tag_57\n      jumpi\n      dup3\n      swap1\n      sub\n      0x1f\n      and\n      dup3\n      add\n      swap2\n    tag_55:\n      pop\n      pop\n      pop\n      pop\n      pop\n      swap1\n      dup1\n      0x02\n      add\n      sload\n      swap1\n      dup1\n      0x03\n      add\n      0x00\n      swap1\n      sload\n      swap1\n      0x0100\n      exp\n      swap1\n      div\n      0xff\n      and\n      swap1\n      pop\n      dup5\n      jump\t// out\n        /* \"workers log book contract/logbook.sol\":920:1547  function addWorkers(... */\n    tag_23:\n        /* \"workers log book contract/logbook.sol\":675:680  owner */\n      0x00\n      dup1\n      sload\n      swap1\n      0x0100\n      exp\n      swap1\n      div\n      0xffffffffffffffffffffffffffffffffffffffff\n      and\n        /* \"workers log book contract/logbook.sol\":661:680  msg.sender == owner */\n      0xffffffffffffffffffffffffffffffffffffffff\n      and\n        /* \"workers log book contract/logbook.sol\":661:671  msg.sender */\n      caller\n        /* \"workers log book contract/logbook.sol\":661:680  msg.sender == owner */\n      0xffffffffffffffffffffffffffffffffffffffff\n      and\n      eq\n        /* \"workers log book contract/logbook.sol\":653:721  require(msg.sender == owner, \"Only the Boss can call this function\") */\n      tag_59\n      jumpi\n      mload(0x40)\n      0x08c379a000000000000000000000000000000000000000000000000000000000\n      dup2\n      mstore\n      0x04\n      add\n      tag_60\n      swap1\n      tag_61\n      jump\t// in\n    tag_60:\n      mload(0x40)\n      dup1\n      swap2\n      sub\n      swap1\n      revert\n    tag_59:\n        /* \"workers log book contract/logbook.sol\":1054:1063  uint256 i */\n      0x00\n        /* \"workers log book contract/logbook.sol\":1049:1393  for (uint256 i = 0; i < workersList.length; i++) {... */\n    tag_63:\n        /* \"workers log book contract/logbook.sol\":1073:1084  workersList */\n      0x03\n        /* \"workers log book contract/logbook.sol\":1073:1091  workersList.length */\n      dup1\n      sload\n      swap1\n      pop\n        /* \"workers log book contract/logbook.sol\":1069:1070  i */\n      dup2\n        /* \"workers log book contract/logbook.sol\":1069:1091  i < workersList.length */\n      lt\n        /* \"workers log book contract/logbook.sol\":1049:1393  for (uint256 i = 0; i < workersList.length; i++) {... */\n      iszero\n      tag_64\n      jumpi\n        /* \"workers log book contract/logbook.sol\":1158:1161  _id */\n      dup2\n        /* \"workers log book contract/logbook.sol\":1137:1148  workersList */\n      0x03\n        /* \"workers log book contract/logbook.sol\":1149:1150  i */\n      dup3\n        /* \"workers log book contract/logbook.sol\":1137:1151  workersList[i] */\n      dup2\n      sload\n      dup2\n      lt\n      tag_66\n      jumpi\n      tag_67\n      tag_68\n      jump\t// in\n    tag_67:\n    tag_66:\n      swap1\n      0x00\n      mstore\n      keccak256(0x00, 0x20)\n      swap1\n      0x04\n      mul\n      add\n        /* \"workers log book contract/logbook.sol\":1137:1154  workersList[i].Id */\n      0x02\n      add\n      sload\n        /* \"workers log book contract/logbook.sol\":1137:1161  workersList[i].Id != _id */\n      sub\n        /* \"workers log book contract/logbook.sol\":1112:1229  require(... */\n      tag_70\n      jumpi\n      mload(0x40)\n      0x08c379a000000000000000000000000000000000000000000000000000000000\n      dup2\n      mstore\n      0x04\n      add\n      tag_71\n      swap1\n      tag_72\n      jump\t// in\n    tag_71:\n      mload(0x40)\n      dup1\n      swap2\n      sub\n      swap1\n      revert\n    tag_70:\n        /* \"workers log book contract/logbook.sol\":1301:1309  _address */\n      dup4\n        /* \"workers log book contract/logbook.sol\":1269:1309  workersList[i].workerAddress != _address */\n      0xffffffffffffffffffffffffffffffffffffffff\n      and\n        /* \"workers log book contract/logbook.sol\":1269:1280  workersList */\n      0x03\n        /* \"workers log book contract/logbook.sol\":1281:1282  i */\n      dup3\n        /* \"workers log book contract/logbook.sol\":1269:1283  workersList[i] */\n      dup2\n      sload\n      dup2\n      lt\n      tag_73\n      jumpi\n      tag_74\n      tag_68\n      jump\t// in\n    tag_74:\n    tag_73:\n      swap1\n      0x00\n      mstore\n      keccak256(0x00, 0x20)\n      swap1\n      0x04\n      mul\n      add\n        /* \"workers log book contract/logbook.sol\":1269:1297  workersList[i].workerAddress */\n      0x00\n      add\n      0x00\n      swap1\n      sload\n      swap1\n      0x0100\n      exp\n      swap1\n      div\n      0xffffffffffffffffffffffffffffffffffffffff\n      and\n        /* \"workers log book contract/logbook.sol\":1269:1309  workersList[i].workerAddress != _address */\n      0xffffffffffffffffffffffffffffffffffffffff\n      and\n      sub\n        /* \"workers log book contract/logbook.sol\":1244:1382  require(... */\n      tag_76\n      jumpi\n      mload(0x40)\n      0x08c379a000000000000000000000000000000000000000000000000000000000\n      dup2\n      mstore\n      0x04\n      add\n      tag_77\n      swap1\n      tag_78\n      jump\t// in\n    tag_77:\n      mload(0x40)\n      dup1\n      swap2\n      sub\n      swap1\n      revert\n    tag_76:\n        /* \"workers log book contract/logbook.sol\":1093:1096  i++ */\n      dup1\n      dup1\n      0x01\n      add\n      swap2\n      pop\n      pop\n        /* \"workers log book contract/logbook.sol\":1049:1393  for (uint256 i = 0; i < workersList.length; i++) {... */\n      jump(tag_63)\n    tag_64:\n      pop\n        /* \"workers log book contract/logbook.sol\":1403:1426  Worker memory newWorker */\n      0x00\n        /* \"workers log book contract/logbook.sol\":1429:1464  Worker(_address, _name, _id, false) */\n      mload(0x40)\n      dup1\n      0x80\n      add\n      0x40\n      mstore\n      dup1\n        /* \"workers log book contract/logbook.sol\":1436:1444  _address */\n      dup6\n        /* \"workers log book contract/logbook.sol\":1429:1464  Worker(_address, _name, _id, false) */\n      0xffffffffffffffffffffffffffffffffffffffff\n      and\n      dup2\n      mstore\n      0x20\n      add\n        /* \"workers log book contract/logbook.sol\":1446:1451  _name */\n      dup5\n        /* \"workers log book contract/logbook.sol\":1429:1464  Worker(_address, _name, _id, false) */\n      dup2\n      mstore\n      0x20\n      add\n        /* \"workers log book contract/logbook.sol\":1453:1456  _id */\n      dup4\n        /* \"workers log book contract/logbook.sol\":1429:1464  Worker(_address, _name, _id, false) */\n      dup2\n      mstore\n      0x20\n      add\n        /* \"workers log book contract/logbook.sol\":1458:1463  false */\n      0x00\n        /* \"workers log book contract/logbook.sol\":1429:1464  Worker(_address, _name, _id, false) */\n      iszero\n      iszero\n      dup2\n      mstore\n      pop\n        /* \"workers log book contract/logbook.sol\":1403:1464  Worker memory newWorker = Worker(_address, _name, _id, false) */\n      swap1\n      pop\n        /* \"workers log book contract/logbook.sol\":1494:1503  newWorker */\n      dup1\n        /* \"workers log book contract/logbook.sol\":1474:1481  workers */\n      0x02\n        /* \"workers log book contract/logbook.sol\":1474:1491  workers[_address] */\n      0x00\n        /* \"workers log book contract/logbook.sol\":1482:1490  _address */\n      dup7\n        /* \"workers log book contract/logbook.sol\":1474:1491  workers[_address] */\n      0xffffffffffffffffffffffffffffffffffffffff\n      and\n      0xffffffffffffffffffffffffffffffffffffffff\n      and\n      dup2\n      mstore\n      0x20\n      add\n      swap1\n      dup2\n      mstore\n      0x20\n      add\n      0x00\n      keccak256\n        /* \"workers log book contract/logbook.sol\":1474:1503  workers[_address] = newWorker */\n      0x00\n      dup3\n      add\n      mload\n      dup2\n      0x00\n      add\n      exp(0x0100, 0x00)\n      dup2\n      sload\n      dup2\n      0xffffffffffffffffffffffffffffffffffffffff\n      mul\n      not\n      and\n      swap1\n      dup4\n      0xffffffffffffffffffffffffffffffffffffffff\n      and\n      mul\n      or\n      swap1\n      sstore\n      pop\n      0x20\n      dup3\n      add\n      mload\n      dup2\n      0x01\n      add\n      swap1\n      dup2\n      tag_79\n      swap2\n      swap1\n      tag_80\n      jump\t// in\n    tag_79:\n      pop\n      0x40\n      dup3\n      add\n      mload\n      dup2\n      0x02\n      add\n      sstore\n      0x60\n      dup3\n      add\n      mload\n      dup2\n      0x03\n      add\n      exp(0x0100, 0x00)\n      dup2\n      sload\n      dup2\n      0xff\n      mul\n      not\n      and\n      swap1\n      dup4\n      iszero\n      iszero\n      mul\n      or\n      swap1\n      sstore\n      pop\n      swap1\n      pop\n      pop\n        /* \"workers log book contract/logbook.sol\":1513:1524  workersList */\n      0x03\n        /* \"workers log book contract/logbook.sol\":1530:1539  newWorker */\n      dup2\n        /* \"workers log book contract/logbook.sol\":1513:1540  workersList.push(newWorker) */\n      swap1\n      dup1\n      0x01\n      dup2\n      sload\n      add\n      dup1\n      dup3\n      sstore\n      dup1\n      swap2\n      pop\n      pop\n      0x01\n      swap1\n      sub\n      swap1\n      0x00\n      mstore\n      keccak256(0x00, 0x20)\n      swap1\n      0x04\n      mul\n      add\n      0x00\n      swap1\n      swap2\n      swap1\n      swap2\n      swap1\n      swap2\n      pop\n      0x00\n      dup3\n      add\n      mload\n      dup2\n      0x00\n      add\n      exp(0x0100, 0x00)\n      dup2\n      sload\n      dup2\n      0xffffffffffffffffffffffffffffffffffffffff\n      mul\n      not\n      and\n      swap1\n      dup4\n      0xffffffffffffffffffffffffffffffffffffffff\n      and\n      mul\n      or\n      swap1\n      sstore\n      pop\n      0x20\n      dup3\n      add\n      mload\n      dup2\n      0x01\n      add\n      swap1\n      dup2\n      tag_82\n      swap2\n      swap1\n      tag_80\n      jump\t// in\n    tag_82:\n      pop\n      0x40\n      dup3\n      add\n      mload\n      dup2\n      0x02\n      add\n      sstore\n      0x60\n      dup3\n      add\n      mload\n      dup2\n      0x03\n      add\n      exp(0x0100, 0x00)\n      dup2\n      sload\n      dup2\n      0xff\n      mul\n      not\n      and\n      swap1\n      dup4\n      iszero\n      iszero\n      mul\n      or\n      swap1\n      sstore\n      pop\n      pop\n      pop\n        /* \"workers log book contract/logbook.sol\":1039:1547  {... */\n      pop\n        /* \"workers log book contract/logbook.sol\":920:1547  function addWorkers(... */\n      pop\n      pop\n      pop\n      jump\t// out\n        /* \"workers log book contract/logbook.sol\":574:615  mapping(address => Worker) public workers */\n    tag_27:\n      mstore(0x20, 0x02)\n      dup1\n      0x00\n      mstore\n      keccak256(0x00, 0x40)\n      0x00\n      swap2\n      pop\n      swap1\n      pop\n      dup1\n      0x00\n      add\n      0x00\n      swap1\n      sload\n      swap1\n      0x0100\n      exp\n      swap1\n      div\n      0xffffffffffffffffffffffffffffffffffffffff\n      and\n      swap1\n      dup1\n      0x01\n      add\n      dup1\n      sload\n      tag_83\n      swap1\n      tag_53\n      jump\t// in\n    tag_83:\n      dup1\n      0x1f\n      add\n      0x20\n      dup1\n      swap2\n      div\n      mul\n      0x20\n      add\n      mload(0x40)\n      swap1\n      dup2\n      add\n      0x40\n      mstore\n      dup1\n      swap3\n      swap2\n      swap1\n      dup2\n      dup2\n      mstore\n      0x20\n      add\n      dup3\n      dup1\n      sload\n      tag_84\n      swap1\n      tag_53\n      jump\t// in\n    tag_84:\n      dup1\n      iszero\n      tag_85\n      jumpi\n      dup1\n      0x1f\n      lt\n      tag_86\n      jumpi\n      0x0100\n      dup1\n      dup4\n      sload\n      div\n      mul\n      dup4\n      mstore\n      swap2\n      0x20\n      add\n      swap2\n      jump(tag_85)\n    tag_86:\n      dup3\n      add\n      swap2\n      swap1\n      0x00\n      mstore\n      keccak256(0x00, 0x20)\n      swap1\n    tag_87:\n      dup2\n      sload\n      dup2\n      mstore\n      swap1\n      0x01\n      add\n      swap1\n      0x20\n      add\n      dup1\n      dup4\n      gt\n      tag_87\n      jumpi\n      dup3\n      swap1\n      sub\n      0x1f\n      and\n      dup3\n      add\n      swap2\n    tag_85:\n      pop\n      pop\n      pop\n      pop\n      pop\n      swap1\n      dup1\n      0x02\n      add\n      sload\n      swap1\n      dup1\n      0x03\n      add\n      0x00\n      swap1\n      sload\n      swap1\n      0x0100\n      exp\n      swap1\n      div\n      0xff\n      and\n      swap1\n      pop\n      dup5\n      jump\t// out\n        /* \"workers log book contract/logbook.sol\":4003:4447  function logOut() public {... */\n    tag_30:\n        /* \"workers log book contract/logbook.sol\":4043:4052  uint256 i */\n      0x00\n        /* \"workers log book contract/logbook.sol\":4038:4441  for (uint256 i = 0; i < workersList.length; i++) {... */\n    tag_89:\n        /* \"workers log book contract/logbook.sol\":4062:4073  workersList */\n      0x03\n        /* \"workers log book contract/logbook.sol\":4062:4080  workersList.length */\n      dup1\n      sload\n      swap1\n      pop\n        /* \"workers log book contract/logbook.sol\":4058:4059  i */\n      dup2\n        /* \"workers log book contract/logbook.sol\":4058:4080  i < workersList.length */\n      lt\n        /* \"workers log book contract/logbook.sol\":4038:4441  for (uint256 i = 0; i < workersList.length; i++) {... */\n      iszero\n      tag_90\n      jumpi\n        /* \"workers log book contract/logbook.sol\":4140:4151  workersList */\n      0x03\n        /* \"workers log book contract/logbook.sol\":4152:4153  i */\n      dup2\n        /* \"workers log book contract/logbook.sol\":4140:4154  workersList[i] */\n      dup2\n      sload\n      dup2\n      lt\n      tag_92\n      jumpi\n      tag_93\n      tag_68\n      jump\t// in\n    tag_93:\n    tag_92:\n      swap1\n      0x00\n      mstore\n      keccak256(0x00, 0x20)\n      swap1\n      0x04\n      mul\n      add\n        /* \"workers log book contract/logbook.sol\":4140:4168  workersList[i].workerAddress */\n      0x00\n      add\n      0x00\n      swap1\n      sload\n      swap1\n      0x0100\n      exp\n      swap1\n      div\n      0xffffffffffffffffffffffffffffffffffffffff\n      and\n        /* \"workers log book contract/logbook.sol\":4126:4168  msg.sender == workersList[i].workerAddress */\n      0xffffffffffffffffffffffffffffffffffffffff\n      and\n        /* \"workers log book contract/logbook.sol\":4126:4136  msg.sender */\n      caller\n        /* \"workers log book contract/logbook.sol\":4126:4168  msg.sender == workersList[i].workerAddress */\n      0xffffffffffffffffffffffffffffffffffffffff\n      and\n      eq\n        /* \"workers log book contract/logbook.sol\":4101:4229  require(... */\n      tag_95\n      jumpi\n      mload(0x40)\n      0x08c379a000000000000000000000000000000000000000000000000000000000\n      dup2\n      mstore\n      0x04\n      add\n      tag_96\n      swap1\n      tag_97\n      jump\t// in\n    tag_96:\n      mload(0x40)\n      dup1\n      swap2\n      sub\n      swap1\n      revert\n    tag_95:\n        /* \"workers log book contract/logbook.sol\":4277:4281  true */\n      0x01\n        /* \"workers log book contract/logbook.sol\":4252:4281  workersList[i].signed == true */\n      iszero\n      iszero\n        /* \"workers log book contract/logbook.sol\":4252:4263  workersList */\n      0x03\n        /* \"workers log book contract/logbook.sol\":4264:4265  i */\n      dup3\n        /* \"workers log book contract/logbook.sol\":4252:4266  workersList[i] */\n      dup2\n      sload\n      dup2\n      lt\n      tag_98\n      jumpi\n      tag_99\n      tag_68\n      jump\t// in\n    tag_99:\n    tag_98:\n      swap1\n      0x00\n      mstore\n      keccak256(0x00, 0x20)\n      swap1\n      0x04\n      mul\n      add\n        /* \"workers log book contract/logbook.sol\":4252:4273  workersList[i].signed */\n      0x03\n      add\n      0x00\n      swap1\n      sload\n      swap1\n      0x0100\n      exp\n      swap1\n      div\n      0xff\n      and\n        /* \"workers log book contract/logbook.sol\":4252:4281  workersList[i].signed == true */\n      iszero\n      iszero\n      eq\n        /* \"workers log book contract/logbook.sol\":4244:4312  require(workersList[i].signed == true, \"Didn't sign in for the day\") */\n      tag_101\n      jumpi\n      mload(0x40)\n      0x08c379a000000000000000000000000000000000000000000000000000000000\n      dup2\n      mstore\n      0x04\n      add\n      tag_102\n      swap1\n      tag_103\n      jump\t// in\n    tag_102:\n      mload(0x40)\n      dup1\n      swap2\n      sub\n      swap1\n      revert\n    tag_101:\n        /* \"workers log book contract/logbook.sol\":4363:4368  false */\n      0x00\n        /* \"workers log book contract/logbook.sol\":4339:4350  workersList */\n      0x03\n        /* \"workers log book contract/logbook.sol\":4351:4352  i */\n      dup3\n        /* \"workers log book contract/logbook.sol\":4339:4353  workersList[i] */\n      dup2\n      sload\n      dup2\n      lt\n      tag_104\n      jumpi\n      tag_105\n      tag_68\n      jump\t// in\n    tag_105:\n    tag_104:\n      swap1\n      0x00\n      mstore\n      keccak256(0x00, 0x20)\n      swap1\n      0x04\n      mul\n      add\n        /* \"workers log book contract/logbook.sol\":4339:4360  workersList[i].signed */\n      0x03\n      add\n      0x00\n        /* \"workers log book contract/logbook.sol\":4339:4368  workersList[i].signed = false */\n      0x0100\n      exp\n      dup2\n      sload\n      dup2\n      0xff\n      mul\n      not\n      and\n      swap1\n      dup4\n      iszero\n      iszero\n      mul\n      or\n      swap1\n      sstore\n      pop\n        /* \"workers log book contract/logbook.sol\":4411:4421  msg.sender */\n      caller\n        /* \"workers log book contract/logbook.sol\":4387:4422  Signed(block.timestamp, msg.sender) */\n      0xffffffffffffffffffffffffffffffffffffffff\n      and\n        /* \"workers log book contract/logbook.sol\":4394:4409  block.timestamp */\n      timestamp\n        /* \"workers log book contract/logbook.sol\":4387:4422  Signed(block.timestamp, msg.sender) */\n      0x80bc357386c693c2d6ad5938af6765eacd7d7790c17e39c014ab30def6394165\n      mload(0x40)\n      mload(0x40)\n      dup1\n      swap2\n      sub\n      swap1\n      log3\n        /* \"workers log book contract/logbook.sol\":4082:4085  i++ */\n      dup1\n      dup1\n      0x01\n      add\n      swap2\n      pop\n      pop\n        /* \"workers log book contract/logbook.sol\":4038:4441  for (uint256 i = 0; i < workersList.length; i++) {... */\n      jump(tag_89)\n    tag_90:\n      pop\n        /* \"workers log book contract/logbook.sol\":4003:4447  function logOut() public {... */\n      jump\t// out\n        /* \"workers log book contract/logbook.sol\":1611:2307  function removeWorkers(address _address) public onlyOwner {... */\n    tag_33:\n        /* \"workers log book contract/logbook.sol\":675:680  owner */\n      0x00\n      dup1\n      sload\n      swap1\n      0x0100\n      exp\n      swap1\n      div\n      0xffffffffffffffffffffffffffffffffffffffff\n      and\n        /* \"workers log book contract/logbook.sol\":661:680  msg.sender == owner */\n      0xffffffffffffffffffffffffffffffffffffffff\n      and\n        /* \"workers log book contract/logbook.sol\":661:671  msg.sender */\n      caller\n        /* \"workers log book contract/logbook.sol\":661:680  msg.sender == owner */\n      0xffffffffffffffffffffffffffffffffffffffff\n      and\n      eq\n        /* \"workers log book contract/logbook.sol\":653:721  require(msg.sender == owner, \"Only the Boss can call this function\") */\n      tag_108\n      jumpi\n      mload(0x40)\n      0x08c379a000000000000000000000000000000000000000000000000000000000\n      dup2\n      mstore\n      0x04\n      add\n      tag_109\n      swap1\n      tag_61\n      jump\t// in\n    tag_109:\n      mload(0x40)\n      dup1\n      swap2\n      sub\n      swap1\n      revert\n    tag_108:\n        /* \"workers log book contract/logbook.sol\":1680:1701  uint256 indexToRemove */\n      0x00\n        /* \"workers log book contract/logbook.sol\":1725:1734  uint256 i */\n      dup1\n        /* \"workers log book contract/logbook.sol\":1737:1738  0 */\n      0x00\n        /* \"workers log book contract/logbook.sol\":1725:1738  uint256 i = 0 */\n      swap1\n      pop\n        /* \"workers log book contract/logbook.sol\":1720:1994  for (uint256 i = 0; i < workersList.length; i++) {... */\n    tag_111:\n        /* \"workers log book contract/logbook.sol\":1744:1755  workersList */\n      0x03\n        /* \"workers log book contract/logbook.sol\":1744:1762  workersList.length */\n      dup1\n      sload\n      swap1\n      pop\n        /* \"workers log book contract/logbook.sol\":1740:1741  i */\n      dup2\n        /* \"workers log book contract/logbook.sol\":1740:1762  i < workersList.length */\n      lt\n        /* \"workers log book contract/logbook.sol\":1720:1994  for (uint256 i = 0; i < workersList.length; i++) {... */\n      iszero\n      tag_112\n      jumpi\n        /* \"workers log book contract/logbook.sol\":1823:1831  _address */\n      dup3\n        /* \"workers log book contract/logbook.sol\":1791:1831  workersList[i].workerAddress == _address */\n      0xffffffffffffffffffffffffffffffffffffffff\n      and\n        /* \"workers log book contract/logbook.sol\":1791:1802  workersList */\n      0x03\n        /* \"workers log book contract/logbook.sol\":1803:1804  i */\n      dup3\n        /* \"workers log book contract/logbook.sol\":1791:1805  workersList[i] */\n      dup2\n      sload\n      dup2\n      lt\n      tag_114\n      jumpi\n      tag_115\n      tag_68\n      jump\t// in\n    tag_115:\n    tag_114:\n      swap1\n      0x00\n      mstore\n      keccak256(0x00, 0x20)\n      swap1\n      0x04\n      mul\n      add\n        /* \"workers log book contract/logbook.sol\":1791:1819  workersList[i].workerAddress */\n      0x00\n      add\n      0x00\n      swap1\n      sload\n      swap1\n      0x0100\n      exp\n      swap1\n      div\n      0xffffffffffffffffffffffffffffffffffffffff\n      and\n        /* \"workers log book contract/logbook.sol\":1791:1831  workersList[i].workerAddress == _address */\n      0xffffffffffffffffffffffffffffffffffffffff\n      and\n      eq\n        /* \"workers log book contract/logbook.sol\":1783:1858  require(workersList[i].workerAddress == _address, \"Worker does not exists\") */\n      tag_117\n      jumpi\n      mload(0x40)\n      0x08c379a000000000000000000000000000000000000000000000000000000000\n      dup2\n      mstore\n      0x04\n      add\n      tag_118\n      swap1\n      tag_119\n      jump\t// in\n    tag_118:\n      mload(0x40)\n      dup1\n      swap2\n      sub\n      swap1\n      revert\n    tag_117:\n        /* \"workers log book contract/logbook.sol\":1909:1917  _address */\n      dup3\n        /* \"workers log book contract/logbook.sol\":1877:1917  workersList[i].workerAddress == _address */\n      0xffffffffffffffffffffffffffffffffffffffff\n      and\n        /* \"workers log book contract/logbook.sol\":1877:1888  workersList */\n      0x03\n        /* \"workers log book contract/logbook.sol\":1889:1890  i */\n      dup3\n        /* \"workers log book contract/logbook.sol\":1877:1891  workersList[i] */\n      dup2\n      sload\n      dup2\n      lt\n      tag_120\n      jumpi\n      tag_121\n      tag_68\n      jump\t// in\n    tag_121:\n    tag_120:\n      swap1\n      0x00\n      mstore\n      keccak256(0x00, 0x20)\n      swap1\n      0x04\n      mul\n      add\n        /* \"workers log book contract/logbook.sol\":1877:1905  workersList[i].workerAddress */\n      0x00\n      add\n      0x00\n      swap1\n      sload\n      swap1\n      0x0100\n      exp\n      swap1\n      div\n      0xffffffffffffffffffffffffffffffffffffffff\n      and\n        /* \"workers log book contract/logbook.sol\":1877:1917  workersList[i].workerAddress == _address */\n      0xffffffffffffffffffffffffffffffffffffffff\n      and\n      sub\n        /* \"workers log book contract/logbook.sol\":1873:1984  if (workersList[i].workerAddress == _address) {... */\n      tag_123\n      jumpi\n        /* \"workers log book contract/logbook.sol\":1949:1950  i */\n      dup1\n        /* \"workers log book contract/logbook.sol\":1933:1950  indexToRemove = i */\n      swap2\n      pop\n        /* \"workers log book contract/logbook.sol\":1964:1969  break */\n      jump(tag_112)\n        /* \"workers log book contract/logbook.sol\":1873:1984  if (workersList[i].workerAddress == _address) {... */\n    tag_123:\n        /* \"workers log book contract/logbook.sol\":1764:1767  i++ */\n      dup1\n      dup1\n      0x01\n      add\n      swap2\n      pop\n      pop\n        /* \"workers log book contract/logbook.sol\":1720:1994  for (uint256 i = 0; i < workersList.length; i++) {... */\n      jump(tag_111)\n    tag_112:\n      pop\n        /* \"workers log book contract/logbook.sol\":2065:2074  uint256 i */\n      0x00\n        /* \"workers log book contract/logbook.sol\":2077:2090  indexToRemove */\n      dup2\n        /* \"workers log book contract/logbook.sol\":2065:2090  uint256 i = indexToRemove */\n      swap1\n      pop\n        /* \"workers log book contract/logbook.sol\":2060:2185  for (uint256 i = indexToRemove; i < workersList.length - 1; i++) {... */\n    tag_124:\n        /* \"workers log book contract/logbook.sol\":2117:2118  1 */\n      0x01\n        /* \"workers log book contract/logbook.sol\":2096:2107  workersList */\n      0x03\n        /* \"workers log book contract/logbook.sol\":2096:2114  workersList.length */\n      dup1\n      sload\n      swap1\n      pop\n        /* \"workers log book contract/logbook.sol\":2096:2118  workersList.length - 1 */\n      tag_127\n      swap2\n      swap1\n      tag_128\n      jump\t// in\n    tag_127:\n        /* \"workers log book contract/logbook.sol\":2092:2093  i */\n      dup2\n        /* \"workers log book contract/logbook.sol\":2092:2118  i < workersList.length - 1 */\n      lt\n        /* \"workers log book contract/logbook.sol\":2060:2185  for (uint256 i = indexToRemove; i < workersList.length - 1; i++) {... */\n      iszero\n      tag_125\n      jumpi\n        /* \"workers log book contract/logbook.sol\":2156:2167  workersList */\n      0x03\n        /* \"workers log book contract/logbook.sol\":2172:2173  1 */\n      0x01\n        /* \"workers log book contract/logbook.sol\":2168:2169  i */\n      dup3\n        /* \"workers log book contract/logbook.sol\":2168:2173  i + 1 */\n      tag_129\n      swap2\n      swap1\n      tag_130\n      jump\t// in\n    tag_129:\n        /* \"workers log book contract/logbook.sol\":2156:2174  workersList[i + 1] */\n      dup2\n      sload\n      dup2\n      lt\n      tag_131\n      jumpi\n      tag_132\n      tag_68\n      jump\t// in\n    tag_132:\n    tag_131:\n      swap1\n      0x00\n      mstore\n      keccak256(0x00, 0x20)\n      swap1\n      0x04\n      mul\n      add\n        /* \"workers log book contract/logbook.sol\":2139:2150  workersList */\n      0x03\n        /* \"workers log book contract/logbook.sol\":2151:2152  i */\n      dup3\n        /* \"workers log book contract/logbook.sol\":2139:2153  workersList[i] */\n      dup2\n      sload\n      dup2\n      lt\n      tag_134\n      jumpi\n      tag_135\n      tag_68\n      jump\t// in\n    tag_135:\n    tag_134:\n      swap1\n      0x00\n      mstore\n      keccak256(0x00, 0x20)\n      swap1\n      0x04\n      mul\n      add\n        /* \"workers log book contract/logbook.sol\":2139:2174  workersList[i] = workersList[i + 1] */\n      0x00\n      dup3\n      add\n      0x00\n      swap1\n      sload\n      swap1\n      0x0100\n      exp\n      swap1\n      div\n      0xffffffffffffffffffffffffffffffffffffffff\n      and\n      dup2\n      0x00\n      add\n      exp(0x0100, 0x00)\n      dup2\n      sload\n      dup2\n      0xffffffffffffffffffffffffffffffffffffffff\n      mul\n      not\n      and\n      swap1\n      dup4\n      0xffffffffffffffffffffffffffffffffffffffff\n      and\n      mul\n      or\n      swap1\n      sstore\n      pop\n      0x01\n      dup3\n      add\n      dup2\n      0x01\n      add\n      swap1\n      dup2\n      tag_137\n      swap2\n      swap1\n      tag_138\n      jump\t// in\n    tag_137:\n      pop\n      0x02\n      dup3\n      add\n      sload\n      dup2\n      0x02\n      add\n      sstore\n      0x03\n      dup3\n      add\n      0x00\n      swap1\n      sload\n      swap1\n      0x0100\n      exp\n      swap1\n      div\n      0xff\n      and\n      dup2\n      0x03\n      add\n      exp(0x0100, 0x00)\n      dup2\n      sload\n      dup2\n      0xff\n      mul\n      not\n      and\n      swap1\n      dup4\n      iszero\n      iszero\n      mul\n      or\n      swap1\n      sstore\n      pop\n      swap1\n      pop\n      pop\n        /* \"workers log book contract/logbook.sol\":2120:2123  i++ */\n      dup1\n      dup1\n      0x01\n      add\n      swap2\n      pop\n      pop\n        /* \"workers log book contract/logbook.sol\":2060:2185  for (uint256 i = indexToRemove; i < workersList.length - 1; i++) {... */\n      jump(tag_124)\n    tag_125:\n      pop\n        /* \"workers log book contract/logbook.sol\":2194:2205  workersList */\n      0x03\n        /* \"workers log book contract/logbook.sol\":2194:2211  workersList.pop() */\n      dup1\n      sload\n      dup1\n      tag_139\n      jumpi\n      tag_140\n      tag_141\n      jump\t// in\n    tag_140:\n    tag_139:\n      0x01\n      swap1\n      sub\n      dup2\n      dup2\n      swap1\n      0x00\n      mstore\n      keccak256(0x00, 0x20)\n      swap1\n      0x04\n      mul\n      add\n      0x00\n      dup1\n      dup3\n      add\n      exp(0x0100, 0x00)\n      dup2\n      sload\n      swap1\n      0xffffffffffffffffffffffffffffffffffffffff\n      mul\n      not\n      and\n      swap1\n      sstore\n      0x01\n      dup3\n      add\n      0x00\n      tag_143\n      swap2\n      swap1\n      tag_144\n      jump\t// in\n    tag_143:\n      0x02\n      dup3\n      add\n      0x00\n      swap1\n      sstore\n      0x03\n      dup3\n      add\n      exp(0x0100, 0x00)\n      dup2\n      sload\n      swap1\n      0xff\n      mul\n      not\n      and\n      swap1\n      sstore\n      pop\n      pop\n      swap1\n      sstore\n        /* \"workers log book contract/logbook.sol\":2283:2290  workers */\n      0x02\n        /* \"workers log book contract/logbook.sol\":2283:2300  workers[_address] */\n      0x00\n        /* \"workers log book contract/logbook.sol\":2291:2299  _address */\n      dup4\n        /* \"workers log book contract/logbook.sol\":2283:2300  workers[_address] */\n      0xffffffffffffffffffffffffffffffffffffffff\n      and\n      0xffffffffffffffffffffffffffffffffffffffff\n      and\n      dup2\n      mstore\n      0x20\n      add\n      swap1\n      dup2\n      mstore\n      0x20\n      add\n      0x00\n      keccak256\n      0x00\n        /* \"workers log book contract/logbook.sol\":2276:2300  delete workers[_address] */\n      dup1\n      dup3\n      add\n      exp(0x0100, 0x00)\n      dup2\n      sload\n      swap1\n      0xffffffffffffffffffffffffffffffffffffffff\n      mul\n      not\n      and\n      swap1\n      sstore\n      0x01\n      dup3\n      add\n      0x00\n      tag_145\n      swap2\n      swap1\n      tag_144\n      jump\t// in\n    tag_145:\n      0x02\n      dup3\n      add\n      0x00\n      swap1\n      sstore\n      0x03\n      dup3\n      add\n      exp(0x0100, 0x00)\n      dup2\n      sload\n      swap1\n      0xff\n      mul\n      not\n      and\n      swap1\n      sstore\n      pop\n      pop\n        /* \"workers log book contract/logbook.sol\":1669:2307  {... */\n      pop\n        /* \"workers log book contract/logbook.sol\":1611:2307  function removeWorkers(address _address) public onlyOwner {... */\n      pop\n      jump\t// out\n        /* \"workers log book contract/logbook.sol\":3009:3447  function updateProfile(address _address, string memory newName, uint256 newId) public onlyOwner {... */\n    tag_36:\n        /* \"workers log book contract/logbook.sol\":675:680  owner */\n      0x00\n      dup1\n      sload\n      swap1\n      0x0100\n      exp\n      swap1\n      div\n      0xffffffffffffffffffffffffffffffffffffffff\n      and\n        /* \"workers log book contract/logbook.sol\":661:680  msg.sender == owner */\n      0xffffffffffffffffffffffffffffffffffffffff\n      and\n        /* \"workers log book contract/logbook.sol\":661:671  msg.sender */\n      caller\n        /* \"workers log book contract/logbook.sol\":661:680  msg.sender == owner */\n      0xffffffffffffffffffffffffffffffffffffffff\n      and\n      eq\n        /* \"workers log book contract/logbook.sol\":653:721  require(msg.sender == owner, \"Only the Boss can call this function\") */\n      tag_147\n      jumpi\n      mload(0x40)\n      0x08c379a000000000000000000000000000000000000000000000000000000000\n      dup2\n      mstore\n      0x04\n      add\n      tag_148\n      swap1\n      tag_61\n      jump\t// in\n    tag_148:\n      mload(0x40)\n      dup1\n      swap2\n      sub\n      swap1\n      revert\n    tag_147:\n        /* \"workers log book contract/logbook.sol\":3120:3129  uint256 i */\n      0x00\n        /* \"workers log book contract/logbook.sol\":3115:3352  for (uint256 i = 0; i < workersList.length; i++) {... */\n    tag_150:\n        /* \"workers log book contract/logbook.sol\":3139:3150  workersList */\n      0x03\n        /* \"workers log book contract/logbook.sol\":3139:3157  workersList.length */\n      dup1\n      sload\n      swap1\n      pop\n        /* \"workers log book contract/logbook.sol\":3135:3136  i */\n      dup2\n        /* \"workers log book contract/logbook.sol\":3135:3157  i < workersList.length */\n      lt\n        /* \"workers log book contract/logbook.sol\":3115:3352  for (uint256 i = 0; i < workersList.length; i++) {... */\n      iszero\n      tag_151\n      jumpi\n        /* \"workers log book contract/logbook.sol\":3218:3226  _address */\n      dup4\n        /* \"workers log book contract/logbook.sol\":3186:3226  workersList[i].workerAddress == _address */\n      0xffffffffffffffffffffffffffffffffffffffff\n      and\n        /* \"workers log book contract/logbook.sol\":3186:3197  workersList */\n      0x03\n        /* \"workers log book contract/logbook.sol\":3198:3199  i */\n      dup3\n        /* \"workers log book contract/logbook.sol\":3186:3200  workersList[i] */\n      dup2\n      sload\n      dup2\n      lt\n      tag_153\n      jumpi\n      tag_154\n      tag_68\n      jump\t// in\n    tag_154:\n    tag_153:\n      swap1\n      0x00\n      mstore\n      keccak256(0x00, 0x20)\n      swap1\n      0x04\n      mul\n      add\n        /* \"workers log book contract/logbook.sol\":3186:3214  workersList[i].workerAddress */\n      0x00\n      add\n      0x00\n      swap1\n      sload\n      swap1\n      0x0100\n      exp\n      swap1\n      div\n      0xffffffffffffffffffffffffffffffffffffffff\n      and\n        /* \"workers log book contract/logbook.sol\":3186:3226  workersList[i].workerAddress == _address */\n      0xffffffffffffffffffffffffffffffffffffffff\n      and\n      eq\n        /* \"workers log book contract/logbook.sol\":3178:3253  require(workersList[i].workerAddress == _address, \"Worker does not exists\") */\n      tag_156\n      jumpi\n      mload(0x40)\n      0x08c379a000000000000000000000000000000000000000000000000000000000\n      dup2\n      mstore\n      0x04\n      add\n      tag_157\n      swap1\n      tag_119\n      jump\t// in\n    tag_157:\n      mload(0x40)\n      dup1\n      swap2\n      sub\n      swap1\n      revert\n    tag_156:\n        /* \"workers log book contract/logbook.sol\":3292:3299  newName */\n      dup3\n        /* \"workers log book contract/logbook.sol\":3267:3274  workers */\n      0x02\n        /* \"workers log book contract/logbook.sol\":3267:3284  workers[_address] */\n      0x00\n        /* \"workers log book contract/logbook.sol\":3275:3283  _address */\n      dup7\n        /* \"workers log book contract/logbook.sol\":3267:3284  workers[_address] */\n      0xffffffffffffffffffffffffffffffffffffffff\n      and\n      0xffffffffffffffffffffffffffffffffffffffff\n      and\n      dup2\n      mstore\n      0x20\n      add\n      swap1\n      dup2\n      mstore\n      0x20\n      add\n      0x00\n      keccak256\n        /* \"workers log book contract/logbook.sol\":3267:3289  workers[_address].name */\n      0x01\n      add\n        /* \"workers log book contract/logbook.sol\":3267:3299  workers[_address].name = newName */\n      swap1\n      dup2\n      tag_158\n      swap2\n      swap1\n      tag_80\n      jump\t// in\n    tag_158:\n      pop\n        /* \"workers log book contract/logbook.sol\":3336:3341  newId */\n      dup2\n        /* \"workers log book contract/logbook.sol\":3313:3320  workers */\n      0x02\n        /* \"workers log book contract/logbook.sol\":3313:3330  workers[_address] */\n      0x00\n        /* \"workers log book contract/logbook.sol\":3321:3329  _address */\n      dup7\n        /* \"workers log book contract/logbook.sol\":3313:3330  workers[_address] */\n      0xffffffffffffffffffffffffffffffffffffffff\n      and\n      0xffffffffffffffffffffffffffffffffffffffff\n      and\n      dup2\n      mstore\n      0x20\n      add\n      swap1\n      dup2\n      mstore\n      0x20\n      add\n      0x00\n      keccak256\n        /* \"workers log book contract/logbook.sol\":3313:3333  workers[_address].Id */\n      0x02\n      add\n        /* \"workers log book contract/logbook.sol\":3313:3341  workers[_address].Id = newId */\n      dup2\n      swap1\n      sstore\n      pop\n        /* \"workers log book contract/logbook.sol\":3159:3162  i++ */\n      dup1\n      dup1\n      0x01\n      add\n      swap2\n      pop\n      pop\n        /* \"workers log book contract/logbook.sol\":3115:3352  for (uint256 i = 0; i < workersList.length; i++) {... */\n      jump(tag_150)\n    tag_151:\n      pop\n        /* \"workers log book contract/logbook.sol\":3413:3423  msg.sender */\n      caller\n        /* \"workers log book contract/logbook.sol\":3398:3440  ProfileUpdated(msg.sender, newName, newId) */\n      0xffffffffffffffffffffffffffffffffffffffff\n      and\n      0xdcb94c0b2c025b0736b4b62b1c595f2ca7ad4c711eada6026d477e87de9cca08\n        /* \"workers log book contract/logbook.sol\":3425:3432  newName */\n      dup4\n        /* \"workers log book contract/logbook.sol\":3434:3439  newId */\n      dup4\n        /* \"workers log book contract/logbook.sol\":3398:3440  ProfileUpdated(msg.sender, newName, newId) */\n      mload(0x40)\n      tag_159\n      swap3\n      swap2\n      swap1\n      tag_160\n      jump\t// in\n    tag_159:\n      mload(0x40)\n      dup1\n      swap2\n      sub\n      swap1\n      log2\n        /* \"workers log book contract/logbook.sol\":3009:3447  function updateProfile(address _address, string memory newName, uint256 newId) public onlyOwner {... */\n      pop\n      pop\n      pop\n      jump\t// out\n        /* \"workers log book contract/logbook.sol\":3480:3970  function signIn() public {... */\n    tag_38:\n        /* \"workers log book contract/logbook.sol\":3520:3529  uint256 i */\n      0x00\n        /* \"workers log book contract/logbook.sol\":3515:3964  for (uint256 i = 0; i < workersList.length; i++) {... */\n    tag_162:\n        /* \"workers log book contract/logbook.sol\":3539:3550  workersList */\n      0x03\n        /* \"workers log book contract/logbook.sol\":3539:3557  workersList.length */\n      dup1\n      sload\n      swap1\n      pop\n        /* \"workers log book contract/logbook.sol\":3535:3536  i */\n      dup2\n        /* \"workers log book contract/logbook.sol\":3535:3557  i < workersList.length */\n      lt\n        /* \"workers log book contract/logbook.sol\":3515:3964  for (uint256 i = 0; i < workersList.length; i++) {... */\n      iszero\n      tag_163\n      jumpi\n        /* \"workers log book contract/logbook.sol\":3617:3628  workersList */\n      0x03\n        /* \"workers log book contract/logbook.sol\":3629:3630  i */\n      dup2\n        /* \"workers log book contract/logbook.sol\":3617:3631  workersList[i] */\n      dup2\n      sload\n      dup2\n      lt\n      tag_165\n      jumpi\n      tag_166\n      tag_68\n      jump\t// in\n    tag_166:\n    tag_165:\n      swap1\n      0x00\n      mstore\n      keccak256(0x00, 0x20)\n      swap1\n      0x04\n      mul\n      add\n        /* \"workers log book contract/logbook.sol\":3617:3645  workersList[i].workerAddress */\n      0x00\n      add\n      0x00\n      swap1\n      sload\n      swap1\n      0x0100\n      exp\n      swap1\n      div\n      0xffffffffffffffffffffffffffffffffffffffff\n      and\n        /* \"workers log book contract/logbook.sol\":3603:3645  msg.sender == workersList[i].workerAddress */\n      0xffffffffffffffffffffffffffffffffffffffff\n      and\n        /* \"workers log book contract/logbook.sol\":3603:3613  msg.sender */\n      caller\n        /* \"workers log book contract/logbook.sol\":3603:3645  msg.sender == workersList[i].workerAddress */\n      0xffffffffffffffffffffffffffffffffffffffff\n      and\n      eq\n        /* \"workers log book contract/logbook.sol\":3578:3706  require(... */\n      tag_168\n      jumpi\n      mload(0x40)\n      0x08c379a000000000000000000000000000000000000000000000000000000000\n      dup2\n      mstore\n      0x04\n      add\n      tag_169\n      swap1\n      tag_97\n      jump\t// in\n    tag_169:\n      mload(0x40)\n      dup1\n      swap2\n      sub\n      swap1\n      revert\n    tag_168:\n        /* \"workers log book contract/logbook.sol\":3754:3759  false */\n      0x00\n        /* \"workers log book contract/logbook.sol\":3729:3759  workersList[i].signed == false */\n      iszero\n      iszero\n        /* \"workers log book contract/logbook.sol\":3729:3740  workersList */\n      0x03\n        /* \"workers log book contract/logbook.sol\":3741:3742  i */\n      dup3\n        /* \"workers log book contract/logbook.sol\":3729:3743  workersList[i] */\n      dup2\n      sload\n      dup2\n      lt\n      tag_170\n      jumpi\n      tag_171\n      tag_68\n      jump\t// in\n    tag_171:\n    tag_170:\n      swap1\n      0x00\n      mstore\n      keccak256(0x00, 0x20)\n      swap1\n      0x04\n      mul\n      add\n        /* \"workers log book contract/logbook.sol\":3729:3750  workersList[i].signed */\n      0x03\n      add\n      0x00\n      swap1\n      sload\n      swap1\n      0x0100\n      exp\n      swap1\n      div\n      0xff\n      and\n        /* \"workers log book contract/logbook.sol\":3729:3759  workersList[i].signed == false */\n      iszero\n      iszero\n      eq\n        /* \"workers log book contract/logbook.sol\":3721:3786  require(workersList[i].signed == false, \"user already signed in\") */\n      tag_173\n      jumpi\n      mload(0x40)\n      0x08c379a000000000000000000000000000000000000000000000000000000000\n      dup2\n      mstore\n      0x04\n      add\n      tag_174\n      swap1\n      tag_175\n      jump\t// in\n    tag_174:\n      mload(0x40)\n      dup1\n      swap2\n      sub\n      swap1\n      revert\n    tag_173:\n        /* \"workers log book contract/logbook.sol\":3837:3841  true */\n      0x01\n        /* \"workers log book contract/logbook.sol\":3813:3824  workersList */\n      0x03\n        /* \"workers log book contract/logbook.sol\":3825:3826  i */\n      dup3\n        /* \"workers log book contract/logbook.sol\":3813:3827  workersList[i] */\n      dup2\n      sload\n      dup2\n      lt\n      tag_176\n      jumpi\n      tag_177\n      tag_68\n      jump\t// in\n    tag_177:\n    tag_176:\n      swap1\n      0x00\n      mstore\n      keccak256(0x00, 0x20)\n      swap1\n      0x04\n      mul\n      add\n        /* \"workers log book contract/logbook.sol\":3813:3834  workersList[i].signed */\n      0x03\n      add\n      0x00\n        /* \"workers log book contract/logbook.sol\":3813:3841  workersList[i].signed = true */\n      0x0100\n      exp\n      dup2\n      sload\n      dup2\n      0xff\n      mul\n      not\n      and\n      swap1\n      dup4\n      iszero\n      iszero\n      mul\n      or\n      swap1\n      sstore\n      pop\n        /* \"workers log book contract/logbook.sol\":3855:3870  loggedInWorkers */\n      0x04\n        /* \"workers log book contract/logbook.sol\":3876:3887  workersList */\n      0x03\n        /* \"workers log book contract/logbook.sol\":3888:3889  i */\n      dup3\n        /* \"workers log book contract/logbook.sol\":3876:3890  workersList[i] */\n      dup2\n      sload\n      dup2\n      lt\n      tag_179\n      jumpi\n      tag_180\n      tag_68\n      jump\t// in\n    tag_180:\n    tag_179:\n      swap1\n      0x00\n      mstore\n      keccak256(0x00, 0x20)\n      swap1\n      0x04\n      mul\n      add\n        /* \"workers log book contract/logbook.sol\":3855:3891  loggedInWorkers.push(workersList[i]) */\n      swap1\n      dup1\n      0x01\n      dup2\n      sload\n      add\n      dup1\n      dup3\n      sstore\n      dup1\n      swap2\n      pop\n      pop\n      0x01\n      swap1\n      sub\n      swap1\n      0x00\n      mstore\n      keccak256(0x00, 0x20)\n      swap1\n      0x04\n      mul\n      add\n      0x00\n      swap1\n      swap2\n      swap1\n      swap2\n      swap1\n      swap2\n      pop\n      0x00\n      dup3\n      add\n      0x00\n      swap1\n      sload\n      swap1\n      0x0100\n      exp\n      swap1\n      div\n      0xffffffffffffffffffffffffffffffffffffffff\n      and\n      dup2\n      0x00\n      add\n      exp(0x0100, 0x00)\n      dup2\n      sload\n      dup2\n      0xffffffffffffffffffffffffffffffffffffffff\n      mul\n      not\n      and\n      swap1\n      dup4\n      0xffffffffffffffffffffffffffffffffffffffff\n      and\n      mul\n      or\n      swap1\n      sstore\n      pop\n      0x01\n      dup3\n      add\n      dup2\n      0x01\n      add\n      swap1\n      dup2\n      tag_183\n      swap2\n      swap1\n      tag_138\n      jump\t// in\n    tag_183:\n      pop\n      0x02\n      dup3\n      add\n      sload\n      dup2\n      0x02\n      add\n      sstore\n      0x03\n      dup3\n      add\n      0x00\n      swap1\n      sload\n      swap1\n      0x0100\n      exp\n      swap1\n      div\n      0xff\n      and\n      dup2\n      0x03\n      add\n      exp(0x0100, 0x00)\n      dup2\n      sload\n      dup2\n      0xff\n      mul\n      not\n      and\n      swap1\n      dup4\n      iszero\n      iszero\n      mul\n      or\n      swap1\n      sstore\n      pop\n      pop\n      pop\n        /* \"workers log book contract/logbook.sol\":3934:3944  msg.sender */\n      caller\n        /* \"workers log book contract/logbook.sol\":3910:3945  Signed(block.timestamp, msg.sender) */\n      0xffffffffffffffffffffffffffffffffffffffff\n      and\n        /* \"workers log book contract/logbook.sol\":3917:3932  block.timestamp */\n      timestamp\n        /* \"workers log book contract/logbook.sol\":3910:3945  Signed(block.timestamp, msg.sender) */\n      0x80bc357386c693c2d6ad5938af6765eacd7d7790c17e39c014ab30def6394165\n      mload(0x40)\n      mload(0x40)\n      dup1\n      swap2\n      sub\n      swap1\n      log3\n        /* \"workers log book contract/logbook.sol\":3559:3562  i++ */\n      dup1\n      dup1\n      0x01\n      add\n      swap2\n      pop\n      pop\n        /* \"workers log book contract/logbook.sol\":3515:3964  for (uint256 i = 0; i < workersList.length; i++) {... */\n      jump(tag_162)\n    tag_163:\n      pop\n        /* \"workers log book contract/logbook.sol\":3480:3970  function signIn() public {... */\n      jump\t// out\n        /* \"workers log book contract/logbook.sol\":783:810  Worker[] public workersList */\n    tag_41:\n      0x03\n      dup2\n      dup2\n      sload\n      dup2\n      lt\n      tag_184\n      jumpi\n      0x00\n      dup1\n      revert\n    tag_184:\n      swap1\n      0x00\n      mstore\n      keccak256(0x00, 0x20)\n      swap1\n      0x04\n      mul\n      add\n      0x00\n      swap2\n      pop\n      swap1\n      pop\n      dup1\n      0x00\n      add\n      0x00\n      swap1\n      sload\n      swap1\n      0x0100\n      exp\n      swap1\n      div\n      0xffffffffffffffffffffffffffffffffffffffff\n      and\n      swap1\n      dup1\n      0x01\n      add\n      dup1\n      sload\n      tag_186\n      swap1\n      tag_53\n      jump\t// in\n    tag_186:\n      dup1\n      0x1f\n      add\n      0x20\n      dup1\n      swap2\n      div\n      mul\n      0x20\n      add\n      mload(0x40)\n      swap1\n      dup2\n      add\n      0x40\n      mstore\n      dup1\n      swap3\n      swap2\n      swap1\n      dup2\n      dup2\n      mstore\n      0x20\n      add\n      dup3\n      dup1\n      sload\n      tag_187\n      swap1\n      tag_53\n      jump\t// in\n    tag_187:\n      dup1\n      iszero\n      tag_188\n      jumpi\n      dup1\n      0x1f\n      lt\n      tag_189\n      jumpi\n      0x0100\n      dup1\n      dup4\n      sload\n      div\n      mul\n      dup4\n      mstore\n      swap2\n      0x20\n      add\n      swap2\n      jump(tag_188)\n    tag_189:\n      dup3\n      add\n      swap2\n      swap1\n      0x00\n      mstore\n      keccak256(0x00, 0x20)\n      swap1\n    tag_190:\n      dup2\n      sload\n      dup2\n      mstore\n      swap1\n      0x01\n      add\n      swap1\n      0x20\n      add\n      dup1\n      dup4\n      gt\n      tag_190\n      jumpi\n      dup3\n      swap1\n      sub\n      0x1f\n      and\n      dup3\n      add\n      swap2\n    tag_188:\n      pop\n      pop\n      pop\n      pop\n      pop\n      swap1\n      dup1\n      0x02\n      add\n      sload\n      swap1\n      dup1\n      0x03\n      add\n      0x00\n      swap1\n      sload\n      swap1\n      0x0100\n      exp\n      swap1\n      div\n      0xff\n      and\n      swap1\n      pop\n      dup5\n      jump\t// out\n        /* \"workers log book contract/logbook.sol\":2338:2948  function getWorkersData(address _workersAddress)... */\n    tag_45:\n        /* \"workers log book contract/logbook.sol\":2463:2476  string memory */\n      0x60\n        /* \"workers log book contract/logbook.sol\":2490:2497  uint256 */\n      0x00\n        /* \"workers log book contract/logbook.sol\":2511:2515  bool */\n      dup1\n        /* \"workers log book contract/logbook.sol\":675:680  owner */\n      0x00\n      dup1\n      sload\n      swap1\n      0x0100\n      exp\n      swap1\n      div\n      0xffffffffffffffffffffffffffffffffffffffff\n      and\n        /* \"workers log book contract/logbook.sol\":661:680  msg.sender == owner */\n      0xffffffffffffffffffffffffffffffffffffffff\n      and\n        /* \"workers log book contract/logbook.sol\":661:671  msg.sender */\n      caller\n        /* \"workers log book contract/logbook.sol\":661:680  msg.sender == owner */\n      0xffffffffffffffffffffffffffffffffffffffff\n      and\n      eq\n        /* \"workers log book contract/logbook.sol\":653:721  require(msg.sender == owner, \"Only the Boss can call this function\") */\n      tag_192\n      jumpi\n      mload(0x40)\n      0x08c379a000000000000000000000000000000000000000000000000000000000\n      dup2\n      mstore\n      0x04\n      add\n      tag_193\n      swap1\n      tag_61\n      jump\t// in\n    tag_193:\n      mload(0x40)\n      dup1\n      swap2\n      sub\n      swap1\n      revert\n    tag_192:\n        /* \"workers log book contract/logbook.sol\":2545:2554  uint256 i */\n      0x00\n        /* \"workers log book contract/logbook.sol\":2540:2847  for (uint256 i = 0; i < workersList.length; i++) {... */\n    tag_195:\n        /* \"workers log book contract/logbook.sol\":2564:2575  workersList */\n      0x03\n        /* \"workers log book contract/logbook.sol\":2564:2582  workersList.length */\n      dup1\n      sload\n      swap1\n      pop\n        /* \"workers log book contract/logbook.sol\":2560:2561  i */\n      dup2\n        /* \"workers log book contract/logbook.sol\":2560:2582  i < workersList.length */\n      lt\n        /* \"workers log book contract/logbook.sol\":2540:2847  for (uint256 i = 0; i < workersList.length; i++) {... */\n      iszero\n      tag_196\n      jumpi\n        /* \"workers log book contract/logbook.sol\":2626:2637  workersList */\n      0x03\n        /* \"workers log book contract/logbook.sol\":2638:2639  i */\n      dup2\n        /* \"workers log book contract/logbook.sol\":2626:2640  workersList[i] */\n      dup2\n      sload\n      dup2\n      lt\n      tag_198\n      jumpi\n      tag_199\n      tag_68\n      jump\t// in\n    tag_199:\n    tag_198:\n      swap1\n      0x00\n      mstore\n      keccak256(0x00, 0x20)\n      swap1\n      0x04\n      mul\n      add\n        /* \"workers log book contract/logbook.sol\":2626:2654  workersList[i].workerAddress */\n      0x00\n      add\n      0x00\n      swap1\n      sload\n      swap1\n      0x0100\n      exp\n      swap1\n      div\n      0xffffffffffffffffffffffffffffffffffffffff\n      and\n        /* \"workers log book contract/logbook.sol\":2607:2654  _workersAddress == workersList[i].workerAddress */\n      0xffffffffffffffffffffffffffffffffffffffff\n      and\n        /* \"workers log book contract/logbook.sol\":2607:2622  _workersAddress */\n      dup6\n        /* \"workers log book contract/logbook.sol\":2607:2654  _workersAddress == workersList[i].workerAddress */\n      0xffffffffffffffffffffffffffffffffffffffff\n      and\n      sub\n        /* \"workers log book contract/logbook.sol\":2603:2837  if (_workersAddress == workersList[i].workerAddress) {... */\n      tag_201\n      jumpi\n        /* \"workers log book contract/logbook.sol\":2703:2714  workersList */\n      0x03\n        /* \"workers log book contract/logbook.sol\":2715:2716  i */\n      dup2\n        /* \"workers log book contract/logbook.sol\":2703:2717  workersList[i] */\n      dup2\n      sload\n      dup2\n      lt\n      tag_202\n      jumpi\n      tag_203\n      tag_68\n      jump\t// in\n    tag_203:\n    tag_202:\n      swap1\n      0x00\n      mstore\n      keccak256(0x00, 0x20)\n      swap1\n      0x04\n      mul\n      add\n        /* \"workers log book contract/logbook.sol\":2703:2722  workersList[i].name */\n      0x01\n      add\n        /* \"workers log book contract/logbook.sol\":2744:2755  workersList */\n      0x03\n        /* \"workers log book contract/logbook.sol\":2756:2757  i */\n      dup3\n        /* \"workers log book contract/logbook.sol\":2744:2758  workersList[i] */\n      dup2\n      sload\n      dup2\n      lt\n      tag_205\n      jumpi\n      tag_206\n      tag_68\n      jump\t// in\n    tag_206:\n    tag_205:\n      swap1\n      0x00\n      mstore\n      keccak256(0x00, 0x20)\n      swap1\n      0x04\n      mul\n      add\n        /* \"workers log book contract/logbook.sol\":2744:2761  workersList[i].Id */\n      0x02\n      add\n      sload\n        /* \"workers log book contract/logbook.sol\":2783:2794  workersList */\n      0x03\n        /* \"workers log book contract/logbook.sol\":2795:2796  i */\n      dup4\n        /* \"workers log book contract/logbook.sol\":2783:2797  workersList[i] */\n      dup2\n      sload\n      dup2\n      lt\n      tag_208\n      jumpi\n      tag_209\n      tag_68\n      jump\t// in\n    tag_209:\n    tag_208:\n      swap1\n      0x00\n      mstore\n      keccak256(0x00, 0x20)\n      swap1\n      0x04\n      mul\n      add\n        /* \"workers log book contract/logbook.sol\":2783:2804  workersList[i].signed */\n      0x03\n      add\n      0x00\n      swap1\n      sload\n      swap1\n      0x0100\n      exp\n      swap1\n      div\n      0xff\n      and\n        /* \"workers log book contract/logbook.sol\":2674:2822  return (... */\n      dup3\n      dup1\n      sload\n      tag_211\n      swap1\n      tag_53\n      jump\t// in\n    tag_211:\n      dup1\n      0x1f\n      add\n      0x20\n      dup1\n      swap2\n      div\n      mul\n      0x20\n      add\n      mload(0x40)\n      swap1\n      dup2\n      add\n      0x40\n      mstore\n      dup1\n      swap3\n      swap2\n      swap1\n      dup2\n      dup2\n      mstore\n      0x20\n      add\n      dup3\n      dup1\n      sload\n      tag_212\n      swap1\n      tag_53\n      jump\t// in\n    tag_212:\n      dup1\n      iszero\n      tag_213\n      jumpi\n      dup1\n      0x1f\n      lt\n      tag_214\n      jumpi\n      0x0100\n      dup1\n      dup4\n      sload\n      div\n      mul\n      dup4\n      mstore\n      swap2\n      0x20\n      add\n      swap2\n      jump(tag_213)\n    tag_214:\n      dup3\n      add\n      swap2\n      swap1\n      0x00\n      mstore\n      keccak256(0x00, 0x20)\n      swap1\n    tag_215:\n      dup2\n      sload\n      dup2\n      mstore\n      swap1\n      0x01\n      add\n      swap1\n      0x20\n      add\n      dup1\n      dup4\n      gt\n      tag_215\n      jumpi\n      dup3\n      swap1\n      sub\n      0x1f\n      and\n      dup3\n      add\n      swap2\n    tag_213:\n      pop\n      pop\n      pop\n      pop\n      pop\n      swap3\n      pop\n      swap4\n      pop\n      swap4\n      pop\n      swap4\n      pop\n      pop\n      jump(tag_194)\n        /* \"workers log book contract/logbook.sol\":2603:2837  if (_workersAddress == workersList[i].workerAddress) {... */\n    tag_201:\n        /* \"workers log book contract/logbook.sol\":2584:2587  i++ */\n      dup1\n      dup1\n      0x01\n      add\n      swap2\n      pop\n      pop\n        /* \"workers log book contract/logbook.sol\":2540:2847  for (uint256 i = 0; i < workersList.length; i++) {... */\n      jump(tag_195)\n    tag_196:\n      pop\n        /* \"workers log book contract/logbook.sol\":2932:2933  0 */\n      0x00\n        /* \"workers log book contract/logbook.sol\":2935:2940  false */\n      dup1\n        /* \"workers log book contract/logbook.sol\":2920:2941  return (\"\", 0, false) */\n      mload(0x40)\n      dup1\n      0x20\n      add\n      0x40\n      mstore\n      dup1\n      0x00\n      dup2\n      mstore\n      pop\n      swap2\n      swap1\n      swap3\n      pop\n      swap3\n      pop\n      swap3\n      pop\n        /* \"workers log book contract/logbook.sol\":731:732  _ */\n    tag_194:\n        /* \"workers log book contract/logbook.sol\":2338:2948  function getWorkersData(address _workersAddress)... */\n      swap2\n      swap4\n      swap1\n      swap3\n      pop\n      jump\t// out\n        /* \"workers log book contract/logbook.sol\":4480:4899  function resetSignIn() onlyOwner public {... */\n    tag_49:\n        /* \"workers log book contract/logbook.sol\":675:680  owner */\n      0x00\n      dup1\n      sload\n      swap1\n      0x0100\n      exp\n      swap1\n      div\n      0xffffffffffffffffffffffffffffffffffffffff\n      and\n        /* \"workers log book contract/logbook.sol\":661:680  msg.sender == owner */\n      0xffffffffffffffffffffffffffffffffffffffff\n      and\n        /* \"workers log book contract/logbook.sol\":661:671  msg.sender */\n      caller\n        /* \"workers log book contract/logbook.sol\":661:680  msg.sender == owner */\n      0xffffffffffffffffffffffffffffffffffffffff\n      and\n      eq\n        /* \"workers log book contract/logbook.sol\":653:721  require(msg.sender == owner, \"Only the Boss can call this function\") */\n      tag_217\n      jumpi\n      mload(0x40)\n      0x08c379a000000000000000000000000000000000000000000000000000000000\n      dup2\n      mstore\n      0x04\n      add\n      tag_218\n      swap1\n      tag_61\n      jump\t// in\n    tag_218:\n      mload(0x40)\n      dup1\n      swap2\n      sub\n      swap1\n      revert\n    tag_217:\n        /* \"workers log book contract/logbook.sol\":183:191  20 hours */\n      0x011940\n        /* \"workers log book contract/logbook.sol\":4557:4570  lastResetTime */\n      sload(0x01)\n        /* \"workers log book contract/logbook.sol\":4557:4586  lastResetTime + resetInterval */\n      tag_220\n      swap2\n      swap1\n      tag_130\n      jump\t// in\n    tag_220:\n        /* \"workers log book contract/logbook.sol\":4538:4553  block.timestamp */\n      timestamp\n        /* \"workers log book contract/logbook.sol\":4538:4586  block.timestamp >= lastResetTime + resetInterval */\n      lt\n      iszero\n        /* \"workers log book contract/logbook.sol\":4530:4625  require(block.timestamp >= lastResetTime + resetInterval, \"Reset interval has not elapsed yet\") */\n      tag_221\n      jumpi\n      mload(0x40)\n      0x08c379a000000000000000000000000000000000000000000000000000000000\n      dup2\n      mstore\n      0x04\n      add\n      tag_222\n      swap1\n      tag_223\n      jump\t// in\n    tag_222:\n      mload(0x40)\n      dup1\n      swap2\n      sub\n      swap1\n      revert\n    tag_221:\n        /* \"workers log book contract/logbook.sol\":4640:4649  uint256 i */\n      0x00\n        /* \"workers log book contract/logbook.sol\":4635:4738  for (uint256 i = 0; i < workersList.length; i++) {... */\n    tag_224:\n        /* \"workers log book contract/logbook.sol\":4659:4670  workersList */\n      0x03\n        /* \"workers log book contract/logbook.sol\":4659:4677  workersList.length */\n      dup1\n      sload\n      swap1\n      pop\n        /* \"workers log book contract/logbook.sol\":4655:4656  i */\n      dup2\n        /* \"workers log book contract/logbook.sol\":4655:4677  i < workersList.length */\n      lt\n        /* \"workers log book contract/logbook.sol\":4635:4738  for (uint256 i = 0; i < workersList.length; i++) {... */\n      iszero\n      tag_225\n      jumpi\n        /* \"workers log book contract/logbook.sol\":4722:4727  false */\n      0x00\n        /* \"workers log book contract/logbook.sol\":4698:4709  workersList */\n      0x03\n        /* \"workers log book contract/logbook.sol\":4710:4711  i */\n      dup3\n        /* \"workers log book contract/logbook.sol\":4698:4712  workersList[i] */\n      dup2\n      sload\n      dup2\n      lt\n      tag_227\n      jumpi\n      tag_228\n      tag_68\n      jump\t// in\n    tag_228:\n    tag_227:\n      swap1\n      0x00\n      mstore\n      keccak256(0x00, 0x20)\n      swap1\n      0x04\n      mul\n      add\n        /* \"workers log book contract/logbook.sol\":4698:4719  workersList[i].signed */\n      0x03\n      add\n      0x00\n        /* \"workers log book contract/logbook.sol\":4698:4727  workersList[i].signed = false */\n      0x0100\n      exp\n      dup2\n      sload\n      dup2\n      0xff\n      mul\n      not\n      and\n      swap1\n      dup4\n      iszero\n      iszero\n      mul\n      or\n      swap1\n      sstore\n      pop\n        /* \"workers log book contract/logbook.sol\":4679:4682  i++ */\n      dup1\n      dup1\n      0x01\n      add\n      swap2\n      pop\n      pop\n        /* \"workers log book contract/logbook.sol\":4635:4738  for (uint256 i = 0; i < workersList.length; i++) {... */\n      jump(tag_224)\n    tag_225:\n      pop\n        /* \"workers log book contract/logbook.sol\":4753:4762  uint256 i */\n      0x00\n        /* \"workers log book contract/logbook.sol\":4748:4851  for (uint256 i = 0; i < loggedInWorkers.length; i++) {... */\n    tag_230:\n        /* \"workers log book contract/logbook.sol\":4772:4787  loggedInWorkers */\n      0x04\n        /* \"workers log book contract/logbook.sol\":4772:4794  loggedInWorkers.length */\n      dup1\n      sload\n      swap1\n      pop\n        /* \"workers log book contract/logbook.sol\":4768:4769  i */\n      dup2\n        /* \"workers log book contract/logbook.sol\":4768:4794  i < loggedInWorkers.length */\n      lt\n        /* \"workers log book contract/logbook.sol\":4748:4851  for (uint256 i = 0; i < loggedInWorkers.length; i++) {... */\n      iszero\n      tag_231\n      jumpi\n        /* \"workers log book contract/logbook.sol\":4822:4837  loggedInWorkers */\n      0x04\n        /* \"workers log book contract/logbook.sol\":4838:4839  i */\n      dup2\n        /* \"workers log book contract/logbook.sol\":4822:4840  loggedInWorkers[i] */\n      dup2\n      sload\n      dup2\n      lt\n      tag_233\n      jumpi\n      tag_234\n      tag_68\n      jump\t// in\n    tag_234:\n    tag_233:\n      swap1\n      0x00\n      mstore\n      keccak256(0x00, 0x20)\n      swap1\n      0x04\n      mul\n      add\n      0x00\n        /* \"workers log book contract/logbook.sol\":4815:4840  delete loggedInWorkers[i] */\n      dup1\n      dup3\n      add\n      exp(0x0100, 0x00)\n      dup2\n      sload\n      swap1\n      0xffffffffffffffffffffffffffffffffffffffff\n      mul\n      not\n      and\n      swap1\n      sstore\n      0x01\n      dup3\n      add\n      0x00\n      tag_236\n      swap2\n      swap1\n      tag_144\n      jump\t// in\n    tag_236:\n      0x02\n      dup3\n      add\n      0x00\n      swap1\n      sstore\n      0x03\n      dup3\n      add\n      exp(0x0100, 0x00)\n      dup2\n      sload\n      swap1\n      0xff\n      mul\n      not\n      and\n      swap1\n      sstore\n      pop\n      pop\n        /* \"workers log book contract/logbook.sol\":4796:4799  i++ */\n      dup1\n      dup1\n      0x01\n      add\n      swap2\n      pop\n      pop\n        /* \"workers log book contract/logbook.sol\":4748:4851  for (uint256 i = 0; i < loggedInWorkers.length; i++) {... */\n      jump(tag_230)\n    tag_231:\n      pop\n        /* \"workers log book contract/logbook.sol\":4877:4892  block.timestamp */\n      timestamp\n        /* \"workers log book contract/logbook.sol\":4861:4874  lastResetTime */\n      0x01\n        /* \"workers log book contract/logbook.sol\":4861:4892  lastResetTime = block.timestamp */\n      dup2\n      swap1\n      sstore\n      pop\n        /* \"workers log book contract/logbook.sol\":4480:4899  function resetSignIn() onlyOwner public {... */\n      jump\t// out\n    tag_144:\n      pop\n      dup1\n      sload\n      tag_237\n      swap1\n      tag_53\n      jump\t// in\n    tag_237:\n      0x00\n      dup3\n      sstore\n      dup1\n      0x1f\n      lt\n      tag_239\n      jumpi\n      pop\n      jump(tag_238)\n    tag_239:\n      0x1f\n      add\n      0x20\n      swap1\n      div\n      swap1\n      0x00\n      mstore\n      keccak256(0x00, 0x20)\n      swap1\n      dup2\n      add\n      swap1\n      tag_240\n      swap2\n      swap1\n      tag_241\n      jump\t// in\n    tag_240:\n    tag_238:\n      pop\n      jump\t// out\n    tag_241:\n    tag_242:\n      dup1\n      dup3\n      gt\n      iszero\n      tag_243\n      jumpi\n      0x00\n      dup2\n      0x00\n      swap1\n      sstore\n      pop\n      0x01\n      add\n      jump(tag_242)\n    tag_243:\n      pop\n      swap1\n      jump\t// out\n        /* \"#utility.yul\":7:82   */\n    tag_244:\n        /* \"#utility.yul\":40:46   */\n      0x00\n        /* \"#utility.yul\":73:75   */\n      0x40\n        /* \"#utility.yul\":67:76   */\n      mload\n        /* \"#utility.yul\":57:76   */\n      swap1\n      pop\n        /* \"#utility.yul\":7:82   */\n      swap1\n      jump\t// out\n        /* \"#utility.yul\":88:205   */\n    tag_245:\n        /* \"#utility.yul\":197:198   */\n      0x00\n        /* \"#utility.yul\":194:195   */\n      dup1\n        /* \"#utility.yul\":187:199   */\n      revert\n        /* \"#utility.yul\":211:328   */\n    tag_246:\n        /* \"#utility.yul\":320:321   */\n      0x00\n        /* \"#utility.yul\":317:318   */\n      dup1\n        /* \"#utility.yul\":310:322   */\n      revert\n        /* \"#utility.yul\":334:411   */\n    tag_247:\n        /* \"#utility.yul\":371:378   */\n      0x00\n        /* \"#utility.yul\":400:405   */\n      dup2\n        /* \"#utility.yul\":389:405   */\n      swap1\n      pop\n        /* \"#utility.yul\":334:411   */\n      swap2\n      swap1\n      pop\n      jump\t// out\n        /* \"#utility.yul\":417:539   */\n    tag_248:\n        /* \"#utility.yul\":490:514   */\n      tag_312\n        /* \"#utility.yul\":508:513   */\n      dup2\n        /* \"#utility.yul\":490:514   */\n      tag_247\n      jump\t// in\n    tag_312:\n        /* \"#utility.yul\":483:488   */\n      dup2\n        /* \"#utility.yul\":480:515   */\n      eq\n        /* \"#utility.yul\":470:533   */\n      tag_313\n      jumpi\n        /* \"#utility.yul\":529:530   */\n      0x00\n        /* \"#utility.yul\":526:527   */\n      dup1\n        /* \"#utility.yul\":519:531   */\n      revert\n        /* \"#utility.yul\":470:533   */\n    tag_313:\n        /* \"#utility.yul\":417:539   */\n      pop\n      jump\t// out\n        /* \"#utility.yul\":545:684   */\n    tag_249:\n        /* \"#utility.yul\":591:596   */\n      0x00\n        /* \"#utility.yul\":629:635   */\n      dup2\n        /* \"#utility.yul\":616:636   */\n      calldataload\n        /* \"#utility.yul\":607:636   */\n      swap1\n      pop\n        /* \"#utility.yul\":645:678   */\n      tag_315\n        /* \"#utility.yul\":672:677   */\n      dup2\n        /* \"#utility.yul\":645:678   */\n      tag_248\n      jump\t// in\n    tag_315:\n        /* \"#utility.yul\":545:684   */\n      swap3\n      swap2\n      pop\n      pop\n      jump\t// out\n        /* \"#utility.yul\":690:1019   */\n    tag_16:\n        /* \"#utility.yul\":749:755   */\n      0x00\n        /* \"#utility.yul\":798:800   */\n      0x20\n        /* \"#utility.yul\":786:795   */\n      dup3\n        /* \"#utility.yul\":777:784   */\n      dup5\n        /* \"#utility.yul\":773:796   */\n      sub\n        /* \"#utility.yul\":769:801   */\n      slt\n        /* \"#utility.yul\":766:885   */\n      iszero\n      tag_317\n      jumpi\n        /* \"#utility.yul\":804:883   */\n      tag_318\n      tag_245\n      jump\t// in\n    tag_318:\n        /* \"#utility.yul\":766:885   */\n    tag_317:\n        /* \"#utility.yul\":924:925   */\n      0x00\n        /* \"#utility.yul\":949:1002   */\n      tag_319\n        /* \"#utility.yul\":994:1001   */\n      dup5\n        /* \"#utility.yul\":985:991   */\n      dup3\n        /* \"#utility.yul\":974:983   */\n      dup6\n        /* \"#utility.yul\":970:992   */\n      add\n        /* \"#utility.yul\":949:1002   */\n      tag_249\n      jump\t// in\n    tag_319:\n        /* \"#utility.yul\":939:1002   */\n      swap2\n      pop\n        /* \"#utility.yul\":895:1012   */\n      pop\n        /* \"#utility.yul\":690:1019   */\n      swap3\n      swap2\n      pop\n      pop\n      jump\t// out\n        /* \"#utility.yul\":1025:1151   */\n    tag_250:\n        /* \"#utility.yul\":1062:1069   */\n      0x00\n        /* \"#utility.yul\":1102:1144   */\n      0xffffffffffffffffffffffffffffffffffffffff\n        /* \"#utility.yul\":1095:1100   */\n      dup3\n        /* \"#utility.yul\":1091:1145   */\n      and\n        /* \"#utility.yul\":1080:1145   */\n      swap1\n      pop\n        /* \"#utility.yul\":1025:1151   */\n      swap2\n      swap1\n      pop\n      jump\t// out\n        /* \"#utility.yul\":1157:1253   */\n    tag_251:\n        /* \"#utility.yul\":1194:1201   */\n      0x00\n        /* \"#utility.yul\":1223:1247   */\n      tag_322\n        /* \"#utility.yul\":1241:1246   */\n      dup3\n        /* \"#utility.yul\":1223:1247   */\n      tag_250\n      jump\t// in\n    tag_322:\n        /* \"#utility.yul\":1212:1247   */\n      swap1\n      pop\n        /* \"#utility.yul\":1157:1253   */\n      swap2\n      swap1\n      pop\n      jump\t// out\n        /* \"#utility.yul\":1259:1377   */\n    tag_252:\n        /* \"#utility.yul\":1346:1370   */\n      tag_324\n        /* \"#utility.yul\":1364:1369   */\n      dup2\n        /* \"#utility.yul\":1346:1370   */\n      tag_251\n      jump\t// in\n    tag_324:\n        /* \"#utility.yul\":1341:1344   */\n      dup3\n        /* \"#utility.yul\":1334:1371   */\n      mstore\n        /* \"#utility.yul\":1259:1377   */\n      pop\n      pop\n      jump\t// out\n        /* \"#utility.yul\":1383:1482   */\n    tag_253:\n        /* \"#utility.yul\":1435:1441   */\n      0x00\n        /* \"#utility.yul\":1469:1474   */\n      dup2\n        /* \"#utility.yul\":1463:1475   */\n      mload\n        /* \"#utility.yul\":1453:1475   */\n      swap1\n      pop\n        /* \"#utility.yul\":1383:1482   */\n      swap2\n      swap1\n      pop\n      jump\t// out\n        /* \"#utility.yul\":1488:1657   */\n    tag_254:\n        /* \"#utility.yul\":1572:1583   */\n      0x00\n        /* \"#utility.yul\":1606:1612   */\n      dup3\n        /* \"#utility.yul\":1601:1604   */\n      dup3\n        /* \"#utility.yul\":1594:1613   */\n      mstore\n        /* \"#utility.yul\":1646:1650   */\n      0x20\n        /* \"#utility.yul\":1641:1644   */\n      dup3\n        /* \"#utility.yul\":1637:1651   */\n      add\n        /* \"#utility.yul\":1622:1651   */\n      swap1\n      pop\n        /* \"#utility.yul\":1488:1657   */\n      swap3\n      swap2\n      pop\n      pop\n      jump\t// out\n        /* \"#utility.yul\":1663:1909   */\n    tag_255:\n        /* \"#utility.yul\":1744:1745   */\n      0x00\n        /* \"#utility.yul\":1754:1867   */\n    tag_328:\n        /* \"#utility.yul\":1768:1774   */\n      dup4\n        /* \"#utility.yul\":1765:1766   */\n      dup2\n        /* \"#utility.yul\":1762:1775   */\n      lt\n        /* \"#utility.yul\":1754:1867   */\n      iszero\n      tag_330\n      jumpi\n        /* \"#utility.yul\":1853:1854   */\n      dup1\n        /* \"#utility.yul\":1848:1851   */\n      dup3\n        /* \"#utility.yul\":1844:1855   */\n      add\n        /* \"#utility.yul\":1838:1856   */\n      mload\n        /* \"#utility.yul\":1834:1835   */\n      dup2\n        /* \"#utility.yul\":1829:1832   */\n      dup5\n        /* \"#utility.yul\":1825:1836   */\n      add\n        /* \"#utility.yul\":1818:1857   */\n      mstore\n        /* \"#utility.yul\":1790:1792   */\n      0x20\n        /* \"#utility.yul\":1787:1788   */\n      dup2\n        /* \"#utility.yul\":1783:1793   */\n      add\n        /* \"#utility.yul\":1778:1793   */\n      swap1\n      pop\n        /* \"#utility.yul\":1754:1867   */\n      jump(tag_328)\n    tag_330:\n        /* \"#utility.yul\":1901:1902   */\n      0x00\n        /* \"#utility.yul\":1892:1898   */\n      dup5\n        /* \"#utility.yul\":1887:1890   */\n      dup5\n        /* \"#utility.yul\":1883:1899   */\n      add\n        /* \"#utility.yul\":1876:1903   */\n      mstore\n        /* \"#utility.yul\":1725:1909   */\n      pop\n        /* \"#utility.yul\":1663:1909   */\n      pop\n      pop\n      pop\n      jump\t// out\n        /* \"#utility.yul\":1915:2017   */\n    tag_256:\n        /* \"#utility.yul\":1956:1962   */\n      0x00\n        /* \"#utility.yul\":2007:2009   */\n      0x1f\n        /* \"#utility.yul\":2003:2010   */\n      not\n        /* \"#utility.yul\":1998:2000   */\n      0x1f\n        /* \"#utility.yul\":1991:1996   */\n      dup4\n        /* \"#utility.yul\":1987:2001   */\n      add\n        /* \"#utility.yul\":1983:2011   */\n      and\n        /* \"#utility.yul\":1973:2011   */\n      swap1\n      pop\n        /* \"#utility.yul\":1915:2017   */\n      swap2\n      swap1\n      pop\n      jump\t// out\n        /* \"#utility.yul\":2023:2400   */\n    tag_257:\n        /* \"#utility.yul\":2111:2114   */\n      0x00\n        /* \"#utility.yul\":2139:2178   */\n      tag_333\n        /* \"#utility.yul\":2172:2177   */\n      dup3\n        /* \"#utility.yul\":2139:2178   */\n      tag_253\n      jump\t// in\n    tag_333:\n        /* \"#utility.yul\":2194:2265   */\n      tag_334\n        /* \"#utility.yul\":2258:2264   */\n      dup2\n        /* \"#utility.yul\":2253:2256   */\n      dup6\n        /* \"#utility.yul\":2194:2265   */\n      tag_254\n      jump\t// in\n    tag_334:\n        /* \"#utility.yul\":2187:2265   */\n      swap4\n      pop\n        /* \"#utility.yul\":2274:2339   */\n      tag_335\n        /* \"#utility.yul\":2332:2338   */\n      dup2\n        /* \"#utility.yul\":2327:2330   */\n      dup6\n        /* \"#utility.yul\":2320:2324   */\n      0x20\n        /* \"#utility.yul\":2313:2318   */\n      dup7\n        /* \"#utility.yul\":2309:2325   */\n      add\n        /* \"#utility.yul\":2274:2339   */\n      tag_255\n      jump\t// in\n    tag_335:\n        /* \"#utility.yul\":2364:2393   */\n      tag_336\n        /* \"#utility.yul\":2386:2392   */\n      dup2\n        /* \"#utility.yul\":2364:2393   */\n      tag_256\n      jump\t// in\n    tag_336:\n        /* \"#utility.yul\":2359:2362   */\n      dup5\n        /* \"#utility.yul\":2355:2394   */\n      add\n        /* \"#utility.yul\":2348:2394   */\n      swap2\n      pop\n        /* \"#utility.yul\":2115:2400   */\n      pop\n        /* \"#utility.yul\":2023:2400   */\n      swap3\n      swap2\n      pop\n      pop\n      jump\t// out\n        /* \"#utility.yul\":2406:2524   */\n    tag_258:\n        /* \"#utility.yul\":2493:2517   */\n      tag_338\n        /* \"#utility.yul\":2511:2516   */\n      dup2\n        /* \"#utility.yul\":2493:2517   */\n      tag_247\n      jump\t// in\n    tag_338:\n        /* \"#utility.yul\":2488:2491   */\n      dup3\n        /* \"#utility.yul\":2481:2518   */\n      mstore\n        /* \"#utility.yul\":2406:2524   */\n      pop\n      pop\n      jump\t// out\n        /* \"#utility.yul\":2530:2620   */\n    tag_259:\n        /* \"#utility.yul\":2564:2571   */\n      0x00\n        /* \"#utility.yul\":2607:2612   */\n      dup2\n        /* \"#utility.yul\":2600:2613   */\n      iszero\n        /* \"#utility.yul\":2593:2614   */\n      iszero\n        /* \"#utility.yul\":2582:2614   */\n      swap1\n      pop\n        /* \"#utility.yul\":2530:2620   */\n      swap2\n      swap1\n      pop\n      jump\t// out\n        /* \"#utility.yul\":2626:2735   */\n    tag_260:\n        /* \"#utility.yul\":2707:2728   */\n      tag_341\n        /* \"#utility.yul\":2722:2727   */\n      dup2\n        /* \"#utility.yul\":2707:2728   */\n      tag_259\n      jump\t// in\n    tag_341:\n        /* \"#utility.yul\":2702:2705   */\n      dup3\n        /* \"#utility.yul\":2695:2729   */\n      mstore\n        /* \"#utility.yul\":2626:2735   */\n      pop\n      pop\n      jump\t// out\n        /* \"#utility.yul\":2741:3373   */\n    tag_19:\n        /* \"#utility.yul\":2932:2936   */\n      0x00\n        /* \"#utility.yul\":2970:2973   */\n      0x80\n        /* \"#utility.yul\":2959:2968   */\n      dup3\n        /* \"#utility.yul\":2955:2974   */\n      add\n        /* \"#utility.yul\":2947:2974   */\n      swap1\n      pop\n        /* \"#utility.yul\":2984:3055   */\n      tag_343\n        /* \"#utility.yul\":3052:3053   */\n      0x00\n        /* \"#utility.yul\":3041:3050   */\n      dup4\n        /* \"#utility.yul\":3037:3054   */\n      add\n        /* \"#utility.yul\":3028:3034   */\n      dup8\n        /* \"#utility.yul\":2984:3055   */\n      tag_252\n      jump\t// in\n    tag_343:\n        /* \"#utility.yul\":3102:3111   */\n      dup2\n        /* \"#utility.yul\":3096:3100   */\n      dup2\n        /* \"#utility.yul\":3092:3112   */\n      sub\n        /* \"#utility.yul\":3087:3089   */\n      0x20\n        /* \"#utility.yul\":3076:3085   */\n      dup4\n        /* \"#utility.yul\":3072:3090   */\n      add\n        /* \"#utility.yul\":3065:3113   */\n      mstore\n        /* \"#utility.yul\":3130:3208   */\n      tag_344\n        /* \"#utility.yul\":3203:3207   */\n      dup2\n        /* \"#utility.yul\":3194:3200   */\n      dup7\n        /* \"#utility.yul\":3130:3208   */\n      tag_257\n      jump\t// in\n    tag_344:\n        /* \"#utility.yul\":3122:3208   */\n      swap1\n      pop\n        /* \"#utility.yul\":3218:3290   */\n      tag_345\n        /* \"#utility.yul\":3286:3288   */\n      0x40\n        /* \"#utility.yul\":3275:3284   */\n      dup4\n        /* \"#utility.yul\":3271:3289   */\n      add\n        /* \"#utility.yul\":3262:3268   */\n      dup6\n        /* \"#utility.yul\":3218:3290   */\n      tag_258\n      jump\t// in\n    tag_345:\n        /* \"#utility.yul\":3300:3366   */\n      tag_346\n        /* \"#utility.yul\":3362:3364   */\n      0x60\n        /* \"#utility.yul\":3351:3360   */\n      dup4\n        /* \"#utility.yul\":3347:3365   */\n      add\n        /* \"#utility.yul\":3338:3344   */\n      dup5\n        /* \"#utility.yul\":3300:3366   */\n      tag_260\n      jump\t// in\n    tag_346:\n        /* \"#utility.yul\":2741:3373   */\n      swap6\n      swap5\n      pop\n      pop\n      pop\n      pop\n      pop\n      jump\t// out\n        /* \"#utility.yul\":3379:3501   */\n    tag_261:\n        /* \"#utility.yul\":3452:3476   */\n      tag_348\n        /* \"#utility.yul\":3470:3475   */\n      dup2\n        /* \"#utility.yul\":3452:3476   */\n      tag_251\n      jump\t// in\n    tag_348:\n        /* \"#utility.yul\":3445:3450   */\n      dup2\n        /* \"#utility.yul\":3442:3477   */\n      eq\n        /* \"#utility.yul\":3432:3495   */\n      tag_349\n      jumpi\n        /* \"#utility.yul\":3491:3492   */\n      0x00\n        /* \"#utility.yul\":3488:3489   */\n      dup1\n        /* \"#utility.yul\":3481:3493   */\n      revert\n        /* \"#utility.yul\":3432:3495   */\n    tag_349:\n        /* \"#utility.yul\":3379:3501   */\n      pop\n      jump\t// out\n        /* \"#utility.yul\":3507:3646   */\n    tag_262:\n        /* \"#utility.yul\":3553:3558   */\n      0x00\n        /* \"#utility.yul\":3591:3597   */\n      dup2\n        /* \"#utility.yul\":3578:3598   */\n      calldataload\n        /* \"#utility.yul\":3569:3598   */\n      swap1\n      pop\n        /* \"#utility.yul\":3607:3640   */\n      tag_351\n        /* \"#utility.yul\":3634:3639   */\n      dup2\n        /* \"#utility.yul\":3607:3640   */\n      tag_261\n      jump\t// in\n    tag_351:\n        /* \"#utility.yul\":3507:3646   */\n      swap3\n      swap2\n      pop\n      pop\n      jump\t// out\n        /* \"#utility.yul\":3652:3769   */\n    tag_263:\n        /* \"#utility.yul\":3761:3762   */\n      0x00\n        /* \"#utility.yul\":3758:3759   */\n      dup1\n        /* \"#utility.yul\":3751:3763   */\n      revert\n        /* \"#utility.yul\":3775:3892   */\n    tag_264:\n        /* \"#utility.yul\":3884:3885   */\n      0x00\n        /* \"#utility.yul\":3881:3882   */\n      dup1\n        /* \"#utility.yul\":3874:3886   */\n      revert\n        /* \"#utility.yul\":3898:4078   */\n    tag_265:\n        /* \"#utility.yul\":3946:4023   */\n      0x4e487b7100000000000000000000000000000000000000000000000000000000\n        /* \"#utility.yul\":3943:3944   */\n      0x00\n        /* \"#utility.yul\":3936:4024   */\n      mstore\n        /* \"#utility.yul\":4043:4047   */\n      0x41\n        /* \"#utility.yul\":4040:4041   */\n      0x04\n        /* \"#utility.yul\":4033:4048   */\n      mstore\n        /* \"#utility.yul\":4067:4071   */\n      0x24\n        /* \"#utility.yul\":4064:4065   */\n      0x00\n        /* \"#utility.yul\":4057:4072   */\n      revert\n        /* \"#utility.yul\":4084:4365   */\n    tag_266:\n        /* \"#utility.yul\":4167:4194   */\n      tag_356\n        /* \"#utility.yul\":4189:4193   */\n      dup3\n        /* \"#utility.yul\":4167:4194   */\n      tag_256\n      jump\t// in\n    tag_356:\n        /* \"#utility.yul\":4159:4165   */\n      dup2\n        /* \"#utility.yul\":4155:4195   */\n      add\n        /* \"#utility.yul\":4297:4303   */\n      dup2\n        /* \"#utility.yul\":4285:4295   */\n      dup2\n        /* \"#utility.yul\":4282:4304   */\n      lt\n        /* \"#utility.yul\":4261:4279   */\n      0xffffffffffffffff\n        /* \"#utility.yul\":4249:4259   */\n      dup3\n        /* \"#utility.yul\":4246:4280   */\n      gt\n        /* \"#utility.yul\":4243:4305   */\n      or\n        /* \"#utility.yul\":4240:4328   */\n      iszero\n      tag_357\n      jumpi\n        /* \"#utility.yul\":4308:4326   */\n      tag_358\n      tag_265\n      jump\t// in\n    tag_358:\n        /* \"#utility.yul\":4240:4328   */\n    tag_357:\n        /* \"#utility.yul\":4348:4358   */\n      dup1\n        /* \"#utility.yul\":4344:4346   */\n      0x40\n        /* \"#utility.yul\":4337:4359   */\n      mstore\n        /* \"#utility.yul\":4127:4365   */\n      pop\n        /* \"#utility.yul\":4084:4365   */\n      pop\n      pop\n      jump\t// out\n        /* \"#utility.yul\":4371:4500   */\n    tag_267:\n        /* \"#utility.yul\":4405:4411   */\n      0x00\n        /* \"#utility.yul\":4432:4452   */\n      tag_360\n      tag_244\n      jump\t// in\n    tag_360:\n        /* \"#utility.yul\":4422:4452   */\n      swap1\n      pop\n        /* \"#utility.yul\":4461:4494   */\n      tag_361\n        /* \"#utility.yul\":4489:4493   */\n      dup3\n        /* \"#utility.yul\":4481:4487   */\n      dup3\n        /* \"#utility.yul\":4461:4494   */\n      tag_266\n      jump\t// in\n    tag_361:\n        /* \"#utility.yul\":4371:4500   */\n      swap2\n      swap1\n      pop\n      jump\t// out\n        /* \"#utility.yul\":4506:4814   */\n    tag_268:\n        /* \"#utility.yul\":4568:4572   */\n      0x00\n        /* \"#utility.yul\":4658:4676   */\n      0xffffffffffffffff\n        /* \"#utility.yul\":4650:4656   */\n      dup3\n        /* \"#utility.yul\":4647:4677   */\n      gt\n        /* \"#utility.yul\":4644:4700   */\n      iszero\n      tag_363\n      jumpi\n        /* \"#utility.yul\":4680:4698   */\n      tag_364\n      tag_265\n      jump\t// in\n    tag_364:\n        /* \"#utility.yul\":4644:4700   */\n    tag_363:\n        /* \"#utility.yul\":4718:4747   */\n      tag_365\n        /* \"#utility.yul\":4740:4746   */\n      dup3\n        /* \"#utility.yul\":4718:4747   */\n      tag_256\n      jump\t// in\n    tag_365:\n        /* \"#utility.yul\":4710:4747   */\n      swap1\n      pop\n        /* \"#utility.yul\":4802:4806   */\n      0x20\n        /* \"#utility.yul\":4796:4800   */\n      dup2\n        /* \"#utility.yul\":4792:4807   */\n      add\n        /* \"#utility.yul\":4784:4807   */\n      swap1\n      pop\n        /* \"#utility.yul\":4506:4814   */\n      swap2\n      swap1\n      pop\n      jump\t// out\n        /* \"#utility.yul\":4820:4966   */\n    tag_269:\n        /* \"#utility.yul\":4917:4923   */\n      dup3\n        /* \"#utility.yul\":4912:4915   */\n      dup2\n        /* \"#utility.yul\":4907:4910   */\n      dup4\n        /* \"#utility.yul\":4894:4924   */\n      calldatacopy\n        /* \"#utility.yul\":4958:4959   */\n      0x00\n        /* \"#utility.yul\":4949:4955   */\n      dup4\n        /* \"#utility.yul\":4944:4947   */\n      dup4\n        /* \"#utility.yul\":4940:4956   */\n      add\n        /* \"#utility.yul\":4933:4960   */\n      mstore\n        /* \"#utility.yul\":4820:4966   */\n      pop\n      pop\n      pop\n      jump\t// out\n        /* \"#utility.yul\":4972:5397   */\n    tag_270:\n        /* \"#utility.yul\":5050:5055   */\n      0x00\n        /* \"#utility.yul\":5075:5141   */\n      tag_368\n        /* \"#utility.yul\":5091:5140   */\n      tag_369\n        /* \"#utility.yul\":5133:5139   */\n      dup5\n        /* \"#utility.yul\":5091:5140   */\n      tag_268\n      jump\t// in\n    tag_369:\n        /* \"#utility.yul\":5075:5141   */\n      tag_267\n      jump\t// in\n    tag_368:\n        /* \"#utility.yul\":5066:5141   */\n      swap1\n      pop\n        /* \"#utility.yul\":5164:5170   */\n      dup3\n        /* \"#utility.yul\":5157:5162   */\n      dup2\n        /* \"#utility.yul\":5150:5171   */\n      mstore\n        /* \"#utility.yul\":5202:5206   */\n      0x20\n        /* \"#utility.yul\":5195:5200   */\n      dup2\n        /* \"#utility.yul\":5191:5207   */\n      add\n        /* \"#utility.yul\":5240:5243   */\n      dup5\n        /* \"#utility.yul\":5231:5237   */\n      dup5\n        /* \"#utility.yul\":5226:5229   */\n      dup5\n        /* \"#utility.yul\":5222:5238   */\n      add\n        /* \"#utility.yul\":5219:5244   */\n      gt\n        /* \"#utility.yul\":5216:5328   */\n      iszero\n      tag_370\n      jumpi\n        /* \"#utility.yul\":5247:5326   */\n      tag_371\n      tag_264\n      jump\t// in\n    tag_371:\n        /* \"#utility.yul\":5216:5328   */\n    tag_370:\n        /* \"#utility.yul\":5337:5391   */\n      tag_372\n        /* \"#utility.yul\":5384:5390   */\n      dup5\n        /* \"#utility.yul\":5379:5382   */\n      dup3\n        /* \"#utility.yul\":5374:5377   */\n      dup6\n        /* \"#utility.yul\":5337:5391   */\n      tag_269\n      jump\t// in\n    tag_372:\n        /* \"#utility.yul\":5056:5397   */\n      pop\n        /* \"#utility.yul\":4972:5397   */\n      swap4\n      swap3\n      pop\n      pop\n      pop\n      jump\t// out\n        /* \"#utility.yul\":5417:5757   */\n    tag_271:\n        /* \"#utility.yul\":5473:5478   */\n      0x00\n        /* \"#utility.yul\":5522:5525   */\n      dup3\n        /* \"#utility.yul\":5515:5519   */\n      0x1f\n        /* \"#utility.yul\":5507:5513   */\n      dup4\n        /* \"#utility.yul\":5503:5520   */\n      add\n        /* \"#utility.yul\":5499:5526   */\n      slt\n        /* \"#utility.yul\":5489:5611   */\n      tag_374\n      jumpi\n        /* \"#utility.yul\":5530:5609   */\n      tag_375\n      tag_263\n      jump\t// in\n    tag_375:\n        /* \"#utility.yul\":5489:5611   */\n    tag_374:\n        /* \"#utility.yul\":5647:5653   */\n      dup2\n        /* \"#utility.yul\":5634:5654   */\n      calldataload\n        /* \"#utility.yul\":5672:5751   */\n      tag_376\n        /* \"#utility.yul\":5747:5750   */\n      dup5\n        /* \"#utility.yul\":5739:5745   */\n      dup3\n        /* \"#utility.yul\":5732:5736   */\n      0x20\n        /* \"#utility.yul\":5724:5730   */\n      dup7\n        /* \"#utility.yul\":5720:5737   */\n      add\n        /* \"#utility.yul\":5672:5751   */\n      tag_270\n      jump\t// in\n    tag_376:\n        /* \"#utility.yul\":5663:5751   */\n      swap2\n      pop\n        /* \"#utility.yul\":5479:5757   */\n      pop\n        /* \"#utility.yul\":5417:5757   */\n      swap3\n      swap2\n      pop\n      pop\n      jump\t// out\n        /* \"#utility.yul\":5763:6562   */\n    tag_22:\n        /* \"#utility.yul\":5850:5856   */\n      0x00\n        /* \"#utility.yul\":5858:5864   */\n      dup1\n        /* \"#utility.yul\":5866:5872   */\n      0x00\n        /* \"#utility.yul\":5915:5917   */\n      0x60\n        /* \"#utility.yul\":5903:5912   */\n      dup5\n        /* \"#utility.yul\":5894:5901   */\n      dup7\n        /* \"#utility.yul\":5890:5913   */\n      sub\n        /* \"#utility.yul\":5886:5918   */\n      slt\n        /* \"#utility.yul\":5883:6002   */\n      iszero\n      tag_378\n      jumpi\n        /* \"#utility.yul\":5921:6000   */\n      tag_379\n      tag_245\n      jump\t// in\n    tag_379:\n        /* \"#utility.yul\":5883:6002   */\n    tag_378:\n        /* \"#utility.yul\":6041:6042   */\n      0x00\n        /* \"#utility.yul\":6066:6119   */\n      tag_380\n        /* \"#utility.yul\":6111:6118   */\n      dup7\n        /* \"#utility.yul\":6102:6108   */\n      dup3\n        /* \"#utility.yul\":6091:6100   */\n      dup8\n        /* \"#utility.yul\":6087:6109   */\n      add\n        /* \"#utility.yul\":6066:6119   */\n      tag_262\n      jump\t// in\n    tag_380:\n        /* \"#utility.yul\":6056:6119   */\n      swap4\n      pop\n        /* \"#utility.yul\":6012:6129   */\n      pop\n        /* \"#utility.yul\":6196:6198   */\n      0x20\n        /* \"#utility.yul\":6185:6194   */\n      dup5\n        /* \"#utility.yul\":6181:6199   */\n      add\n        /* \"#utility.yul\":6168:6200   */\n      calldataload\n        /* \"#utility.yul\":6227:6245   */\n      0xffffffffffffffff\n        /* \"#utility.yul\":6219:6225   */\n      dup2\n        /* \"#utility.yul\":6216:6246   */\n      gt\n        /* \"#utility.yul\":6213:6330   */\n      iszero\n      tag_381\n      jumpi\n        /* \"#utility.yul\":6249:6328   */\n      tag_382\n      tag_246\n      jump\t// in\n    tag_382:\n        /* \"#utility.yul\":6213:6330   */\n    tag_381:\n        /* \"#utility.yul\":6354:6417   */\n      tag_383\n        /* \"#utility.yul\":6409:6416   */\n      dup7\n        /* \"#utility.yul\":6400:6406   */\n      dup3\n        /* \"#utility.yul\":6389:6398   */\n      dup8\n        /* \"#utility.yul\":6385:6407   */\n      add\n        /* \"#utility.yul\":6354:6417   */\n      tag_271\n      jump\t// in\n    tag_383:\n        /* \"#utility.yul\":6344:6417   */\n      swap3\n      pop\n        /* \"#utility.yul\":6139:6427   */\n      pop\n        /* \"#utility.yul\":6466:6468   */\n      0x40\n        /* \"#utility.yul\":6492:6545   */\n      tag_384\n        /* \"#utility.yul\":6537:6544   */\n      dup7\n        /* \"#utility.yul\":6528:6534   */\n      dup3\n        /* \"#utility.yul\":6517:6526   */\n      dup8\n        /* \"#utility.yul\":6513:6535   */\n      add\n        /* \"#utility.yul\":6492:6545   */\n      tag_249\n      jump\t// in\n    tag_384:\n        /* \"#utility.yul\":6482:6545   */\n      swap2\n      pop\n        /* \"#utility.yul\":6437:6555   */\n      pop\n        /* \"#utility.yul\":5763:6562   */\n      swap3\n      pop\n      swap3\n      pop\n      swap3\n      jump\t// out\n        /* \"#utility.yul\":6568:6897   */\n    tag_26:\n        /* \"#utility.yul\":6627:6633   */\n      0x00\n        /* \"#utility.yul\":6676:6678   */\n      0x20\n        /* \"#utility.yul\":6664:6673   */\n      dup3\n        /* \"#utility.yul\":6655:6662   */\n      dup5\n        /* \"#utility.yul\":6651:6674   */\n      sub\n        /* \"#utility.yul\":6647:6679   */\n      slt\n        /* \"#utility.yul\":6644:6763   */\n      iszero\n      tag_386\n      jumpi\n        /* \"#utility.yul\":6682:6761   */\n      tag_387\n      tag_245\n      jump\t// in\n    tag_387:\n        /* \"#utility.yul\":6644:6763   */\n    tag_386:\n        /* \"#utility.yul\":6802:6803   */\n      0x00\n        /* \"#utility.yul\":6827:6880   */\n      tag_388\n        /* \"#utility.yul\":6872:6879   */\n      dup5\n        /* \"#utility.yul\":6863:6869   */\n      dup3\n        /* \"#utility.yul\":6852:6861   */\n      dup6\n        /* \"#utility.yul\":6848:6870   */\n      add\n        /* \"#utility.yul\":6827:6880   */\n      tag_262\n      jump\t// in\n    tag_388:\n        /* \"#utility.yul\":6817:6880   */\n      swap2\n      pop\n        /* \"#utility.yul\":6773:6890   */\n      pop\n        /* \"#utility.yul\":6568:6897   */\n      swap3\n      swap2\n      pop\n      pop\n      jump\t// out\n        /* \"#utility.yul\":6903:7424   */\n    tag_47:\n        /* \"#utility.yul\":7066:7070   */\n      0x00\n        /* \"#utility.yul\":7104:7106   */\n      0x60\n        /* \"#utility.yul\":7093:7102   */\n      dup3\n        /* \"#utility.yul\":7089:7107   */\n      add\n        /* \"#utility.yul\":7081:7107   */\n      swap1\n      pop\n        /* \"#utility.yul\":7153:7162   */\n      dup2\n        /* \"#utility.yul\":7147:7151   */\n      dup2\n        /* \"#utility.yul\":7143:7163   */\n      sub\n        /* \"#utility.yul\":7139:7140   */\n      0x00\n        /* \"#utility.yul\":7128:7137   */\n      dup4\n        /* \"#utility.yul\":7124:7141   */\n      add\n        /* \"#utility.yul\":7117:7164   */\n      mstore\n        /* \"#utility.yul\":7181:7259   */\n      tag_390\n        /* \"#utility.yul\":7254:7258   */\n      dup2\n        /* \"#utility.yul\":7245:7251   */\n      dup7\n        /* \"#utility.yul\":7181:7259   */\n      tag_257\n      jump\t// in\n    tag_390:\n        /* \"#utility.yul\":7173:7259   */\n      swap1\n      pop\n        /* \"#utility.yul\":7269:7341   */\n      tag_391\n        /* \"#utility.yul\":7337:7339   */\n      0x20\n        /* \"#utility.yul\":7326:7335   */\n      dup4\n        /* \"#utility.yul\":7322:7340   */\n      add\n        /* \"#utility.yul\":7313:7319   */\n      dup6\n        /* \"#utility.yul\":7269:7341   */\n      tag_258\n      jump\t// in\n    tag_391:\n        /* \"#utility.yul\":7351:7417   */\n      tag_392\n        /* \"#utility.yul\":7413:7415   */\n      0x40\n        /* \"#utility.yul\":7402:7411   */\n      dup4\n        /* \"#utility.yul\":7398:7416   */\n      add\n        /* \"#utility.yul\":7389:7395   */\n      dup5\n        /* \"#utility.yul\":7351:7417   */\n      tag_260\n      jump\t// in\n    tag_392:\n        /* \"#utility.yul\":6903:7424   */\n      swap5\n      swap4\n      pop\n      pop\n      pop\n      pop\n      jump\t// out\n        /* \"#utility.yul\":7430:7610   */\n    tag_272:\n        /* \"#utility.yul\":7478:7555   */\n      0x4e487b7100000000000000000000000000000000000000000000000000000000\n        /* \"#utility.yul\":7475:7476   */\n      0x00\n        /* \"#utility.yul\":7468:7556   */\n      mstore\n        /* \"#utility.yul\":7575:7579   */\n      0x22\n        /* \"#utility.yul\":7572:7573   */\n      0x04\n        /* \"#utility.yul\":7565:7580   */\n      mstore\n        /* \"#utility.yul\":7599:7603   */\n      0x24\n        /* \"#utility.yul\":7596:7597   */\n      0x00\n        /* \"#utility.yul\":7589:7604   */\n      revert\n        /* \"#utility.yul\":7616:7936   */\n    tag_53:\n        /* \"#utility.yul\":7660:7666   */\n      0x00\n        /* \"#utility.yul\":7697:7698   */\n      0x02\n        /* \"#utility.yul\":7691:7695   */\n      dup3\n        /* \"#utility.yul\":7687:7699   */\n      div\n        /* \"#utility.yul\":7677:7699   */\n      swap1\n      pop\n        /* \"#utility.yul\":7744:7745   */\n      0x01\n        /* \"#utility.yul\":7738:7742   */\n      dup3\n        /* \"#utility.yul\":7734:7746   */\n      and\n        /* \"#utility.yul\":7765:7783   */\n      dup1\n        /* \"#utility.yul\":7755:7836   */\n      tag_395\n      jumpi\n        /* \"#utility.yul\":7821:7825   */\n      0x7f\n        /* \"#utility.yul\":7813:7819   */\n      dup3\n        /* \"#utility.yul\":7809:7826   */\n      and\n        /* \"#utility.yul\":7799:7826   */\n      swap2\n      pop\n        /* \"#utility.yul\":7755:7836   */\n    tag_395:\n        /* \"#utility.yul\":7883:7885   */\n      0x20\n        /* \"#utility.yul\":7875:7881   */\n      dup3\n        /* \"#utility.yul\":7872:7886   */\n      lt\n        /* \"#utility.yul\":7852:7870   */\n      dup2\n        /* \"#utility.yul\":7849:7887   */\n      sub\n        /* \"#utility.yul\":7846:7930   */\n      tag_396\n      jumpi\n        /* \"#utility.yul\":7902:7920   */\n      tag_397\n      tag_272\n      jump\t// in\n    tag_397:\n        /* \"#utility.yul\":7846:7930   */\n    tag_396:\n        /* \"#utility.yul\":7667:7936   */\n      pop\n        /* \"#utility.yul\":7616:7936   */\n      swap2\n      swap1\n      pop\n      jump\t// out\n        /* \"#utility.yul\":7942:8165   */\n    tag_273:\n        /* \"#utility.yul\":8082:8116   */\n      0x4f6e6c792074686520426f73732063616e2063616c6c20746869732066756e63\n        /* \"#utility.yul\":8078:8079   */\n      0x00\n        /* \"#utility.yul\":8070:8076   */\n      dup3\n        /* \"#utility.yul\":8066:8080   */\n      add\n        /* \"#utility.yul\":8059:8117   */\n      mstore\n        /* \"#utility.yul\":8151:8157   */\n      0x74696f6e00000000000000000000000000000000000000000000000000000000\n        /* \"#utility.yul\":8146:8148   */\n      0x20\n        /* \"#utility.yul\":8138:8144   */\n      dup3\n        /* \"#utility.yul\":8134:8149   */\n      add\n        /* \"#utility.yul\":8127:8158   */\n      mstore\n        /* \"#utility.yul\":7942:8165   */\n      pop\n      jump\t// out\n        /* \"#utility.yul\":8171:8537   */\n    tag_274:\n        /* \"#utility.yul\":8313:8316   */\n      0x00\n        /* \"#utility.yul\":8334:8401   */\n      tag_400\n        /* \"#utility.yul\":8398:8400   */\n      0x24\n        /* \"#utility.yul\":8393:8396   */\n      dup4\n        /* \"#utility.yul\":8334:8401   */\n      tag_254\n      jump\t// in\n    tag_400:\n        /* \"#utility.yul\":8327:8401   */\n      swap2\n      pop\n        /* \"#utility.yul\":8410:8503   */\n      tag_401\n        /* \"#utility.yul\":8499:8502   */\n      dup3\n        /* \"#utility.yul\":8410:8503   */\n      tag_273\n      jump\t// in\n    tag_401:\n        /* \"#utility.yul\":8528:8530   */\n      0x40\n        /* \"#utility.yul\":8523:8526   */\n      dup3\n        /* \"#utility.yul\":8519:8531   */\n      add\n        /* \"#utility.yul\":8512:8531   */\n      swap1\n      pop\n        /* \"#utility.yul\":8171:8537   */\n      swap2\n      swap1\n      pop\n      jump\t// out\n        /* \"#utility.yul\":8543:8962   */\n    tag_61:\n        /* \"#utility.yul\":8709:8713   */\n      0x00\n        /* \"#utility.yul\":8747:8749   */\n      0x20\n        /* \"#utility.yul\":8736:8745   */\n      dup3\n        /* \"#utility.yul\":8732:8750   */\n      add\n        /* \"#utility.yul\":8724:8750   */\n      swap1\n      pop\n        /* \"#utility.yul\":8796:8805   */\n      dup2\n        /* \"#utility.yul\":8790:8794   */\n      dup2\n        /* \"#utility.yul\":8786:8806   */\n      sub\n        /* \"#utility.yul\":8782:8783   */\n      0x00\n        /* \"#utility.yul\":8771:8780   */\n      dup4\n        /* \"#utility.yul\":8767:8784   */\n      add\n        /* \"#utility.yul\":8760:8807   */\n      mstore\n        /* \"#utility.yul\":8824:8955   */\n      tag_403\n        /* \"#utility.yul\":8950:8954   */\n      dup2\n        /* \"#utility.yul\":8824:8955   */\n      tag_274\n      jump\t// in\n    tag_403:\n        /* \"#utility.yul\":8816:8955   */\n      swap1\n      pop\n        /* \"#utility.yul\":8543:8962   */\n      swap2\n      swap1\n      pop\n      jump\t// out\n        /* \"#utility.yul\":8968:9148   */\n    tag_68:\n        /* \"#utility.yul\":9016:9093   */\n      0x4e487b7100000000000000000000000000000000000000000000000000000000\n        /* \"#utility.yul\":9013:9014   */\n      0x00\n        /* \"#utility.yul\":9006:9094   */\n      mstore\n        /* \"#utility.yul\":9113:9117   */\n      0x32\n        /* \"#utility.yul\":9110:9111   */\n      0x04\n        /* \"#utility.yul\":9103:9118   */\n      mstore\n        /* \"#utility.yul\":9137:9141   */\n      0x24\n        /* \"#utility.yul\":9134:9135   */\n      0x00\n        /* \"#utility.yul\":9127:9142   */\n      revert\n        /* \"#utility.yul\":9154:9375   */\n    tag_275:\n        /* \"#utility.yul\":9294:9328   */\n      0x576f726b65722077697468207468697320494420616c72656164792065786973\n        /* \"#utility.yul\":9290:9291   */\n      0x00\n        /* \"#utility.yul\":9282:9288   */\n      dup3\n        /* \"#utility.yul\":9278:9292   */\n      add\n        /* \"#utility.yul\":9271:9329   */\n      mstore\n        /* \"#utility.yul\":9363:9367   */\n      0x7473000000000000000000000000000000000000000000000000000000000000\n        /* \"#utility.yul\":9358:9360   */\n      0x20\n        /* \"#utility.yul\":9350:9356   */\n      dup3\n        /* \"#utility.yul\":9346:9361   */\n      add\n        /* \"#utility.yul\":9339:9368   */\n      mstore\n        /* \"#utility.yul\":9154:9375   */\n      pop\n      jump\t// out\n        /* \"#utility.yul\":9381:9747   */\n    tag_276:\n        /* \"#utility.yul\":9523:9526   */\n      0x00\n        /* \"#utility.yul\":9544:9611   */\n      tag_407\n        /* \"#utility.yul\":9608:9610   */\n      0x22\n        /* \"#utility.yul\":9603:9606   */\n      dup4\n        /* \"#utility.yul\":9544:9611   */\n      tag_254\n      jump\t// in\n    tag_407:\n        /* \"#utility.yul\":9537:9611   */\n      swap2\n      pop\n        /* \"#utility.yul\":9620:9713   */\n      tag_408\n        /* \"#utility.yul\":9709:9712   */\n      dup3\n        /* \"#utility.yul\":9620:9713   */\n      tag_275\n      jump\t// in\n    tag_408:\n        /* \"#utility.yul\":9738:9740   */\n      0x40\n        /* \"#utility.yul\":9733:9736   */\n      dup3\n        /* \"#utility.yul\":9729:9741   */\n      add\n        /* \"#utility.yul\":9722:9741   */\n      swap1\n      pop\n        /* \"#utility.yul\":9381:9747   */\n      swap2\n      swap1\n      pop\n      jump\t// out\n        /* \"#utility.yul\":9753:10172   */\n    tag_72:\n        /* \"#utility.yul\":9919:9923   */\n      0x00\n        /* \"#utility.yul\":9957:9959   */\n      0x20\n        /* \"#utility.yul\":9946:9955   */\n      dup3\n        /* \"#utility.yul\":9942:9960   */\n      add\n        /* \"#utility.yul\":9934:9960   */\n      swap1\n      pop\n        /* \"#utility.yul\":10006:10015   */\n      dup2\n        /* \"#utility.yul\":10000:10004   */\n      dup2\n        /* \"#utility.yul\":9996:10016   */\n      sub\n        /* \"#utility.yul\":9992:9993   */\n      0x00\n        /* \"#utility.yul\":9981:9990   */\n      dup4\n        /* \"#utility.yul\":9977:9994   */\n      add\n        /* \"#utility.yul\":9970:10017   */\n      mstore\n        /* \"#utility.yul\":10034:10165   */\n      tag_410\n        /* \"#utility.yul\":10160:10164   */\n      dup2\n        /* \"#utility.yul\":10034:10165   */\n      tag_276\n      jump\t// in\n    tag_410:\n        /* \"#utility.yul\":10026:10165   */\n      swap1\n      pop\n        /* \"#utility.yul\":9753:10172   */\n      swap2\n      swap1\n      pop\n      jump\t// out\n        /* \"#utility.yul\":10178:10404   */\n    tag_277:\n        /* \"#utility.yul\":10318:10352   */\n      0x576f726b657220776974682074686973206164647265737320616c7265616479\n        /* \"#utility.yul\":10314:10315   */\n      0x00\n        /* \"#utility.yul\":10306:10312   */\n      dup3\n        /* \"#utility.yul\":10302:10316   */\n      add\n        /* \"#utility.yul\":10295:10353   */\n      mstore\n        /* \"#utility.yul\":10387:10396   */\n      0x2065786973747300000000000000000000000000000000000000000000000000\n        /* \"#utility.yul\":10382:10384   */\n      0x20\n        /* \"#utility.yul\":10374:10380   */\n      dup3\n        /* \"#utility.yul\":10370:10385   */\n      add\n        /* \"#utility.yul\":10363:10397   */\n      mstore\n        /* \"#utility.yul\":10178:10404   */\n      pop\n      jump\t// out\n        /* \"#utility.yul\":10410:10776   */\n    tag_278:\n        /* \"#utility.yul\":10552:10555   */\n      0x00\n        /* \"#utility.yul\":10573:10640   */\n      tag_413\n        /* \"#utility.yul\":10637:10639   */\n      0x27\n        /* \"#utility.yul\":10632:10635   */\n      dup4\n        /* \"#utility.yul\":10573:10640   */\n      tag_254\n      jump\t// in\n    tag_413:\n        /* \"#utility.yul\":10566:10640   */\n      swap2\n      pop\n        /* \"#utility.yul\":10649:10742   */\n      tag_414\n        /* \"#utility.yul\":10738:10741   */\n      dup3\n        /* \"#utility.yul\":10649:10742   */\n      tag_277\n      jump\t// in\n    tag_414:\n        /* \"#utility.yul\":10767:10769   */\n      0x40\n        /* \"#utility.yul\":10762:10765   */\n      dup3\n        /* \"#utility.yul\":10758:10770   */\n      add\n        /* \"#utility.yul\":10751:10770   */\n      swap1\n      pop\n        /* \"#utility.yul\":10410:10776   */\n      swap2\n      swap1\n      pop\n      jump\t// out\n        /* \"#utility.yul\":10782:11201   */\n    tag_78:\n        /* \"#utility.yul\":10948:10952   */\n      0x00\n        /* \"#utility.yul\":10986:10988   */\n      0x20\n        /* \"#utility.yul\":10975:10984   */\n      dup3\n        /* \"#utility.yul\":10971:10989   */\n      add\n        /* \"#utility.yul\":10963:10989   */\n      swap1\n      pop\n        /* \"#utility.yul\":11035:11044   */\n      dup2\n        /* \"#utility.yul\":11029:11033   */\n      dup2\n        /* \"#utility.yul\":11025:11045   */\n      sub\n        /* \"#utility.yul\":11021:11022   */\n      0x00\n        /* \"#utility.yul\":11010:11019   */\n      dup4\n        /* \"#utility.yul\":11006:11023   */\n      add\n        /* \"#utility.yul\":10999:11046   */\n      mstore\n        /* \"#utility.yul\":11063:11194   */\n      tag_416\n        /* \"#utility.yul\":11189:11193   */\n      dup2\n        /* \"#utility.yul\":11063:11194   */\n      tag_278\n      jump\t// in\n    tag_416:\n        /* \"#utility.yul\":11055:11194   */\n      swap1\n      pop\n        /* \"#utility.yul\":10782:11201   */\n      swap2\n      swap1\n      pop\n      jump\t// out\n        /* \"#utility.yul\":11207:11348   */\n    tag_279:\n        /* \"#utility.yul\":11256:11260   */\n      0x00\n        /* \"#utility.yul\":11279:11282   */\n      dup2\n        /* \"#utility.yul\":11271:11282   */\n      swap1\n      pop\n        /* \"#utility.yul\":11302:11305   */\n      dup2\n        /* \"#utility.yul\":11299:11300   */\n      0x00\n        /* \"#utility.yul\":11292:11306   */\n      mstore\n        /* \"#utility.yul\":11336:11340   */\n      0x20\n        /* \"#utility.yul\":11333:11334   */\n      0x00\n        /* \"#utility.yul\":11323:11341   */\n      keccak256\n        /* \"#utility.yul\":11315:11341   */\n      swap1\n      pop\n        /* \"#utility.yul\":11207:11348   */\n      swap2\n      swap1\n      pop\n      jump\t// out\n        /* \"#utility.yul\":11354:11447   */\n    tag_280:\n        /* \"#utility.yul\":11391:11397   */\n      0x00\n        /* \"#utility.yul\":11438:11440   */\n      0x20\n        /* \"#utility.yul\":11433:11435   */\n      0x1f\n        /* \"#utility.yul\":11426:11431   */\n      dup4\n        /* \"#utility.yul\":11422:11436   */\n      add\n        /* \"#utility.yul\":11418:11441   */\n      div\n        /* \"#utility.yul\":11408:11441   */\n      swap1\n      pop\n        /* \"#utility.yul\":11354:11447   */\n      swap2\n      swap1\n      pop\n      jump\t// out\n        /* \"#utility.yul\":11453:11560   */\n    tag_281:\n        /* \"#utility.yul\":11497:11505   */\n      0x00\n        /* \"#utility.yul\":11547:11552   */\n      dup3\n        /* \"#utility.yul\":11541:11545   */\n      dup3\n        /* \"#utility.yul\":11537:11553   */\n      shl\n        /* \"#utility.yul\":11516:11553   */\n      swap1\n      pop\n        /* \"#utility.yul\":11453:11560   */\n      swap3\n      swap2\n      pop\n      pop\n      jump\t// out\n        /* \"#utility.yul\":11566:11959   */\n    tag_282:\n        /* \"#utility.yul\":11635:11641   */\n      0x00\n        /* \"#utility.yul\":11685:11686   */\n      0x08\n        /* \"#utility.yul\":11673:11683   */\n      dup4\n        /* \"#utility.yul\":11669:11687   */\n      mul\n        /* \"#utility.yul\":11708:11805   */\n      tag_421\n        /* \"#utility.yul\":11738:11804   */\n      0xffffffffffffffffffffffffffffffffffffffffffffffffffffffffffffffff\n        /* \"#utility.yul\":11727:11736   */\n      dup3\n        /* \"#utility.yul\":11708:11805   */\n      tag_281\n      jump\t// in\n    tag_421:\n        /* \"#utility.yul\":11826:11865   */\n      tag_422\n        /* \"#utility.yul\":11856:11864   */\n      dup7\n        /* \"#utility.yul\":11845:11854   */\n      dup4\n        /* \"#utility.yul\":11826:11865   */\n      tag_281\n      jump\t// in\n    tag_422:\n        /* \"#utility.yul\":11814:11865   */\n      swap6\n      pop\n        /* \"#utility.yul\":11898:11902   */\n      dup1\n        /* \"#utility.yul\":11894:11903   */\n      not\n        /* \"#utility.yul\":11887:11892   */\n      dup5\n        /* \"#utility.yul\":11883:11904   */\n      and\n        /* \"#utility.yul\":11874:11904   */\n      swap4\n      pop\n        /* \"#utility.yul\":11947:11951   */\n      dup1\n        /* \"#utility.yul\":11937:11945   */\n      dup7\n        /* \"#utility.yul\":11933:11952   */\n      and\n        /* \"#utility.yul\":11926:11931   */\n      dup5\n        /* \"#utility.yul\":11923:11953   */\n      or\n        /* \"#utility.yul\":11913:11953   */\n      swap3\n      pop\n        /* \"#utility.yul\":11642:11959   */\n      pop\n      pop\n        /* \"#utility.yul\":11566:11959   */\n      swap4\n      swap3\n      pop\n      pop\n      pop\n      jump\t// out\n        /* \"#utility.yul\":11965:12025   */\n    tag_283:\n        /* \"#utility.yul\":11993:11996   */\n      0x00\n        /* \"#utility.yul\":12014:12019   */\n      dup2\n        /* \"#utility.yul\":12007:12019   */\n      swap1\n      pop\n        /* \"#utility.yul\":11965:12025   */\n      swap2\n      swap1\n      pop\n      jump\t// out\n        /* \"#utility.yul\":12031:12173   */\n    tag_284:\n        /* \"#utility.yul\":12081:12090   */\n      0x00\n        /* \"#utility.yul\":12114:12167   */\n      tag_425\n        /* \"#utility.yul\":12132:12166   */\n      tag_426\n        /* \"#utility.yul\":12141:12165   */\n      tag_427\n        /* \"#utility.yul\":12159:12164   */\n      dup5\n        /* \"#utility.yul\":12141:12165   */\n      tag_247\n      jump\t// in\n    tag_427:\n        /* \"#utility.yul\":12132:12166   */\n      tag_283\n      jump\t// in\n    tag_426:\n        /* \"#utility.yul\":12114:12167   */\n      tag_247\n      jump\t// in\n    tag_425:\n        /* \"#utility.yul\":12101:12167   */\n      swap1\n      pop\n        /* \"#utility.yul\":12031:12173   */\n      swap2\n      swap1\n      pop\n      jump\t// out\n        /* \"#utility.yul\":12179:12254   */\n    tag_285:\n        /* \"#utility.yul\":12222:12225   */\n      0x00\n        /* \"#utility.yul\":12243:12248   */\n      dup2\n        /* \"#utility.yul\":12236:12248   */\n      swap1\n      pop\n        /* \"#utility.yul\":12179:12254   */\n      swap2\n      swap1\n      pop\n      jump\t// out\n        /* \"#utility.yul\":12260:12529   */\n    tag_286:\n        /* \"#utility.yul\":12370:12409   */\n      tag_430\n        /* \"#utility.yul\":12401:12408   */\n      dup4\n        /* \"#utility.yul\":12370:12409   */\n      tag_284\n      jump\t// in\n    tag_430:\n        /* \"#utility.yul\":12431:12522   */\n      tag_431\n        /* \"#utility.yul\":12480:12521   */\n      tag_432\n        /* \"#utility.yul\":12504:12520   */\n      dup3\n        /* \"#utility.yul\":12480:12521   */\n      tag_285\n      jump\t// in\n    tag_432:\n        /* \"#utility.yul\":12472:12478   */\n      dup5\n        /* \"#utility.yul\":12465:12469   */\n      dup5\n        /* \"#utility.yul\":12459:12470   */\n      sload\n        /* \"#utility.yul\":12431:12522   */\n      tag_282\n      jump\t// in\n    tag_431:\n        /* \"#utility.yul\":12425:12429   */\n      dup3\n        /* \"#utility.yul\":12418:12523   */\n      sstore\n        /* \"#utility.yul\":12336:12529   */\n      pop\n        /* \"#utility.yul\":12260:12529   */\n      pop\n      pop\n      pop\n      jump\t// out\n        /* \"#utility.yul\":12535:12608   */\n    tag_287:\n        /* \"#utility.yul\":12580:12583   */\n      0x00\n        /* \"#utility.yul\":12535:12608   */\n      swap1\n      jump\t// out\n        /* \"#utility.yul\":12614:12803   */\n    tag_288:\n        /* \"#utility.yul\":12691:12723   */\n      tag_435\n      tag_287\n      jump\t// in\n    tag_435:\n        /* \"#utility.yul\":12732:12797   */\n      tag_436\n        /* \"#utility.yul\":12790:12796   */\n      dup2\n        /* \"#utility.yul\":12782:12788   */\n      dup5\n        /* \"#utility.yul\":12776:12780   */\n      dup5\n        /* \"#utility.yul\":12732:12797   */\n      tag_286\n      jump\t// in\n    tag_436:\n        /* \"#utility.yul\":12667:12803   */\n      pop\n        /* \"#utility.yul\":12614:12803   */\n      pop\n      pop\n      jump\t// out\n        /* \"#utility.yul\":12809:12995   */\n    tag_289:\n        /* \"#utility.yul\":12869:12989   */\n    tag_438:\n        /* \"#utility.yul\":12886:12889   */\n      dup2\n        /* \"#utility.yul\":12879:12884   */\n      dup2\n        /* \"#utility.yul\":12876:12890   */\n      lt\n        /* \"#utility.yul\":12869:12989   */\n      iszero\n      tag_440\n      jumpi\n        /* \"#utility.yul\":12940:12979   */\n      tag_441\n        /* \"#utility.yul\":12977:12978   */\n      0x00\n        /* \"#utility.yul\":12970:12975   */\n      dup3\n        /* \"#utility.yul\":12940:12979   */\n      tag_288\n      jump\t// in\n    tag_441:\n        /* \"#utility.yul\":12913:12914   */\n      0x01\n        /* \"#utility.yul\":12906:12911   */\n      dup2\n        /* \"#utility.yul\":12902:12915   */\n      add\n        /* \"#utility.yul\":12893:12915   */\n      swap1\n      pop\n        /* \"#utility.yul\":12869:12989   */\n      jump(tag_438)\n    tag_440:\n        /* \"#utility.yul\":12809:12995   */\n      pop\n      pop\n      jump\t// out\n        /* \"#utility.yul\":13001:13544   */\n    tag_290:\n        /* \"#utility.yul\":13102:13104   */\n      0x1f\n        /* \"#utility.yul\":13097:13100   */\n      dup3\n        /* \"#utility.yul\":13094:13105   */\n      gt\n        /* \"#utility.yul\":13091:13537   */\n      iszero\n      tag_443\n      jumpi\n        /* \"#utility.yul\":13136:13174   */\n      tag_444\n        /* \"#utility.yul\":13168:13173   */\n      dup2\n        /* \"#utility.yul\":13136:13174   */\n      tag_279\n      jump\t// in\n    tag_444:\n        /* \"#utility.yul\":13220:13249   */\n      tag_445\n        /* \"#utility.yul\":13238:13248   */\n      dup5\n        /* \"#utility.yul\":13220:13249   */\n      tag_280\n      jump\t// in\n    tag_445:\n        /* \"#utility.yul\":13210:13218   */\n      dup2\n        /* \"#utility.yul\":13206:13250   */\n      add\n        /* \"#utility.yul\":13403:13405   */\n      0x20\n        /* \"#utility.yul\":13391:13401   */\n      dup6\n        /* \"#utility.yul\":13388:13406   */\n      lt\n        /* \"#utility.yul\":13385:13434   */\n      iszero\n      tag_446\n      jumpi\n        /* \"#utility.yul\":13424:13432   */\n      dup2\n        /* \"#utility.yul\":13409:13432   */\n      swap1\n      pop\n        /* \"#utility.yul\":13385:13434   */\n    tag_446:\n        /* \"#utility.yul\":13447:13527   */\n      tag_447\n        /* \"#utility.yul\":13503:13525   */\n      tag_448\n        /* \"#utility.yul\":13521:13524   */\n      dup6\n        /* \"#utility.yul\":13503:13525   */\n      tag_280\n      jump\t// in\n    tag_448:\n        /* \"#utility.yul\":13493:13501   */\n      dup4\n        /* \"#utility.yul\":13489:13526   */\n      add\n        /* \"#utility.yul\":13476:13487   */\n      dup3\n        /* \"#utility.yul\":13447:13527   */\n      tag_289\n      jump\t// in\n    tag_447:\n        /* \"#utility.yul\":13106:13537   */\n      pop\n      pop\n        /* \"#utility.yul\":13091:13537   */\n    tag_443:\n        /* \"#utility.yul\":13001:13544   */\n      pop\n      pop\n      pop\n      jump\t// out\n        /* \"#utility.yul\":13550:13667   */\n    tag_291:\n        /* \"#utility.yul\":13604:13612   */\n      0x00\n        /* \"#utility.yul\":13654:13659   */\n      dup3\n        /* \"#utility.yul\":13648:13652   */\n      dup3\n        /* \"#utility.yul\":13644:13660   */\n      shr\n        /* \"#utility.yul\":13623:13660   */\n      swap1\n      pop\n        /* \"#utility.yul\":13550:13667   */\n      swap3\n      swap2\n      pop\n      pop\n      jump\t// out\n        /* \"#utility.yul\":13673:13842   */\n    tag_292:\n        /* \"#utility.yul\":13717:13723   */\n      0x00\n        /* \"#utility.yul\":13750:13801   */\n      tag_451\n        /* \"#utility.yul\":13798:13799   */\n      0x00\n        /* \"#utility.yul\":13794:13800   */\n      not\n        /* \"#utility.yul\":13786:13791   */\n      dup5\n        /* \"#utility.yul\":13783:13784   */\n      0x08\n        /* \"#utility.yul\":13779:13792   */\n      mul\n        /* \"#utility.yul\":13750:13801   */\n      tag_291\n      jump\t// in\n    tag_451:\n        /* \"#utility.yul\":13746:13802   */\n      not\n        /* \"#utility.yul\":13831:13835   */\n      dup1\n        /* \"#utility.yul\":13825:13829   */\n      dup4\n        /* \"#utility.yul\":13821:13836   */\n      and\n        /* \"#utility.yul\":13811:13836   */\n      swap2\n      pop\n        /* \"#utility.yul\":13724:13842   */\n      pop\n        /* \"#utility.yul\":13673:13842   */\n      swap3\n      swap2\n      pop\n      pop\n      jump\t// out\n        /* \"#utility.yul\":13847:14142   */\n    tag_293:\n        /* \"#utility.yul\":13923:13927   */\n      0x00\n        /* \"#utility.yul\":14069:14098   */\n      tag_453\n        /* \"#utility.yul\":14094:14097   */\n      dup4\n        /* \"#utility.yul\":14088:14092   */\n      dup4\n        /* \"#utility.yul\":14069:14098   */\n      tag_292\n      jump\t// in\n    tag_453:\n        /* \"#utility.yul\":14061:14098   */\n      swap2\n      pop\n        /* \"#utility.yul\":14131:14134   */\n      dup3\n        /* \"#utility.yul\":14128:14129   */\n      0x02\n        /* \"#utility.yul\":14124:14135   */\n      mul\n        /* \"#utility.yul\":14118:14122   */\n      dup3\n        /* \"#utility.yul\":14115:14136   */\n      or\n        /* \"#utility.yul\":14107:14136   */\n      swap1\n      pop\n        /* \"#utility.yul\":13847:14142   */\n      swap3\n      swap2\n      pop\n      pop\n      jump\t// out\n        /* \"#utility.yul\":14147:15542   */\n    tag_80:\n        /* \"#utility.yul\":14264:14301   */\n      tag_455\n        /* \"#utility.yul\":14297:14300   */\n      dup3\n        /* \"#utility.yul\":14264:14301   */\n      tag_253\n      jump\t// in\n    tag_455:\n        /* \"#utility.yul\":14366:14384   */\n      0xffffffffffffffff\n        /* \"#utility.yul\":14358:14364   */\n      dup2\n        /* \"#utility.yul\":14355:14385   */\n      gt\n        /* \"#utility.yul\":14352:14408   */\n      iszero\n      tag_456\n      jumpi\n        /* \"#utility.yul\":14388:14406   */\n      tag_457\n      tag_265\n      jump\t// in\n    tag_457:\n        /* \"#utility.yul\":14352:14408   */\n    tag_456:\n        /* \"#utility.yul\":14432:14470   */\n      tag_458\n        /* \"#utility.yul\":14464:14468   */\n      dup3\n        /* \"#utility.yul\":14458:14469   */\n      sload\n        /* \"#utility.yul\":14432:14470   */\n      tag_53\n      jump\t// in\n    tag_458:\n        /* \"#utility.yul\":14517:14584   */\n      tag_459\n        /* \"#utility.yul\":14577:14583   */\n      dup3\n        /* \"#utility.yul\":14569:14575   */\n      dup3\n        /* \"#utility.yul\":14563:14567   */\n      dup6\n        /* \"#utility.yul\":14517:14584   */\n      tag_290\n      jump\t// in\n    tag_459:\n        /* \"#utility.yul\":14611:14612   */\n      0x00\n        /* \"#utility.yul\":14635:14639   */\n      0x20\n        /* \"#utility.yul\":14622:14639   */\n      swap1\n      pop\n        /* \"#utility.yul\":14667:14669   */\n      0x1f\n        /* \"#utility.yul\":14659:14665   */\n      dup4\n        /* \"#utility.yul\":14656:14670   */\n      gt\n        /* \"#utility.yul\":14684:14685   */\n      0x01\n        /* \"#utility.yul\":14679:15297   */\n      dup2\n      eq\n      tag_461\n      jumpi\n        /* \"#utility.yul\":15341:15342   */\n      0x00\n        /* \"#utility.yul\":15358:15364   */\n      dup5\n        /* \"#utility.yul\":15355:15432   */\n      iszero\n      tag_462\n      jumpi\n        /* \"#utility.yul\":15407:15416   */\n      dup3\n        /* \"#utility.yul\":15402:15405   */\n      dup8\n        /* \"#utility.yul\":15398:15417   */\n      add\n        /* \"#utility.yul\":15392:15418   */\n      mload\n        /* \"#utility.yul\":15383:15418   */\n      swap1\n      pop\n        /* \"#utility.yul\":15355:15432   */\n    tag_462:\n        /* \"#utility.yul\":15458:15525   */\n      tag_463\n        /* \"#utility.yul\":15518:15524   */\n      dup6\n        /* \"#utility.yul\":15511:15516   */\n      dup3\n        /* \"#utility.yul\":15458:15525   */\n      tag_293\n      jump\t// in\n    tag_463:\n        /* \"#utility.yul\":15452:15456   */\n      dup7\n        /* \"#utility.yul\":15445:15526   */\n      sstore\n        /* \"#utility.yul\":15314:15536   */\n      pop\n        /* \"#utility.yul\":14649:15536   */\n      jump(tag_460)\n        /* \"#utility.yul\":14679:15297   */\n    tag_461:\n        /* \"#utility.yul\":14731:14735   */\n      0x1f\n        /* \"#utility.yul\":14727:14736   */\n      not\n        /* \"#utility.yul\":14719:14725   */\n      dup5\n        /* \"#utility.yul\":14715:14737   */\n      and\n        /* \"#utility.yul\":14765:14802   */\n      tag_464\n        /* \"#utility.yul\":14797:14801   */\n      dup7\n        /* \"#utility.yul\":14765:14802   */\n      tag_279\n      jump\t// in\n    tag_464:\n        /* \"#utility.yul\":14824:14825   */\n      0x00\n        /* \"#utility.yul\":14838:15046   */\n    tag_465:\n        /* \"#utility.yul\":14852:14859   */\n      dup3\n        /* \"#utility.yul\":14849:14850   */\n      dup2\n        /* \"#utility.yul\":14846:14860   */\n      lt\n        /* \"#utility.yul\":14838:15046   */\n      iszero\n      tag_467\n      jumpi\n        /* \"#utility.yul\":14931:14940   */\n      dup5\n        /* \"#utility.yul\":14926:14929   */\n      dup10\n        /* \"#utility.yul\":14922:14941   */\n      add\n        /* \"#utility.yul\":14916:14942   */\n      mload\n        /* \"#utility.yul\":14908:14914   */\n      dup3\n        /* \"#utility.yul\":14901:14943   */\n      sstore\n        /* \"#utility.yul\":14982:14983   */\n      0x01\n        /* \"#utility.yul\":14974:14980   */\n      dup3\n        /* \"#utility.yul\":14970:14984   */\n      add\n        /* \"#utility.yul\":14960:14984   */\n      swap2\n      pop\n        /* \"#utility.yul\":15029:15031   */\n      0x20\n        /* \"#utility.yul\":15018:15027   */\n      dup6\n        /* \"#utility.yul\":15014:15032   */\n      add\n        /* \"#utility.yul\":15001:15032   */\n      swap5\n      pop\n        /* \"#utility.yul\":14875:14879   */\n      0x20\n        /* \"#utility.yul\":14872:14873   */\n      dup2\n        /* \"#utility.yul\":14868:14880   */\n      add\n        /* \"#utility.yul\":14863:14880   */\n      swap1\n      pop\n        /* \"#utility.yul\":14838:15046   */\n      jump(tag_465)\n    tag_467:\n        /* \"#utility.yul\":15074:15080   */\n      dup7\n        /* \"#utility.yul\":15065:15072   */\n      dup4\n        /* \"#utility.yul\":15062:15081   */\n      lt\n        /* \"#utility.yul\":15059:15238   */\n      iszero\n      tag_468\n      jumpi\n        /* \"#utility.yul\":15132:15141   */\n      dup5\n        /* \"#utility.yul\":15127:15130   */\n      dup10\n        /* \"#utility.yul\":15123:15142   */\n      add\n        /* \"#utility.yul\":15117:15143   */\n      mload\n        /* \"#utility.yul\":15175:15223   */\n      tag_469\n        /* \"#utility.yul\":15217:15221   */\n      0x1f\n        /* \"#utility.yul\":15209:15215   */\n      dup10\n        /* \"#utility.yul\":15205:15222   */\n      and\n        /* \"#utility.yul\":15194:15203   */\n      dup3\n        /* \"#utility.yul\":15175:15223   */\n      tag_292\n      jump\t// in\n    tag_469:\n        /* \"#utility.yul\":15167:15173   */\n      dup4\n        /* \"#utility.yul\":15160:15224   */\n      sstore\n        /* \"#utility.yul\":15082:15238   */\n      pop\n        /* \"#utility.yul\":15059:15238   */\n    tag_468:\n        /* \"#utility.yul\":15284:15285   */\n      0x01\n        /* \"#utility.yul\":15280:15281   */\n      0x02\n        /* \"#utility.yul\":15272:15278   */\n      dup9\n        /* \"#utility.yul\":15268:15282   */\n      mul\n        /* \"#utility.yul\":15264:15286   */\n      add\n        /* \"#utility.yul\":15258:15262   */\n      dup9\n        /* \"#utility.yul\":15251:15287   */\n      sstore\n        /* \"#utility.yul\":14686:15297   */\n      pop\n      pop\n      pop\n        /* \"#utility.yul\":14649:15536   */\n    tag_460:\n      pop\n        /* \"#utility.yul\":14239:15542   */\n      pop\n      pop\n      pop\n        /* \"#utility.yul\":14147:15542   */\n      pop\n      pop\n      jump\t// out\n        /* \"#utility.yul\":15548:15725   */\n    tag_294:\n        /* \"#utility.yul\":15688:15717   */\n      0x4e6f742061206d656d626572206f662074686520636f6d70616e790000000000\n        /* \"#utility.yul\":15684:15685   */\n      0x00\n        /* \"#utility.yul\":15676:15682   */\n      dup3\n        /* \"#utility.yul\":15672:15686   */\n      add\n        /* \"#utility.yul\":15665:15718   */\n      mstore\n        /* \"#utility.yul\":15548:15725   */\n      pop\n      jump\t// out\n        /* \"#utility.yul\":15731:16097   */\n    tag_295:\n        /* \"#utility.yul\":15873:15876   */\n      0x00\n        /* \"#utility.yul\":15894:15961   */\n      tag_472\n        /* \"#utility.yul\":15958:15960   */\n      0x1b\n        /* \"#utility.yul\":15953:15956   */\n      dup4\n        /* \"#utility.yul\":15894:15961   */\n      tag_254\n      jump\t// in\n    tag_472:\n        /* \"#utility.yul\":15887:15961   */\n      swap2\n      pop\n        /* \"#utility.yul\":15970:16063   */\n      tag_473\n        /* \"#utility.yul\":16059:16062   */\n      dup3\n        /* \"#utility.yul\":15970:16063   */\n      tag_294\n      jump\t// in\n    tag_473:\n        /* \"#utility.yul\":16088:16090   */\n      0x20\n        /* \"#utility.yul\":16083:16086   */\n      dup3\n        /* \"#utility.yul\":16079:16091   */\n      add\n        /* \"#utility.yul\":16072:16091   */\n      swap1\n      pop\n        /* \"#utility.yul\":15731:16097   */\n      swap2\n      swap1\n      pop\n      jump\t// out\n        /* \"#utility.yul\":16103:16522   */\n    tag_97:\n        /* \"#utility.yul\":16269:16273   */\n      0x00\n        /* \"#utility.yul\":16307:16309   */\n      0x20\n        /* \"#utility.yul\":16296:16305   */\n      dup3\n        /* \"#utility.yul\":16292:16310   */\n      add\n        /* \"#utility.yul\":16284:16310   */\n      swap1\n      pop\n        /* \"#utility.yul\":16356:16365   */\n      dup2\n        /* \"#utility.yul\":16350:16354   */\n      dup2\n        /* \"#utility.yul\":16346:16366   */\n      sub\n        /* \"#utility.yul\":16342:16343   */\n      0x00\n        /* \"#utility.yul\":16331:16340   */\n      dup4\n        /* \"#utility.yul\":16327:16344   */\n      add\n        /* \"#utility.yul\":16320:16367   */\n      mstore\n        /* \"#utility.yul\":16384:16515   */\n      tag_475\n        /* \"#utility.yul\":16510:16514   */\n      dup2\n        /* \"#utility.yul\":16384:16515   */\n      tag_295\n      jump\t// in\n    tag_475:\n        /* \"#utility.yul\":16376:16515   */\n      swap1\n      pop\n        /* \"#utility.yul\":16103:16522   */\n      swap2\n      swap1\n      pop\n      jump\t// out\n        /* \"#utility.yul\":16528:16704   */\n    tag_296:\n        /* \"#utility.yul\":16668:16696   */\n      0x4469646e2774207369676e20696e20666f722074686520646179000000000000\n        /* \"#utility.yul\":16664:16665   */\n      0x00\n        /* \"#utility.yul\":16656:16662   */\n      dup3\n        /* \"#utility.yul\":16652:16666   */\n      add\n        /* \"#utility.yul\":16645:16697   */\n      mstore\n        /* \"#utility.yul\":16528:16704   */\n      pop\n      jump\t// out\n        /* \"#utility.yul\":16710:17076   */\n    tag_297:\n        /* \"#utility.yul\":16852:16855   */\n      0x00\n        /* \"#utility.yul\":16873:16940   */\n      tag_478\n        /* \"#utility.yul\":16937:16939   */\n      0x1a\n        /* \"#utility.yul\":16932:16935   */\n      dup4\n        /* \"#utility.yul\":16873:16940   */\n      tag_254\n      jump\t// in\n    tag_478:\n        /* \"#utility.yul\":16866:16940   */\n      swap2\n      pop\n        /* \"#utility.yul\":16949:17042   */\n      tag_479\n        /* \"#utility.yul\":17038:17041   */\n      dup3\n        /* \"#utility.yul\":16949:17042   */\n      tag_296\n      jump\t// in\n    tag_479:\n        /* \"#utility.yul\":17067:17069   */\n      0x20\n        /* \"#utility.yul\":17062:17065   */\n      dup3\n        /* \"#utility.yul\":17058:17070   */\n      add\n        /* \"#utility.yul\":17051:17070   */\n      swap1\n      pop\n        /* \"#utility.yul\":16710:17076   */\n      swap2\n      swap1\n      pop\n      jump\t// out\n        /* \"#utility.yul\":17082:17501   */\n    tag_103:\n        /* \"#utility.yul\":17248:17252   */\n      0x00\n        /* \"#utility.yul\":17286:17288   */\n      0x20\n        /* \"#utility.yul\":17275:17284   */\n      dup3\n        /* \"#utility.yul\":17271:17289   */\n      add\n        /* \"#utility.yul\":17263:17289   */\n      swap1\n      pop\n        /* \"#utility.yul\":17335:17344   */\n      dup2\n        /* \"#utility.yul\":17329:17333   */\n      dup2\n        /* \"#utility.yul\":17325:17345   */\n      sub\n        /* \"#utility.yul\":17321:17322   */\n      0x00\n        /* \"#utility.yul\":17310:17319   */\n      dup4\n        /* \"#utility.yul\":17306:17323   */\n      add\n        /* \"#utility.yul\":17299:17346   */\n      mstore\n        /* \"#utility.yul\":17363:17494   */\n      tag_481\n        /* \"#utility.yul\":17489:17493   */\n      dup2\n        /* \"#utility.yul\":17363:17494   */\n      tag_297\n      jump\t// in\n    tag_481:\n        /* \"#utility.yul\":17355:17494   */\n      swap1\n      pop\n        /* \"#utility.yul\":17082:17501   */\n      swap2\n      swap1\n      pop\n      jump\t// out\n        /* \"#utility.yul\":17507:17679   */\n    tag_298:\n        /* \"#utility.yul\":17647:17671   */\n      0x576f726b657220646f6573206e6f742065786973747300000000000000000000\n        /* \"#utility.yul\":17643:17644   */\n      0x00\n        /* \"#utility.yul\":17635:17641   */\n      dup3\n        /* \"#utility.yul\":17631:17645   */\n      add\n        /* \"#utility.yul\":17624:17672   */\n      mstore\n        /* \"#utility.yul\":17507:17679   */\n      pop\n      jump\t// out\n        /* \"#utility.yul\":17685:18051   */\n    tag_299:\n        /* \"#utility.yul\":17827:17830   */\n      0x00\n        /* \"#utility.yul\":17848:17915   */\n      tag_484\n        /* \"#utility.yul\":17912:17914   */\n      0x16\n        /* \"#utility.yul\":17907:17910   */\n      dup4\n        /* \"#utility.yul\":17848:17915   */\n      tag_254\n      jump\t// in\n    tag_484:\n        /* \"#utility.yul\":17841:17915   */\n      swap2\n      pop\n        /* \"#utility.yul\":17924:18017   */\n      tag_485\n        /* \"#utility.yul\":18013:18016   */\n      dup3\n        /* \"#utility.yul\":17924:18017   */\n      tag_298\n      jump\t// in\n    tag_485:\n        /* \"#utility.yul\":18042:18044   */\n      0x20\n        /* \"#utility.yul\":18037:18040   */\n      dup3\n        /* \"#utility.yul\":18033:18045   */\n      add\n        /* \"#utility.yul\":18026:18045   */\n      swap1\n      pop\n        /* \"#utility.yul\":17685:18051   */\n      swap2\n      swap1\n      pop\n      jump\t// out\n        /* \"#utility.yul\":18057:18476   */\n    tag_119:\n        /* \"#utility.yul\":18223:18227   */\n      0x00\n        /* \"#utility.yul\":18261:18263   */\n      0x20\n        /* \"#utility.yul\":18250:18259   */\n      dup3\n        /* \"#utility.yul\":18246:18264   */\n      add\n        /* \"#utility.yul\":18238:18264   */\n      swap1\n      pop\n        /* \"#utility.yul\":18310:18319   */\n      dup2\n        /* \"#utility.yul\":18304:18308   */\n      dup2\n        /* \"#utility.yul\":18300:18320   */\n      sub\n        /* \"#utility.yul\":18296:18297   */\n      0x00\n        /* \"#utility.yul\":18285:18294   */\n      dup4\n        /* \"#utility.yul\":18281:18298   */\n      add\n        /* \"#utility.yul\":18274:18321   */\n      mstore\n        /* \"#utility.yul\":18338:18469   */\n      tag_487\n        /* \"#utility.yul\":18464:18468   */\n      dup2\n        /* \"#utility.yul\":18338:18469   */\n      tag_299\n      jump\t// in\n    tag_487:\n        /* \"#utility.yul\":18330:18469   */\n      swap1\n      pop\n        /* \"#utility.yul\":18057:18476   */\n      swap2\n      swap1\n      pop\n      jump\t// out\n        /* \"#utility.yul\":18482:18662   */\n    tag_300:\n        /* \"#utility.yul\":18530:18607   */\n      0x4e487b7100000000000000000000000000000000000000000000000000000000\n        /* \"#utility.yul\":18527:18528   */\n      0x00\n        /* \"#utility.yul\":18520:18608   */\n      mstore\n        /* \"#utility.yul\":18627:18631   */\n      0x11\n        /* \"#utility.yul\":18624:18625   */\n      0x04\n        /* \"#utility.yul\":18617:18632   */\n      mstore\n        /* \"#utility.yul\":18651:18655   */\n      0x24\n        /* \"#utility.yul\":18648:18649   */\n      0x00\n        /* \"#utility.yul\":18641:18656   */\n      revert\n        /* \"#utility.yul\":18668:18862   */\n    tag_128:\n        /* \"#utility.yul\":18708:18712   */\n      0x00\n        /* \"#utility.yul\":18728:18748   */\n      tag_490\n        /* \"#utility.yul\":18746:18747   */\n      dup3\n        /* \"#utility.yul\":18728:18748   */\n      tag_247\n      jump\t// in\n    tag_490:\n        /* \"#utility.yul\":18723:18748   */\n      swap2\n      pop\n        /* \"#utility.yul\":18762:18782   */\n      tag_491\n        /* \"#utility.yul\":18780:18781   */\n      dup4\n        /* \"#utility.yul\":18762:18782   */\n      tag_247\n      jump\t// in\n    tag_491:\n        /* \"#utility.yul\":18757:18782   */\n      swap3\n      pop\n        /* \"#utility.yul\":18806:18807   */\n      dup3\n        /* \"#utility.yul\":18803:18804   */\n      dup3\n        /* \"#utility.yul\":18799:18808   */\n      sub\n        /* \"#utility.yul\":18791:18808   */\n      swap1\n      pop\n        /* \"#utility.yul\":18830:18831   */\n      dup2\n        /* \"#utility.yul\":18824:18828   */\n      dup2\n        /* \"#utility.yul\":18821:18832   */\n      gt\n        /* \"#utility.yul\":18818:18855   */\n      iszero\n      tag_492\n      jumpi\n        /* \"#utility.yul\":18835:18853   */\n      tag_493\n      tag_300\n      jump\t// in\n    tag_493:\n        /* \"#utility.yul\":18818:18855   */\n    tag_492:\n        /* \"#utility.yul\":18668:18862   */\n      swap3\n      swap2\n      pop\n      pop\n      jump\t// out\n        /* \"#utility.yul\":18868:19059   */\n    tag_130:\n        /* \"#utility.yul\":18908:18911   */\n      0x00\n        /* \"#utility.yul\":18927:18947   */\n      tag_495\n        /* \"#utility.yul\":18945:18946   */\n      dup3\n        /* \"#utility.yul\":18927:18947   */\n      tag_247\n      jump\t// in\n    tag_495:\n        /* \"#utility.yul\":18922:18947   */\n      swap2\n      pop\n        /* \"#utility.yul\":18961:18981   */\n      tag_496\n        /* \"#utility.yul\":18979:18980   */\n      dup4\n        /* \"#utility.yul\":18961:18981   */\n      tag_247\n      jump\t// in\n    tag_496:\n        /* \"#utility.yul\":18956:18981   */\n      swap3\n      pop\n        /* \"#utility.yul\":19004:19005   */\n      dup3\n        /* \"#utility.yul\":19001:19002   */\n      dup3\n        /* \"#utility.yul\":18997:19006   */\n      add\n        /* \"#utility.yul\":18990:19006   */\n      swap1\n      pop\n        /* \"#utility.yul\":19025:19028   */\n      dup1\n        /* \"#utility.yul\":19022:19023   */\n      dup3\n        /* \"#utility.yul\":19019:19029   */\n      gt\n        /* \"#utility.yul\":19016:19052   */\n      iszero\n      tag_497\n      jumpi\n        /* \"#utility.yul\":19032:19050   */\n      tag_498\n      tag_300\n      jump\t// in\n    tag_498:\n        /* \"#utility.yul\":19016:19052   */\n    tag_497:\n        /* \"#utility.yul\":18868:19059   */\n      swap3\n      swap2\n      pop\n      pop\n      jump\t// out\n        /* \"#utility.yul\":19065:19214   */\n    tag_301:\n        /* \"#utility.yul\":19114:19120   */\n      0x00\n        /* \"#utility.yul\":19148:19153   */\n      dup2\n        /* \"#utility.yul\":19142:19154   */\n      sload\n        /* \"#utility.yul\":19132:19154   */\n      swap1\n      pop\n        /* \"#utility.yul\":19174:19207   */\n      tag_500\n        /* \"#utility.yul\":19200:19206   */\n      dup2\n        /* \"#utility.yul\":19174:19207   */\n      tag_53\n      jump\t// in\n    tag_500:\n        /* \"#utility.yul\":19164:19207   */\n      swap1\n      pop\n        /* \"#utility.yul\":19065:19214   */\n      swap2\n      swap1\n      pop\n      jump\t// out\n        /* \"#utility.yul\":19220:20671   */\n    tag_138:\n        /* \"#utility.yul\":19331:19334   */\n      dup2\n        /* \"#utility.yul\":19325:19329   */\n      dup2\n        /* \"#utility.yul\":19322:19335   */\n      sub\n        /* \"#utility.yul\":19319:19345   */\n      tag_502\n      jumpi\n        /* \"#utility.yul\":19338:19343   */\n      pop\n      pop\n      jump(tag_501)\n        /* \"#utility.yul\":19319:19345   */\n    tag_502:\n        /* \"#utility.yul\":19369:19403   */\n      tag_503\n        /* \"#utility.yul\":19399:19402   */\n      dup3\n        /* \"#utility.yul\":19369:19403   */\n      tag_301\n      jump\t// in\n    tag_503:\n        /* \"#utility.yul\":19468:19486   */\n      0xffffffffffffffff\n        /* \"#utility.yul\":19460:19466   */\n      dup2\n        /* \"#utility.yul\":19457:19487   */\n      gt\n        /* \"#utility.yul\":19454:19510   */\n      iszero\n      tag_504\n      jumpi\n        /* \"#utility.yul\":19490:19508   */\n      tag_505\n      tag_265\n      jump\t// in\n    tag_505:\n        /* \"#utility.yul\":19454:19510   */\n    tag_504:\n        /* \"#utility.yul\":19534:19572   */\n      tag_506\n        /* \"#utility.yul\":19566:19570   */\n      dup3\n        /* \"#utility.yul\":19560:19571   */\n      sload\n        /* \"#utility.yul\":19534:19572   */\n      tag_53\n      jump\t// in\n    tag_506:\n        /* \"#utility.yul\":19619:19686   */\n      tag_507\n        /* \"#utility.yul\":19679:19685   */\n      dup3\n        /* \"#utility.yul\":19671:19677   */\n      dup3\n        /* \"#utility.yul\":19665:19669   */\n      dup6\n        /* \"#utility.yul\":19619:19686   */\n      tag_290\n      jump\t// in\n    tag_507:\n        /* \"#utility.yul\":19713:19714   */\n      0x00\n        /* \"#utility.yul\":19742:19744   */\n      0x1f\n        /* \"#utility.yul\":19734:19740   */\n      dup4\n        /* \"#utility.yul\":19731:19745   */\n      gt\n        /* \"#utility.yul\":19759:19760   */\n      0x01\n        /* \"#utility.yul\":19754:20426   */\n      dup2\n      eq\n      tag_509\n      jumpi\n        /* \"#utility.yul\":20470:20471   */\n      0x00\n        /* \"#utility.yul\":20487:20493   */\n      dup5\n        /* \"#utility.yul\":20484:20561   */\n      iszero\n      tag_510\n      jumpi\n        /* \"#utility.yul\":20536:20545   */\n      dup3\n        /* \"#utility.yul\":20531:20534   */\n      dup8\n        /* \"#utility.yul\":20527:20546   */\n      add\n        /* \"#utility.yul\":20521:20547   */\n      sload\n        /* \"#utility.yul\":20512:20547   */\n      swap1\n      pop\n        /* \"#utility.yul\":20484:20561   */\n    tag_510:\n        /* \"#utility.yul\":20587:20654   */\n      tag_511\n        /* \"#utility.yul\":20647:20653   */\n      dup6\n        /* \"#utility.yul\":20640:20645   */\n      dup3\n        /* \"#utility.yul\":20587:20654   */\n      tag_293\n      jump\t// in\n    tag_511:\n        /* \"#utility.yul\":20581:20585   */\n      dup7\n        /* \"#utility.yul\":20574:20655   */\n      sstore\n        /* \"#utility.yul\":20443:20665   */\n      pop\n        /* \"#utility.yul\":19724:20665   */\n      jump(tag_508)\n        /* \"#utility.yul\":19754:20426   */\n    tag_509:\n        /* \"#utility.yul\":19806:19810   */\n      0x1f\n        /* \"#utility.yul\":19802:19811   */\n      not\n        /* \"#utility.yul\":19794:19800   */\n      dup5\n        /* \"#utility.yul\":19790:19812   */\n      and\n        /* \"#utility.yul\":19832:19868   */\n      tag_512\n        /* \"#utility.yul\":19864:19867   */\n      dup8\n        /* \"#utility.yul\":19832:19868   */\n      tag_279\n      jump\t// in\n    tag_512:\n        /* \"#utility.yul\":19825:19868   */\n      swap7\n      pop\n        /* \"#utility.yul\":19895:19932   */\n      tag_513\n        /* \"#utility.yul\":19927:19931   */\n      dup7\n        /* \"#utility.yul\":19895:19932   */\n      tag_279\n      jump\t// in\n    tag_513:\n        /* \"#utility.yul\":19954:19955   */\n      0x00\n        /* \"#utility.yul\":19968:20175   */\n    tag_514:\n        /* \"#utility.yul\":19982:19989   */\n      dup3\n        /* \"#utility.yul\":19979:19980   */\n      dup2\n        /* \"#utility.yul\":19976:19990   */\n      lt\n        /* \"#utility.yul\":19968:20175   */\n      iszero\n      tag_516\n      jumpi\n        /* \"#utility.yul\":20061:20070   */\n      dup5\n        /* \"#utility.yul\":20056:20059   */\n      dup10\n        /* \"#utility.yul\":20052:20071   */\n      add\n        /* \"#utility.yul\":20046:20072   */\n      sload\n        /* \"#utility.yul\":20038:20044   */\n      dup3\n        /* \"#utility.yul\":20031:20073   */\n      sstore\n        /* \"#utility.yul\":20112:20113   */\n      0x01\n        /* \"#utility.yul\":20104:20110   */\n      dup3\n        /* \"#utility.yul\":20100:20114   */\n      add\n        /* \"#utility.yul\":20090:20114   */\n      swap2\n      pop\n        /* \"#utility.yul\":20159:20160   */\n      0x01\n        /* \"#utility.yul\":20148:20157   */\n      dup6\n        /* \"#utility.yul\":20144:20161   */\n      add\n        /* \"#utility.yul\":20131:20161   */\n      swap5\n      pop\n        /* \"#utility.yul\":20005:20009   */\n      0x20\n        /* \"#utility.yul\":20002:20003   */\n      dup2\n        /* \"#utility.yul\":19998:20010   */\n      add\n        /* \"#utility.yul\":19993:20010   */\n      swap1\n      pop\n        /* \"#utility.yul\":19968:20175   */\n      jump(tag_514)\n    tag_516:\n        /* \"#utility.yul\":20203:20209   */\n      dup7\n        /* \"#utility.yul\":20194:20201   */\n      dup4\n        /* \"#utility.yul\":20191:20210   */\n      lt\n        /* \"#utility.yul\":20188:20367   */\n      iszero\n      tag_517\n      jumpi\n        /* \"#utility.yul\":20261:20270   */\n      dup5\n        /* \"#utility.yul\":20256:20259   */\n      dup10\n        /* \"#utility.yul\":20252:20271   */\n      add\n        /* \"#utility.yul\":20246:20272   */\n      sload\n        /* \"#utility.yul\":20304:20352   */\n      tag_518\n        /* \"#utility.yul\":20346:20350   */\n      0x1f\n        /* \"#utility.yul\":20338:20344   */\n      dup10\n        /* \"#utility.yul\":20334:20351   */\n      and\n        /* \"#utility.yul\":20323:20332   */\n      dup3\n        /* \"#utility.yul\":20304:20352   */\n      tag_292\n      jump\t// in\n    tag_518:\n        /* \"#utility.yul\":20296:20302   */\n      dup4\n        /* \"#utility.yul\":20289:20353   */\n      sstore\n        /* \"#utility.yul\":20211:20367   */\n      pop\n        /* \"#utility.yul\":20188:20367   */\n    tag_517:\n        /* \"#utility.yul\":20413:20414   */\n      0x01\n        /* \"#utility.yul\":20409:20410   */\n      0x02\n        /* \"#utility.yul\":20401:20407   */\n      dup9\n        /* \"#utility.yul\":20397:20411   */\n      mul\n        /* \"#utility.yul\":20393:20415   */\n      add\n        /* \"#utility.yul\":20387:20391   */\n      dup9\n        /* \"#utility.yul\":20380:20416   */\n      sstore\n        /* \"#utility.yul\":19761:20426   */\n      pop\n      pop\n      pop\n        /* \"#utility.yul\":19724:20665   */\n    tag_508:\n      pop\n        /* \"#utility.yul\":19309:20671   */\n      pop\n      pop\n      pop\n        /* \"#utility.yul\":19220:20671   */\n      pop\n      pop\n    tag_501:\n      jump\t// out\n        /* \"#utility.yul\":20677:20857   */\n    tag_141:\n        /* \"#utility.yul\":20725:20802   */\n      0x4e487b7100000000000000000000000000000000000000000000000000000000\n        /* \"#utility.yul\":20722:20723   */\n      0x00\n        /* \"#utility.yul\":20715:20803   */\n      mstore\n        /* \"#utility.yul\":20822:20826   */\n      0x31\n        /* \"#utility.yul\":20819:20820   */\n      0x04\n        /* \"#utility.yul\":20812:20827   */\n      mstore\n        /* \"#utility.yul\":20846:20850   */\n      0x24\n        /* \"#utility.yul\":20843:20844   */\n      0x00\n        /* \"#utility.yul\":20836:20851   */\n      revert\n        /* \"#utility.yul\":20863:21286   */\n    tag_160:\n        /* \"#utility.yul\":21004:21008   */\n      0x00\n        /* \"#utility.yul\":21042:21044   */\n      0x40\n        /* \"#utility.yul\":21031:21040   */\n      dup3\n        /* \"#utility.yul\":21027:21045   */\n      add\n        /* \"#utility.yul\":21019:21045   */\n      swap1\n      pop\n        /* \"#utility.yul\":21091:21100   */\n      dup2\n        /* \"#utility.yul\":21085:21089   */\n      dup2\n        /* \"#utility.yul\":21081:21101   */\n      sub\n        /* \"#utility.yul\":21077:21078   */\n      0x00\n        /* \"#utility.yul\":21066:21075   */\n      dup4\n        /* \"#utility.yul\":21062:21079   */\n      add\n        /* \"#utility.yul\":21055:21102   */\n      mstore\n        /* \"#utility.yul\":21119:21197   */\n      tag_521\n        /* \"#utility.yul\":21192:21196   */\n      dup2\n        /* \"#utility.yul\":21183:21189   */\n      dup6\n        /* \"#utility.yul\":21119:21197   */\n      tag_257\n      jump\t// in\n    tag_521:\n        /* \"#utility.yul\":21111:21197   */\n      swap1\n      pop\n        /* \"#utility.yul\":21207:21279   */\n      tag_522\n        /* \"#utility.yul\":21275:21277   */\n      0x20\n        /* \"#utility.yul\":21264:21273   */\n      dup4\n        /* \"#utility.yul\":21260:21278   */\n      add\n        /* \"#utility.yul\":21251:21257   */\n      dup5\n        /* \"#utility.yul\":21207:21279   */\n      tag_258\n      jump\t// in\n    tag_522:\n        /* \"#utility.yul\":20863:21286   */\n      swap4\n      swap3\n      pop\n      pop\n      pop\n      jump\t// out\n        /* \"#utility.yul\":21292:21464   */\n    tag_302:\n        /* \"#utility.yul\":21432:21456   */\n      0x7573657220616c7265616479207369676e656420696e00000000000000000000\n        /* \"#utility.yul\":21428:21429   */\n      0x00\n        /* \"#utility.yul\":21420:21426   */\n      dup3\n        /* \"#utility.yul\":21416:21430   */\n      add\n        /* \"#utility.yul\":21409:21457   */\n      mstore\n        /* \"#utility.yul\":21292:21464   */\n      pop\n      jump\t// out\n        /* \"#utility.yul\":21470:21836   */\n    tag_303:\n        /* \"#utility.yul\":21612:21615   */\n      0x00\n        /* \"#utility.yul\":21633:21700   */\n      tag_525\n        /* \"#utility.yul\":21697:21699   */\n      0x16\n        /* \"#utility.yul\":21692:21695   */\n      dup4\n        /* \"#utility.yul\":21633:21700   */\n      tag_254\n      jump\t// in\n    tag_525:\n        /* \"#utility.yul\":21626:21700   */\n      swap2\n      pop\n        /* \"#utility.yul\":21709:21802   */\n      tag_526\n        /* \"#utility.yul\":21798:21801   */\n      dup3\n        /* \"#utility.yul\":21709:21802   */\n      tag_302\n      jump\t// in\n    tag_526:\n        /* \"#utility.yul\":21827:21829   */\n      0x20\n        /* \"#utility.yul\":21822:21825   */\n      dup3\n        /* \"#utility.yul\":21818:21830   */\n      add\n        /* \"#utility.yul\":21811:21830   */\n      swap1\n      pop\n        /* \"#utility.yul\":21470:21836   */\n      swap2\n      swap1\n      pop\n      jump\t// out\n        /* \"#utility.yul\":21842:22261   */\n    tag_175:\n        /* \"#utility.yul\":22008:22012   */\n      0x00\n        /* \"#utility.yul\":22046:22048   */\n      0x20\n        /* \"#utility.yul\":22035:22044   */\n      dup3\n        /* \"#utility.yul\":22031:22049   */\n      add\n        /* \"#utility.yul\":22023:22049   */\n      swap1\n      pop\n        /* \"#utility.yul\":22095:22104   */\n      dup2\n        /* \"#utility.yul\":22089:22093   */\n      dup2\n        /* \"#utility.yul\":22085:22105   */\n      sub\n        /* \"#utility.yul\":22081:22082   */\n      0x00\n        /* \"#utility.yul\":22070:22079   */\n      dup4\n        /* \"#utility.yul\":22066:22083   */\n      add\n        /* \"#utility.yul\":22059:22106   */\n      mstore\n        /* \"#utility.yul\":22123:22254   */\n      tag_528\n        /* \"#utility.yul\":22249:22253   */\n      dup2\n        /* \"#utility.yul\":22123:22254   */\n      tag_303\n      jump\t// in\n    tag_528:\n        /* \"#utility.yul\":22115:22254   */\n      swap1\n      pop\n        /* \"#utility.yul\":21842:22261   */\n      swap2\n      swap1\n      pop\n      jump\t// out\n        /* \"#utility.yul\":22267:22488   */\n    tag_304:\n        /* \"#utility.yul\":22407:22441   */\n      0x526573657420696e74657276616c20686173206e6f7420656c61707365642079\n        /* \"#utility.yul\":22403:22404   */\n      0x00\n        /* \"#utility.yul\":22395:22401   */\n      dup3\n        /* \"#utility.yul\":22391:22405   */\n      add\n        /* \"#utility.yul\":22384:22442   */\n      mstore\n        /* \"#utility.yul\":22476:22480   */\n      0x6574000000000000000000000000000000000000000000000000000000000000\n        /* \"#utility.yul\":22471:22473   */\n      0x20\n        /* \"#utility.yul\":22463:22469   */\n      dup3\n        /* \"#utility.yul\":22459:22474   */\n      add\n        /* \"#utility.yul\":22452:22481   */\n      mstore\n        /* \"#utility.yul\":22267:22488   */\n      pop\n      jump\t// out\n        /* \"#utility.yul\":22494:22860   */\n    tag_305:\n        /* \"#utility.yul\":22636:22639   */\n      0x00\n        /* \"#utility.yul\":22657:22724   */\n      tag_531\n        /* \"#utility.yul\":22721:22723   */\n      0x22\n        /* \"#utility.yul\":22716:22719   */\n      dup4\n        /* \"#utility.yul\":22657:22724   */\n      tag_254\n      jump\t// in\n    tag_531:\n        /* \"#utility.yul\":22650:22724   */\n      swap2\n      pop\n        /* \"#utility.yul\":22733:22826   */\n      tag_532\n        /* \"#utility.yul\":22822:22825   */\n      dup3\n        /* \"#utility.yul\":22733:22826   */\n      tag_304\n      jump\t// in\n    tag_532:\n        /* \"#utility.yul\":22851:22853   */\n      0x40\n        /* \"#utility.yul\":22846:22849   */\n      dup3\n        /* \"#utility.yul\":22842:22854   */\n      add\n        /* \"#utility.yul\":22835:22854   */\n      swap1\n      pop\n        /* \"#utility.yul\":22494:22860   */\n      swap2\n      swap1\n      pop\n      jump\t// out\n        /* \"#utility.yul\":22866:23285   */\n    tag_223:\n        /* \"#utility.yul\":23032:23036   */\n      0x00\n        /* \"#utility.yul\":23070:23072   */\n      0x20\n        /* \"#utility.yul\":23059:23068   */\n      dup3\n        /* \"#utility.yul\":23055:23073   */\n      add\n        /* \"#utility.yul\":23047:23073   */\n      swap1\n      pop\n        /* \"#utility.yul\":23119:23128   */\n      dup2\n        /* \"#utility.yul\":23113:23117   */\n      dup2\n        /* \"#utility.yul\":23109:23129   */\n      sub\n        /* \"#utility.yul\":23105:23106   */\n      0x00\n        /* \"#utility.yul\":23094:23103   */\n      dup4\n        /* \"#utility.yul\":23090:23107   */\n      add\n        /* \"#utility.yul\":23083:23130   */\n      mstore\n        /* \"#utility.yul\":23147:23278   */\n      tag_534\n        /* \"#utility.yul\":23273:23277   */\n      dup2\n        /* \"#utility.yul\":23147:23278   */\n      tag_305\n      jump\t// in\n    tag_534:\n        /* \"#utility.yul\":23139:23278   */\n      swap1\n      pop\n        /* \"#utility.yul\":22866:23285   */\n      swap2\n      swap1\n      pop\n      jump\t// out\n\n    auxdata: 0xa2646970667358221220f8461153113e3c12f515bdc196d7f014681daea83d710e2f138c0b7d261baae564736f6c63430008180033\n}\n",
				"bytecode": {
					"linkReferences": {},
					"object": "608060405234801561000f575f80fd5b50335f806101000a81548173ffffffffffffffffffffffffffffffffffffffff021916908373ffffffffffffffffffffffffffffffffffffffff16021790555042600181905550612400806100635f395ff3fe608060405234801561000f575f80fd5b506004361061009c575f3560e01c80636de95201116100645780636de95201146101485780639e4cda43146101645780639fc1fce91461016e578063a8bb05d2146101a1578063c47f7fdd146101d35761009c565b806321811a91146100a057806335801f27146100d35780634048a257146100ef5780634be422ae1461012257806365cc79811461012c575b5f80fd5b6100ba60048036038101906100b59190611784565b6101dd565b6040516100ca94939291906118a1565b60405180910390f35b6100ed60048036038101906100e89190611a41565b6102c9565b005b61010960048036038101906101049190611aad565b61063b565b60405161011994939291906118a1565b60405180910390f35b61012a610718565b005b61014660048036038101906101419190611aad565b6108da565b005b610162600480360381019061015d9190611a41565b610ce4565b005b61016c610f25565b005b61018860048036038101906101839190611784565b6111de565b60405161019894939291906118a1565b60405180910390f35b6101bb60048036038101906101b69190611aad565b6112ca565b6040516101ca93929190611ad8565b60405180910390f35b6101db61151a565b005b600481815481106101ec575f80fd5b905f5260205f2090600402015f91509050805f015f9054906101000a900473ffffffffffffffffffffffffffffffffffffffff169080600101805461023090611b41565b80601f016020809104026020016040519081016040528092919081815260200182805461025c90611b41565b80156102a75780601f1061027e576101008083540402835291602001916102a7565b820191905f5260205f20905b81548152906001019060200180831161028a57829003601f168201915b505050505090806002015490806003015f9054906101000a900460ff16905084565b5f8054906101000a900473ffffffffffffffffffffffffffffffffffffffff1673ffffffffffffffffffffffffffffffffffffffff163373ffffffffffffffffffffffffffffffffffffffff1614610356576040517f08c379a000000000000000000000000000000000000000000000000000000000815260040161034d90611be1565b60405180910390fd5b5f5b60038054905081101561048657816003828154811061037a57610379611bff565b5b905f5260205f20906004020160020154036103ca576040517f08c379a00000000000000000000000000000000000000000000000000000000081526004016103c190611c9c565b60405180910390fd5b8373ffffffffffffffffffffffffffffffffffffffff16600382815481106103f5576103f4611bff565b5b905f5260205f2090600402015f015f9054906101000a900473ffffffffffffffffffffffffffffffffffffffff1673ffffffffffffffffffffffffffffffffffffffff1603610479576040517f08c379a000000000000000000000000000000000000000000000000000000000815260040161047090611d2a565b60405180910390fd5b8080600101915050610358565b505f60405180608001604052808573ffffffffffffffffffffffffffffffffffffffff1681526020018481526020018381526020015f151581525090508060025f8673ffffffffffffffffffffffffffffffffffffffff1673ffffffffffffffffffffffffffffffffffffffff1681526020019081526020015f205f820151815f015f6101000a81548173ffffffffffffffffffffffffffffffffffffffff021916908373ffffffffffffffffffffffffffffffffffffffff160217905550602082015181600101908161055a9190611ee5565b50604082015181600201556060820151816003015f6101000a81548160ff021916908315150217905550905050600381908060018154018082558091505060019003905f5260205f2090600402015f909190919091505f820151815f015f6101000a81548173ffffffffffffffffffffffffffffffffffffffff021916908373ffffffffffffffffffffffffffffffffffffffff16021790555060208201518160010190816106099190611ee5565b50604082015181600201556060820151816003015f6101000a81548160ff021916908315150217905550505050505050565b6002602052805f5260405f205f91509050805f015f9054906101000a900473ffffffffffffffffffffffffffffffffffffffff169080600101805461067f90611b41565b80601f01602080910402602001604051908101604052809291908181526020018280546106ab90611b41565b80156106f65780601f106106cd576101008083540402835291602001916106f6565b820191905f5260205f20905b8154815290600101906020018083116106d957829003601f168201915b505050505090806002015490806003015f9054906101000a900460ff16905084565b5f5b6003805490508110156108d7576003818154811061073b5761073a611bff565b5b905f5260205f2090600402015f015f9054906101000a900473ffffffffffffffffffffffffffffffffffffffff1673ffffffffffffffffffffffffffffffffffffffff163373ffffffffffffffffffffffffffffffffffffffff16146107d6576040517f08c379a00000000000000000000000000000000000000000000000000000000081526004016107cd90611ffe565b60405180910390fd5b60011515600382815481106107ee576107ed611bff565b5b905f5260205f2090600402016003015f9054906101000a900460ff1615151461084c576040517f08c379a000000000000000000000000000000000000000000000000000000000815260040161084390612066565b60405180910390fd5b5f6003828154811061086157610860611bff565b5b905f5260205f2090600402016003015f6101000a81548160ff0219169083151502179055503373ffffffffffffffffffffffffffffffffffffffff16427f80bc357386c693c2d6ad5938af6765eacd7d7790c17e39c014ab30def639416560405160405180910390a3808060010191505061071a565b50565b5f8054906101000a900473ffffffffffffffffffffffffffffffffffffffff1673ffffffffffffffffffffffffffffffffffffffff163373ffffffffffffffffffffffffffffffffffffffff1614610967576040517f08c379a000000000000000000000000000000000000000000000000000000000815260040161095e90611be1565b60405180910390fd5b5f805f90505b600380549050811015610ab2578273ffffffffffffffffffffffffffffffffffffffff16600382815481106109a5576109a4611bff565b5b905f5260205f2090600402015f015f9054906101000a900473ffffffffffffffffffffffffffffffffffffffff1673ffffffffffffffffffffffffffffffffffffffff1614610a29576040517f08c379a0000000000000000000000000000000000000000000000000000000008152600401610a20906120ce565b60405180910390fd5b8273ffffffffffffffffffffffffffffffffffffffff1660038281548110610a5457610a53611bff565b5b905f5260205f2090600402015f015f9054906101000a900473ffffffffffffffffffffffffffffffffffffffff1673ffffffffffffffffffffffffffffffffffffffff1603610aa557809150610ab2565b808060010191505061096d565b505f8190505b6001600380549050610aca9190612119565b811015610bda576003600182610ae0919061214c565b81548110610af157610af0611bff565b5b905f5260205f20906004020160038281548110610b1157610b10611bff565b5b905f5260205f2090600402015f82015f9054906101000a900473ffffffffffffffffffffffffffffffffffffffff16815f015f6101000a81548173ffffffffffffffffffffffffffffffffffffffff021916908373ffffffffffffffffffffffffffffffffffffffff16021790555060018201816001019081610b949190612194565b5060028201548160020155600382015f9054906101000a900460ff16816003015f6101000a81548160ff0219169083151502179055509050508080600101915050610ab8565b506003805480610bed57610bec612279565b5b600190038181905f5260205f2090600402015f8082015f6101000a81549073ffffffffffffffffffffffffffffffffffffffff0219169055600182015f610c3491906116e8565b600282015f9055600382015f6101000a81549060ff02191690555050905560025f8373ffffffffffffffffffffffffffffffffffffffff1673ffffffffffffffffffffffffffffffffffffffff1681526020019081526020015f205f8082015f6101000a81549073ffffffffffffffffffffffffffffffffffffffff0219169055600182015f610cc491906116e8565b600282015f9055600382015f6101000a81549060ff021916905550505050565b5f8054906101000a900473ffffffffffffffffffffffffffffffffffffffff1673ffffffffffffffffffffffffffffffffffffffff163373ffffffffffffffffffffffffffffffffffffffff1614610d71576040517f08c379a0000000000000000000000000000000000000000000000000000000008152600401610d6890611be1565b60405180910390fd5b5f5b600380549050811015610ecf578373ffffffffffffffffffffffffffffffffffffffff1660038281548110610dab57610daa611bff565b5b905f5260205f2090600402015f015f9054906101000a900473ffffffffffffffffffffffffffffffffffffffff1673ffffffffffffffffffffffffffffffffffffffff1614610e2f576040517f08c379a0000000000000000000000000000000000000000000000000000000008152600401610e26906120ce565b60405180910390fd5b8260025f8673ffffffffffffffffffffffffffffffffffffffff1673ffffffffffffffffffffffffffffffffffffffff1681526020019081526020015f206001019081610e7c9190611ee5565b508160025f8673ffffffffffffffffffffffffffffffffffffffff1673ffffffffffffffffffffffffffffffffffffffff1681526020019081526020015f20600201819055508080600101915050610d73565b503373ffffffffffffffffffffffffffffffffffffffff167fdcb94c0b2c025b0736b4b62b1c595f2ca7ad4c711eada6026d477e87de9cca088383604051610f189291906122a6565b60405180910390a2505050565b5f5b6003805490508110156111db5760038181548110610f4857610f47611bff565b5b905f5260205f2090600402015f015f9054906101000a900473ffffffffffffffffffffffffffffffffffffffff1673ffffffffffffffffffffffffffffffffffffffff163373ffffffffffffffffffffffffffffffffffffffff1614610fe3576040517f08c379a0000000000000000000000000000000000000000000000000000000008152600401610fda90611ffe565b60405180910390fd5b5f151560038281548110610ffa57610ff9611bff565b5b905f5260205f2090600402016003015f9054906101000a900460ff16151514611058576040517f08c379a000000000000000000000000000000000000000000000000000000000815260040161104f9061231e565b60405180910390fd5b60016003828154811061106e5761106d611bff565b5b905f5260205f2090600402016003015f6101000a81548160ff0219169083151502179055506004600382815481106110a9576110a8611bff565b5b905f5260205f209060040201908060018154018082558091505060019003905f5260205f2090600402015f909190919091505f82015f9054906101000a900473ffffffffffffffffffffffffffffffffffffffff16815f015f6101000a81548173ffffffffffffffffffffffffffffffffffffffff021916908373ffffffffffffffffffffffffffffffffffffffff160217905550600182018160010190816111529190612194565b5060028201548160020155600382015f9054906101000a900460ff16816003015f6101000a81548160ff02191690831515021790555050503373ffffffffffffffffffffffffffffffffffffffff16427f80bc357386c693c2d6ad5938af6765eacd7d7790c17e39c014ab30def639416560405160405180910390a38080600101915050610f27565b50565b600381815481106111ed575f80fd5b905f5260205f2090600402015f91509050805f015f9054906101000a900473ffffffffffffffffffffffffffffffffffffffff169080600101805461123190611b41565b80601f016020809104026020016040519081016040528092919081815260200182805461125d90611b41565b80156112a85780601f1061127f576101008083540402835291602001916112a8565b820191905f5260205f20905b81548152906001019060200180831161128b57829003601f168201915b505050505090806002015490806003015f9054906101000a900460ff16905084565b60605f805f8054906101000a900473ffffffffffffffffffffffffffffffffffffffff1673ffffffffffffffffffffffffffffffffffffffff163373ffffffffffffffffffffffffffffffffffffffff161461135b576040517f08c379a000000000000000000000000000000000000000000000000000000000815260040161135290611be1565b60405180910390fd5b5f5b6003805490508110156114f8576003818154811061137e5761137d611bff565b5b905f5260205f2090600402015f015f9054906101000a900473ffffffffffffffffffffffffffffffffffffffff1673ffffffffffffffffffffffffffffffffffffffff168573ffffffffffffffffffffffffffffffffffffffff16036114eb57600381815481106113f2576113f1611bff565b5b905f5260205f2090600402016001016003828154811061141557611414611bff565b5b905f5260205f209060040201600201546003838154811061143957611438611bff565b5b905f5260205f2090600402016003015f9054906101000a900460ff1682805461146190611b41565b80601f016020809104026020016040519081016040528092919081815260200182805461148d90611b41565b80156114d85780601f106114af576101008083540402835291602001916114d8565b820191905f5260205f20905b8154815290600101906020018083116114bb57829003601f168201915b5050505050925093509350935050611513565b808060010191505061135d565b505f8060405180602001604052805f81525091909250925092505b9193909250565b5f8054906101000a900473ffffffffffffffffffffffffffffffffffffffff1673ffffffffffffffffffffffffffffffffffffffff163373ffffffffffffffffffffffffffffffffffffffff16146115a7576040517f08c379a000000000000000000000000000000000000000000000000000000000815260040161159e90611be1565b60405180910390fd5b620119406001546115b8919061214c565b4210156115fa576040517f08c379a00000000000000000000000000000000000000000000000000000000081526004016115f1906123ac565b60405180910390fd5b5f5b600380549050811015611650575f6003828154811061161e5761161d611bff565b5b905f5260205f2090600402016003015f6101000a81548160ff02191690831515021790555080806001019150506115fc565b505f5b6004805490508110156116de576004818154811061167457611673611bff565b5b905f5260205f2090600402015f8082015f6101000a81549073ffffffffffffffffffffffffffffffffffffffff0219169055600182015f6116b591906116e8565b600282015f9055600382015f6101000a81549060ff021916905550508080600101915050611653565b5042600181905550565b5080546116f490611b41565b5f825580601f106117055750611722565b601f0160209004905f5260205f20908101906117219190611725565b5b50565b5b8082111561173c575f815f905550600101611726565b5090565b5f604051905090565b5f80fd5b5f80fd5b5f819050919050565b61176381611751565b811461176d575f80fd5b50565b5f8135905061177e8161175a565b92915050565b5f6020828403121561179957611798611749565b5b5f6117a684828501611770565b91505092915050565b5f73ffffffffffffffffffffffffffffffffffffffff82169050919050565b5f6117d8826117af565b9050919050565b6117e8816117ce565b82525050565b5f81519050919050565b5f82825260208201905092915050565b5f5b8381101561182557808201518184015260208101905061180a565b5f8484015250505050565b5f601f19601f8301169050919050565b5f61184a826117ee565b61185481856117f8565b9350611864818560208601611808565b61186d81611830565b840191505092915050565b61188181611751565b82525050565b5f8115159050919050565b61189b81611887565b82525050565b5f6080820190506118b45f8301876117df565b81810360208301526118c68186611840565b90506118d56040830185611878565b6118e26060830184611892565b95945050505050565b6118f4816117ce565b81146118fe575f80fd5b50565b5f8135905061190f816118eb565b92915050565b5f80fd5b5f80fd5b7f4e487b71000000000000000000000000000000000000000000000000000000005f52604160045260245ffd5b61195382611830565b810181811067ffffffffffffffff821117156119725761197161191d565b5b80604052505050565b5f611984611740565b9050611990828261194a565b919050565b5f67ffffffffffffffff8211156119af576119ae61191d565b5b6119b882611830565b9050602081019050919050565b828183375f83830152505050565b5f6119e56119e084611995565b61197b565b905082815260208101848484011115611a0157611a00611919565b5b611a0c8482856119c5565b509392505050565b5f82601f830112611a2857611a27611915565b5b8135611a388482602086016119d3565b91505092915050565b5f805f60608486031215611a5857611a57611749565b5b5f611a6586828701611901565b935050602084013567ffffffffffffffff811115611a8657611a8561174d565b5b611a9286828701611a14565b9250506040611aa386828701611770565b9150509250925092565b5f60208284031215611ac257611ac1611749565b5b5f611acf84828501611901565b91505092915050565b5f6060820190508181035f830152611af08186611840565b9050611aff6020830185611878565b611b0c6040830184611892565b949350505050565b7f4e487b71000000000000000000000000000000000000000000000000000000005f52602260045260245ffd5b5f6002820490506001821680611b5857607f821691505b602082108103611b6b57611b6a611b14565b5b50919050565b7f4f6e6c792074686520426f73732063616e2063616c6c20746869732066756e635f8201527f74696f6e00000000000000000000000000000000000000000000000000000000602082015250565b5f611bcb6024836117f8565b9150611bd682611b71565b604082019050919050565b5f6020820190508181035f830152611bf881611bbf565b9050919050565b7f4e487b71000000000000000000000000000000000000000000000000000000005f52603260045260245ffd5b7f576f726b65722077697468207468697320494420616c726561647920657869735f8201527f7473000000000000000000000000000000000000000000000000000000000000602082015250565b5f611c866022836117f8565b9150611c9182611c2c565b604082019050919050565b5f6020820190508181035f830152611cb381611c7a565b9050919050565b7f576f726b657220776974682074686973206164647265737320616c72656164795f8201527f2065786973747300000000000000000000000000000000000000000000000000602082015250565b5f611d146027836117f8565b9150611d1f82611cba565b604082019050919050565b5f6020820190508181035f830152611d4181611d08565b9050919050565b5f819050815f5260205f209050919050565b5f6020601f8301049050919050565b5f82821b905092915050565b5f60088302611da47fffffffffffffffffffffffffffffffffffffffffffffffffffffffffffffffff82611d69565b611dae8683611d69565b95508019841693508086168417925050509392505050565b5f819050919050565b5f611de9611de4611ddf84611751565b611dc6565b611751565b9050919050565b5f819050919050565b611e0283611dcf565b611e16611e0e82611df0565b848454611d75565b825550505050565b5f90565b611e2a611e1e565b611e35818484611df9565b505050565b5b81811015611e5857611e4d5f82611e22565b600181019050611e3b565b5050565b601f821115611e9d57611e6e81611d48565b611e7784611d5a565b81016020851015611e86578190505b611e9a611e9285611d5a565b830182611e3a565b50505b505050565b5f82821c905092915050565b5f611ebd5f1984600802611ea2565b1980831691505092915050565b5f611ed58383611eae565b9150826002028217905092915050565b611eee826117ee565b67ffffffffffffffff811115611f0757611f0661191d565b5b611f118254611b41565b611f1c828285611e5c565b5f60209050601f831160018114611f4d575f8415611f3b578287015190505b611f458582611eca565b865550611fac565b601f198416611f5b86611d48565b5f5b82811015611f8257848901518255600182019150602085019450602081019050611f5d565b86831015611f9f5784890151611f9b601f891682611eae565b8355505b6001600288020188555050505b505050505050565b7f4e6f742061206d656d626572206f662074686520636f6d70616e7900000000005f82015250565b5f611fe8601b836117f8565b9150611ff382611fb4565b602082019050919050565b5f6020820190508181035f83015261201581611fdc565b9050919050565b7f4469646e2774207369676e20696e20666f7220746865206461790000000000005f82015250565b5f612050601a836117f8565b915061205b8261201c565b602082019050919050565b5f6020820190508181035f83015261207d81612044565b9050919050565b7f576f726b657220646f6573206e6f7420657869737473000000000000000000005f82015250565b5f6120b86016836117f8565b91506120c382612084565b602082019050919050565b5f6020820190508181035f8301526120e5816120ac565b9050919050565b7f4e487b71000000000000000000000000000000000000000000000000000000005f52601160045260245ffd5b5f61212382611751565b915061212e83611751565b9250828203905081811115612146576121456120ec565b5b92915050565b5f61215682611751565b915061216183611751565b9250828201905080821115612179576121786120ec565b5b92915050565b5f8154905061218d81611b41565b9050919050565b8181036121a2575050612277565b6121ab8261217f565b67ffffffffffffffff8111156121c4576121c361191d565b5b6121ce8254611b41565b6121d9828285611e5c565b5f601f831160018114612206575f84156121f4578287015490505b6121fe8582611eca565b865550612270565b601f19841661221487611d48565b965061221f86611d48565b5f5b8281101561224657848901548255600182019150600185019450602081019050612221565b86831015612263578489015461225f601f891682611eae565b8355505b6001600288020188555050505b5050505050505b565b7f4e487b71000000000000000000000000000000000000000000000000000000005f52603160045260245ffd5b5f6040820190508181035f8301526122be8185611840565b90506122cd6020830184611878565b9392505050565b7f7573657220616c7265616479207369676e656420696e000000000000000000005f82015250565b5f6123086016836117f8565b9150612313826122d4565b602082019050919050565b5f6020820190508181035f830152612335816122fc565b9050919050565b7f526573657420696e74657276616c20686173206e6f7420656c617073656420795f8201527f6574000000000000000000000000000000000000000000000000000000000000602082015250565b5f6123966022836117f8565b91506123a18261233c565b604082019050919050565b5f6020820190508181035f8301526123c38161238a565b905091905056fea2646970667358221220f8461153113e3c12f515bdc196d7f014681daea83d710e2f138c0b7d261baae564736f6c63430008180033",
					"opcodes": "PUSH1 0x80 PUSH1 0x40 MSTORE CALLVALUE DUP1 ISZERO PUSH2 0xF JUMPI PUSH0 DUP1 REVERT JUMPDEST POP CALLER PUSH0 DUP1 PUSH2 0x100 EXP DUP2 SLOAD DUP2 PUSH20 0xFFFFFFFFFFFFFFFFFFFFFFFFFFFFFFFFFFFFFFFF MUL NOT AND SWAP1 DUP4 PUSH20 0xFFFFFFFFFFFFFFFFFFFFFFFFFFFFFFFFFFFFFFFF AND MUL OR SWAP1 SSTORE POP TIMESTAMP PUSH1 0x1 DUP2 SWAP1 SSTORE POP PUSH2 0x2400 DUP1 PUSH2 0x63 PUSH0 CODECOPY PUSH0 RETURN INVALID PUSH1 0x80 PUSH1 0x40 MSTORE CALLVALUE DUP1 ISZERO PUSH2 0xF JUMPI PUSH0 DUP1 REVERT JUMPDEST POP PUSH1 0x4 CALLDATASIZE LT PUSH2 0x9C JUMPI PUSH0 CALLDATALOAD PUSH1 0xE0 SHR DUP1 PUSH4 0x6DE95201 GT PUSH2 0x64 JUMPI DUP1 PUSH4 0x6DE95201 EQ PUSH2 0x148 JUMPI DUP1 PUSH4 0x9E4CDA43 EQ PUSH2 0x164 JUMPI DUP1 PUSH4 0x9FC1FCE9 EQ PUSH2 0x16E JUMPI DUP1 PUSH4 0xA8BB05D2 EQ PUSH2 0x1A1 JUMPI DUP1 PUSH4 0xC47F7FDD EQ PUSH2 0x1D3 JUMPI PUSH2 0x9C JUMP JUMPDEST DUP1 PUSH4 0x21811A91 EQ PUSH2 0xA0 JUMPI DUP1 PUSH4 0x35801F27 EQ PUSH2 0xD3 JUMPI DUP1 PUSH4 0x4048A257 EQ PUSH2 0xEF JUMPI DUP1 PUSH4 0x4BE422AE EQ PUSH2 0x122 JUMPI DUP1 PUSH4 0x65CC7981 EQ PUSH2 0x12C JUMPI JUMPDEST PUSH0 DUP1 REVERT JUMPDEST PUSH2 0xBA PUSH1 0x4 DUP1 CALLDATASIZE SUB DUP2 ADD SWAP1 PUSH2 0xB5 SWAP2 SWAP1 PUSH2 0x1784 JUMP JUMPDEST PUSH2 0x1DD JUMP JUMPDEST PUSH1 0x40 MLOAD PUSH2 0xCA SWAP5 SWAP4 SWAP3 SWAP2 SWAP1 PUSH2 0x18A1 JUMP JUMPDEST PUSH1 0x40 MLOAD DUP1 SWAP2 SUB SWAP1 RETURN JUMPDEST PUSH2 0xED PUSH1 0x4 DUP1 CALLDATASIZE SUB DUP2 ADD SWAP1 PUSH2 0xE8 SWAP2 SWAP1 PUSH2 0x1A41 JUMP JUMPDEST PUSH2 0x2C9 JUMP JUMPDEST STOP JUMPDEST PUSH2 0x109 PUSH1 0x4 DUP1 CALLDATASIZE SUB DUP2 ADD SWAP1 PUSH2 0x104 SWAP2 SWAP1 PUSH2 0x1AAD JUMP JUMPDEST PUSH2 0x63B JUMP JUMPDEST PUSH1 0x40 MLOAD PUSH2 0x119 SWAP5 SWAP4 SWAP3 SWAP2 SWAP1 PUSH2 0x18A1 JUMP JUMPDEST PUSH1 0x40 MLOAD DUP1 SWAP2 SUB SWAP1 RETURN JUMPDEST PUSH2 0x12A PUSH2 0x718 JUMP JUMPDEST STOP JUMPDEST PUSH2 0x146 PUSH1 0x4 DUP1 CALLDATASIZE SUB DUP2 ADD SWAP1 PUSH2 0x141 SWAP2 SWAP1 PUSH2 0x1AAD JUMP JUMPDEST PUSH2 0x8DA JUMP JUMPDEST STOP JUMPDEST PUSH2 0x162 PUSH1 0x4 DUP1 CALLDATASIZE SUB DUP2 ADD SWAP1 PUSH2 0x15D SWAP2 SWAP1 PUSH2 0x1A41 JUMP JUMPDEST PUSH2 0xCE4 JUMP JUMPDEST STOP JUMPDEST PUSH2 0x16C PUSH2 0xF25 JUMP JUMPDEST STOP JUMPDEST PUSH2 0x188 PUSH1 0x4 DUP1 CALLDATASIZE SUB DUP2 ADD SWAP1 PUSH2 0x183 SWAP2 SWAP1 PUSH2 0x1784 JUMP JUMPDEST PUSH2 0x11DE JUMP JUMPDEST PUSH1 0x40 MLOAD PUSH2 0x198 SWAP5 SWAP4 SWAP3 SWAP2 SWAP1 PUSH2 0x18A1 JUMP JUMPDEST PUSH1 0x40 MLOAD DUP1 SWAP2 SUB SWAP1 RETURN JUMPDEST PUSH2 0x1BB PUSH1 0x4 DUP1 CALLDATASIZE SUB DUP2 ADD SWAP1 PUSH2 0x1B6 SWAP2 SWAP1 PUSH2 0x1AAD JUMP JUMPDEST PUSH2 0x12CA JUMP JUMPDEST PUSH1 0x40 MLOAD PUSH2 0x1CA SWAP4 SWAP3 SWAP2 SWAP1 PUSH2 0x1AD8 JUMP JUMPDEST PUSH1 0x40 MLOAD DUP1 SWAP2 SUB SWAP1 RETURN JUMPDEST PUSH2 0x1DB PUSH2 0x151A JUMP JUMPDEST STOP JUMPDEST PUSH1 0x4 DUP2 DUP2 SLOAD DUP2 LT PUSH2 0x1EC JUMPI PUSH0 DUP1 REVERT JUMPDEST SWAP1 PUSH0 MSTORE PUSH1 0x20 PUSH0 KECCAK256 SWAP1 PUSH1 0x4 MUL ADD PUSH0 SWAP2 POP SWAP1 POP DUP1 PUSH0 ADD PUSH0 SWAP1 SLOAD SWAP1 PUSH2 0x100 EXP SWAP1 DIV PUSH20 0xFFFFFFFFFFFFFFFFFFFFFFFFFFFFFFFFFFFFFFFF AND SWAP1 DUP1 PUSH1 0x1 ADD DUP1 SLOAD PUSH2 0x230 SWAP1 PUSH2 0x1B41 JUMP JUMPDEST DUP1 PUSH1 0x1F ADD PUSH1 0x20 DUP1 SWAP2 DIV MUL PUSH1 0x20 ADD PUSH1 0x40 MLOAD SWAP1 DUP2 ADD PUSH1 0x40 MSTORE DUP1 SWAP3 SWAP2 SWAP1 DUP2 DUP2 MSTORE PUSH1 0x20 ADD DUP3 DUP1 SLOAD PUSH2 0x25C SWAP1 PUSH2 0x1B41 JUMP JUMPDEST DUP1 ISZERO PUSH2 0x2A7 JUMPI DUP1 PUSH1 0x1F LT PUSH2 0x27E JUMPI PUSH2 0x100 DUP1 DUP4 SLOAD DIV MUL DUP4 MSTORE SWAP2 PUSH1 0x20 ADD SWAP2 PUSH2 0x2A7 JUMP JUMPDEST DUP3 ADD SWAP2 SWAP1 PUSH0 MSTORE PUSH1 0x20 PUSH0 KECCAK256 SWAP1 JUMPDEST DUP2 SLOAD DUP2 MSTORE SWAP1 PUSH1 0x1 ADD SWAP1 PUSH1 0x20 ADD DUP1 DUP4 GT PUSH2 0x28A JUMPI DUP3 SWAP1 SUB PUSH1 0x1F AND DUP3 ADD SWAP2 JUMPDEST POP POP POP POP POP SWAP1 DUP1 PUSH1 0x2 ADD SLOAD SWAP1 DUP1 PUSH1 0x3 ADD PUSH0 SWAP1 SLOAD SWAP1 PUSH2 0x100 EXP SWAP1 DIV PUSH1 0xFF AND SWAP1 POP DUP5 JUMP JUMPDEST PUSH0 DUP1 SLOAD SWAP1 PUSH2 0x100 EXP SWAP1 DIV PUSH20 0xFFFFFFFFFFFFFFFFFFFFFFFFFFFFFFFFFFFFFFFF AND PUSH20 0xFFFFFFFFFFFFFFFFFFFFFFFFFFFFFFFFFFFFFFFF AND CALLER PUSH20 0xFFFFFFFFFFFFFFFFFFFFFFFFFFFFFFFFFFFFFFFF AND EQ PUSH2 0x356 JUMPI PUSH1 0x40 MLOAD PUSH32 0x8C379A000000000000000000000000000000000000000000000000000000000 DUP2 MSTORE PUSH1 0x4 ADD PUSH2 0x34D SWAP1 PUSH2 0x1BE1 JUMP JUMPDEST PUSH1 0x40 MLOAD DUP1 SWAP2 SUB SWAP1 REVERT JUMPDEST PUSH0 JUMPDEST PUSH1 0x3 DUP1 SLOAD SWAP1 POP DUP2 LT ISZERO PUSH2 0x486 JUMPI DUP2 PUSH1 0x3 DUP3 DUP2 SLOAD DUP2 LT PUSH2 0x37A JUMPI PUSH2 0x379 PUSH2 0x1BFF JUMP JUMPDEST JUMPDEST SWAP1 PUSH0 MSTORE PUSH1 0x20 PUSH0 KECCAK256 SWAP1 PUSH1 0x4 MUL ADD PUSH1 0x2 ADD SLOAD SUB PUSH2 0x3CA JUMPI PUSH1 0x40 MLOAD PUSH32 0x8C379A000000000000000000000000000000000000000000000000000000000 DUP2 MSTORE PUSH1 0x4 ADD PUSH2 0x3C1 SWAP1 PUSH2 0x1C9C JUMP JUMPDEST PUSH1 0x40 MLOAD DUP1 SWAP2 SUB SWAP1 REVERT JUMPDEST DUP4 PUSH20 0xFFFFFFFFFFFFFFFFFFFFFFFFFFFFFFFFFFFFFFFF AND PUSH1 0x3 DUP3 DUP2 SLOAD DUP2 LT PUSH2 0x3F5 JUMPI PUSH2 0x3F4 PUSH2 0x1BFF JUMP JUMPDEST JUMPDEST SWAP1 PUSH0 MSTORE PUSH1 0x20 PUSH0 KECCAK256 SWAP1 PUSH1 0x4 MUL ADD PUSH0 ADD PUSH0 SWAP1 SLOAD SWAP1 PUSH2 0x100 EXP SWAP1 DIV PUSH20 0xFFFFFFFFFFFFFFFFFFFFFFFFFFFFFFFFFFFFFFFF AND PUSH20 0xFFFFFFFFFFFFFFFFFFFFFFFFFFFFFFFFFFFFFFFF AND SUB PUSH2 0x479 JUMPI PUSH1 0x40 MLOAD PUSH32 0x8C379A000000000000000000000000000000000000000000000000000000000 DUP2 MSTORE PUSH1 0x4 ADD PUSH2 0x470 SWAP1 PUSH2 0x1D2A JUMP JUMPDEST PUSH1 0x40 MLOAD DUP1 SWAP2 SUB SWAP1 REVERT JUMPDEST DUP1 DUP1 PUSH1 0x1 ADD SWAP2 POP POP PUSH2 0x358 JUMP JUMPDEST POP PUSH0 PUSH1 0x40 MLOAD DUP1 PUSH1 0x80 ADD PUSH1 0x40 MSTORE DUP1 DUP6 PUSH20 0xFFFFFFFFFFFFFFFFFFFFFFFFFFFFFFFFFFFFFFFF AND DUP2 MSTORE PUSH1 0x20 ADD DUP5 DUP2 MSTORE PUSH1 0x20 ADD DUP4 DUP2 MSTORE PUSH1 0x20 ADD PUSH0 ISZERO ISZERO DUP2 MSTORE POP SWAP1 POP DUP1 PUSH1 0x2 PUSH0 DUP7 PUSH20 0xFFFFFFFFFFFFFFFFFFFFFFFFFFFFFFFFFFFFFFFF AND PUSH20 0xFFFFFFFFFFFFFFFFFFFFFFFFFFFFFFFFFFFFFFFF AND DUP2 MSTORE PUSH1 0x20 ADD SWAP1 DUP2 MSTORE PUSH1 0x20 ADD PUSH0 KECCAK256 PUSH0 DUP3 ADD MLOAD DUP2 PUSH0 ADD PUSH0 PUSH2 0x100 EXP DUP2 SLOAD DUP2 PUSH20 0xFFFFFFFFFFFFFFFFFFFFFFFFFFFFFFFFFFFFFFFF MUL NOT AND SWAP1 DUP4 PUSH20 0xFFFFFFFFFFFFFFFFFFFFFFFFFFFFFFFFFFFFFFFF AND MUL OR SWAP1 SSTORE POP PUSH1 0x20 DUP3 ADD MLOAD DUP2 PUSH1 0x1 ADD SWAP1 DUP2 PUSH2 0x55A SWAP2 SWAP1 PUSH2 0x1EE5 JUMP JUMPDEST POP PUSH1 0x40 DUP3 ADD MLOAD DUP2 PUSH1 0x2 ADD SSTORE PUSH1 0x60 DUP3 ADD MLOAD DUP2 PUSH1 0x3 ADD PUSH0 PUSH2 0x100 EXP DUP2 SLOAD DUP2 PUSH1 0xFF MUL NOT AND SWAP1 DUP4 ISZERO ISZERO MUL OR SWAP1 SSTORE POP SWAP1 POP POP PUSH1 0x3 DUP2 SWAP1 DUP1 PUSH1 0x1 DUP2 SLOAD ADD DUP1 DUP3 SSTORE DUP1 SWAP2 POP POP PUSH1 0x1 SWAP1 SUB SWAP1 PUSH0 MSTORE PUSH1 0x20 PUSH0 KECCAK256 SWAP1 PUSH1 0x4 MUL ADD PUSH0 SWAP1 SWAP2 SWAP1 SWAP2 SWAP1 SWAP2 POP PUSH0 DUP3 ADD MLOAD DUP2 PUSH0 ADD PUSH0 PUSH2 0x100 EXP DUP2 SLOAD DUP2 PUSH20 0xFFFFFFFFFFFFFFFFFFFFFFFFFFFFFFFFFFFFFFFF MUL NOT AND SWAP1 DUP4 PUSH20 0xFFFFFFFFFFFFFFFFFFFFFFFFFFFFFFFFFFFFFFFF AND MUL OR SWAP1 SSTORE POP PUSH1 0x20 DUP3 ADD MLOAD DUP2 PUSH1 0x1 ADD SWAP1 DUP2 PUSH2 0x609 SWAP2 SWAP1 PUSH2 0x1EE5 JUMP JUMPDEST POP PUSH1 0x40 DUP3 ADD MLOAD DUP2 PUSH1 0x2 ADD SSTORE PUSH1 0x60 DUP3 ADD MLOAD DUP2 PUSH1 0x3 ADD PUSH0 PUSH2 0x100 EXP DUP2 SLOAD DUP2 PUSH1 0xFF MUL NOT AND SWAP1 DUP4 ISZERO ISZERO MUL OR SWAP1 SSTORE POP POP POP POP POP POP POP JUMP JUMPDEST PUSH1 0x2 PUSH1 0x20 MSTORE DUP1 PUSH0 MSTORE PUSH1 0x40 PUSH0 KECCAK256 PUSH0 SWAP2 POP SWAP1 POP DUP1 PUSH0 ADD PUSH0 SWAP1 SLOAD SWAP1 PUSH2 0x100 EXP SWAP1 DIV PUSH20 0xFFFFFFFFFFFFFFFFFFFFFFFFFFFFFFFFFFFFFFFF AND SWAP1 DUP1 PUSH1 0x1 ADD DUP1 SLOAD PUSH2 0x67F SWAP1 PUSH2 0x1B41 JUMP JUMPDEST DUP1 PUSH1 0x1F ADD PUSH1 0x20 DUP1 SWAP2 DIV MUL PUSH1 0x20 ADD PUSH1 0x40 MLOAD SWAP1 DUP2 ADD PUSH1 0x40 MSTORE DUP1 SWAP3 SWAP2 SWAP1 DUP2 DUP2 MSTORE PUSH1 0x20 ADD DUP3 DUP1 SLOAD PUSH2 0x6AB SWAP1 PUSH2 0x1B41 JUMP JUMPDEST DUP1 ISZERO PUSH2 0x6F6 JUMPI DUP1 PUSH1 0x1F LT PUSH2 0x6CD JUMPI PUSH2 0x100 DUP1 DUP4 SLOAD DIV MUL DUP4 MSTORE SWAP2 PUSH1 0x20 ADD SWAP2 PUSH2 0x6F6 JUMP JUMPDEST DUP3 ADD SWAP2 SWAP1 PUSH0 MSTORE PUSH1 0x20 PUSH0 KECCAK256 SWAP1 JUMPDEST DUP2 SLOAD DUP2 MSTORE SWAP1 PUSH1 0x1 ADD SWAP1 PUSH1 0x20 ADD DUP1 DUP4 GT PUSH2 0x6D9 JUMPI DUP3 SWAP1 SUB PUSH1 0x1F AND DUP3 ADD SWAP2 JUMPDEST POP POP POP POP POP SWAP1 DUP1 PUSH1 0x2 ADD SLOAD SWAP1 DUP1 PUSH1 0x3 ADD PUSH0 SWAP1 SLOAD SWAP1 PUSH2 0x100 EXP SWAP1 DIV PUSH1 0xFF AND SWAP1 POP DUP5 JUMP JUMPDEST PUSH0 JUMPDEST PUSH1 0x3 DUP1 SLOAD SWAP1 POP DUP2 LT ISZERO PUSH2 0x8D7 JUMPI PUSH1 0x3 DUP2 DUP2 SLOAD DUP2 LT PUSH2 0x73B JUMPI PUSH2 0x73A PUSH2 0x1BFF JUMP JUMPDEST JUMPDEST SWAP1 PUSH0 MSTORE PUSH1 0x20 PUSH0 KECCAK256 SWAP1 PUSH1 0x4 MUL ADD PUSH0 ADD PUSH0 SWAP1 SLOAD SWAP1 PUSH2 0x100 EXP SWAP1 DIV PUSH20 0xFFFFFFFFFFFFFFFFFFFFFFFFFFFFFFFFFFFFFFFF AND PUSH20 0xFFFFFFFFFFFFFFFFFFFFFFFFFFFFFFFFFFFFFFFF AND CALLER PUSH20 0xFFFFFFFFFFFFFFFFFFFFFFFFFFFFFFFFFFFFFFFF AND EQ PUSH2 0x7D6 JUMPI PUSH1 0x40 MLOAD PUSH32 0x8C379A000000000000000000000000000000000000000000000000000000000 DUP2 MSTORE PUSH1 0x4 ADD PUSH2 0x7CD SWAP1 PUSH2 0x1FFE JUMP JUMPDEST PUSH1 0x40 MLOAD DUP1 SWAP2 SUB SWAP1 REVERT JUMPDEST PUSH1 0x1 ISZERO ISZERO PUSH1 0x3 DUP3 DUP2 SLOAD DUP2 LT PUSH2 0x7EE JUMPI PUSH2 0x7ED PUSH2 0x1BFF JUMP JUMPDEST JUMPDEST SWAP1 PUSH0 MSTORE PUSH1 0x20 PUSH0 KECCAK256 SWAP1 PUSH1 0x4 MUL ADD PUSH1 0x3 ADD PUSH0 SWAP1 SLOAD SWAP1 PUSH2 0x100 EXP SWAP1 DIV PUSH1 0xFF AND ISZERO ISZERO EQ PUSH2 0x84C JUMPI PUSH1 0x40 MLOAD PUSH32 0x8C379A000000000000000000000000000000000000000000000000000000000 DUP2 MSTORE PUSH1 0x4 ADD PUSH2 0x843 SWAP1 PUSH2 0x2066 JUMP JUMPDEST PUSH1 0x40 MLOAD DUP1 SWAP2 SUB SWAP1 REVERT JUMPDEST PUSH0 PUSH1 0x3 DUP3 DUP2 SLOAD DUP2 LT PUSH2 0x861 JUMPI PUSH2 0x860 PUSH2 0x1BFF JUMP JUMPDEST JUMPDEST SWAP1 PUSH0 MSTORE PUSH1 0x20 PUSH0 KECCAK256 SWAP1 PUSH1 0x4 MUL ADD PUSH1 0x3 ADD PUSH0 PUSH2 0x100 EXP DUP2 SLOAD DUP2 PUSH1 0xFF MUL NOT AND SWAP1 DUP4 ISZERO ISZERO MUL OR SWAP1 SSTORE POP CALLER PUSH20 0xFFFFFFFFFFFFFFFFFFFFFFFFFFFFFFFFFFFFFFFF AND TIMESTAMP PUSH32 0x80BC357386C693C2D6AD5938AF6765EACD7D7790C17E39C014AB30DEF6394165 PUSH1 0x40 MLOAD PUSH1 0x40 MLOAD DUP1 SWAP2 SUB SWAP1 LOG3 DUP1 DUP1 PUSH1 0x1 ADD SWAP2 POP POP PUSH2 0x71A JUMP JUMPDEST POP JUMP JUMPDEST PUSH0 DUP1 SLOAD SWAP1 PUSH2 0x100 EXP SWAP1 DIV PUSH20 0xFFFFFFFFFFFFFFFFFFFFFFFFFFFFFFFFFFFFFFFF AND PUSH20 0xFFFFFFFFFFFFFFFFFFFFFFFFFFFFFFFFFFFFFFFF AND CALLER PUSH20 0xFFFFFFFFFFFFFFFFFFFFFFFFFFFFFFFFFFFFFFFF AND EQ PUSH2 0x967 JUMPI PUSH1 0x40 MLOAD PUSH32 0x8C379A000000000000000000000000000000000000000000000000000000000 DUP2 MSTORE PUSH1 0x4 ADD PUSH2 0x95E SWAP1 PUSH2 0x1BE1 JUMP JUMPDEST PUSH1 0x40 MLOAD DUP1 SWAP2 SUB SWAP1 REVERT JUMPDEST PUSH0 DUP1 PUSH0 SWAP1 POP JUMPDEST PUSH1 0x3 DUP1 SLOAD SWAP1 POP DUP2 LT ISZERO PUSH2 0xAB2 JUMPI DUP3 PUSH20 0xFFFFFFFFFFFFFFFFFFFFFFFFFFFFFFFFFFFFFFFF AND PUSH1 0x3 DUP3 DUP2 SLOAD DUP2 LT PUSH2 0x9A5 JUMPI PUSH2 0x9A4 PUSH2 0x1BFF JUMP JUMPDEST JUMPDEST SWAP1 PUSH0 MSTORE PUSH1 0x20 PUSH0 KECCAK256 SWAP1 PUSH1 0x4 MUL ADD PUSH0 ADD PUSH0 SWAP1 SLOAD SWAP1 PUSH2 0x100 EXP SWAP1 DIV PUSH20 0xFFFFFFFFFFFFFFFFFFFFFFFFFFFFFFFFFFFFFFFF AND PUSH20 0xFFFFFFFFFFFFFFFFFFFFFFFFFFFFFFFFFFFFFFFF AND EQ PUSH2 0xA29 JUMPI PUSH1 0x40 MLOAD PUSH32 0x8C379A000000000000000000000000000000000000000000000000000000000 DUP2 MSTORE PUSH1 0x4 ADD PUSH2 0xA20 SWAP1 PUSH2 0x20CE JUMP JUMPDEST PUSH1 0x40 MLOAD DUP1 SWAP2 SUB SWAP1 REVERT JUMPDEST DUP3 PUSH20 0xFFFFFFFFFFFFFFFFFFFFFFFFFFFFFFFFFFFFFFFF AND PUSH1 0x3 DUP3 DUP2 SLOAD DUP2 LT PUSH2 0xA54 JUMPI PUSH2 0xA53 PUSH2 0x1BFF JUMP JUMPDEST JUMPDEST SWAP1 PUSH0 MSTORE PUSH1 0x20 PUSH0 KECCAK256 SWAP1 PUSH1 0x4 MUL ADD PUSH0 ADD PUSH0 SWAP1 SLOAD SWAP1 PUSH2 0x100 EXP SWAP1 DIV PUSH20 0xFFFFFFFFFFFFFFFFFFFFFFFFFFFFFFFFFFFFFFFF AND PUSH20 0xFFFFFFFFFFFFFFFFFFFFFFFFFFFFFFFFFFFFFFFF AND SUB PUSH2 0xAA5 JUMPI DUP1 SWAP2 POP PUSH2 0xAB2 JUMP JUMPDEST DUP1 DUP1 PUSH1 0x1 ADD SWAP2 POP POP PUSH2 0x96D JUMP JUMPDEST POP PUSH0 DUP2 SWAP1 POP JUMPDEST PUSH1 0x1 PUSH1 0x3 DUP1 SLOAD SWAP1 POP PUSH2 0xACA SWAP2 SWAP1 PUSH2 0x2119 JUMP JUMPDEST DUP2 LT ISZERO PUSH2 0xBDA JUMPI PUSH1 0x3 PUSH1 0x1 DUP3 PUSH2 0xAE0 SWAP2 SWAP1 PUSH2 0x214C JUMP JUMPDEST DUP2 SLOAD DUP2 LT PUSH2 0xAF1 JUMPI PUSH2 0xAF0 PUSH2 0x1BFF JUMP JUMPDEST JUMPDEST SWAP1 PUSH0 MSTORE PUSH1 0x20 PUSH0 KECCAK256 SWAP1 PUSH1 0x4 MUL ADD PUSH1 0x3 DUP3 DUP2 SLOAD DUP2 LT PUSH2 0xB11 JUMPI PUSH2 0xB10 PUSH2 0x1BFF JUMP JUMPDEST JUMPDEST SWAP1 PUSH0 MSTORE PUSH1 0x20 PUSH0 KECCAK256 SWAP1 PUSH1 0x4 MUL ADD PUSH0 DUP3 ADD PUSH0 SWAP1 SLOAD SWAP1 PUSH2 0x100 EXP SWAP1 DIV PUSH20 0xFFFFFFFFFFFFFFFFFFFFFFFFFFFFFFFFFFFFFFFF AND DUP2 PUSH0 ADD PUSH0 PUSH2 0x100 EXP DUP2 SLOAD DUP2 PUSH20 0xFFFFFFFFFFFFFFFFFFFFFFFFFFFFFFFFFFFFFFFF MUL NOT AND SWAP1 DUP4 PUSH20 0xFFFFFFFFFFFFFFFFFFFFFFFFFFFFFFFFFFFFFFFF AND MUL OR SWAP1 SSTORE POP PUSH1 0x1 DUP3 ADD DUP2 PUSH1 0x1 ADD SWAP1 DUP2 PUSH2 0xB94 SWAP2 SWAP1 PUSH2 0x2194 JUMP JUMPDEST POP PUSH1 0x2 DUP3 ADD SLOAD DUP2 PUSH1 0x2 ADD SSTORE PUSH1 0x3 DUP3 ADD PUSH0 SWAP1 SLOAD SWAP1 PUSH2 0x100 EXP SWAP1 DIV PUSH1 0xFF AND DUP2 PUSH1 0x3 ADD PUSH0 PUSH2 0x100 EXP DUP2 SLOAD DUP2 PUSH1 0xFF MUL NOT AND SWAP1 DUP4 ISZERO ISZERO MUL OR SWAP1 SSTORE POP SWAP1 POP POP DUP1 DUP1 PUSH1 0x1 ADD SWAP2 POP POP PUSH2 0xAB8 JUMP JUMPDEST POP PUSH1 0x3 DUP1 SLOAD DUP1 PUSH2 0xBED JUMPI PUSH2 0xBEC PUSH2 0x2279 JUMP JUMPDEST JUMPDEST PUSH1 0x1 SWAP1 SUB DUP2 DUP2 SWAP1 PUSH0 MSTORE PUSH1 0x20 PUSH0 KECCAK256 SWAP1 PUSH1 0x4 MUL ADD PUSH0 DUP1 DUP3 ADD PUSH0 PUSH2 0x100 EXP DUP2 SLOAD SWAP1 PUSH20 0xFFFFFFFFFFFFFFFFFFFFFFFFFFFFFFFFFFFFFFFF MUL NOT AND SWAP1 SSTORE PUSH1 0x1 DUP3 ADD PUSH0 PUSH2 0xC34 SWAP2 SWAP1 PUSH2 0x16E8 JUMP JUMPDEST PUSH1 0x2 DUP3 ADD PUSH0 SWAP1 SSTORE PUSH1 0x3 DUP3 ADD PUSH0 PUSH2 0x100 EXP DUP2 SLOAD SWAP1 PUSH1 0xFF MUL NOT AND SWAP1 SSTORE POP POP SWAP1 SSTORE PUSH1 0x2 PUSH0 DUP4 PUSH20 0xFFFFFFFFFFFFFFFFFFFFFFFFFFFFFFFFFFFFFFFF AND PUSH20 0xFFFFFFFFFFFFFFFFFFFFFFFFFFFFFFFFFFFFFFFF AND DUP2 MSTORE PUSH1 0x20 ADD SWAP1 DUP2 MSTORE PUSH1 0x20 ADD PUSH0 KECCAK256 PUSH0 DUP1 DUP3 ADD PUSH0 PUSH2 0x100 EXP DUP2 SLOAD SWAP1 PUSH20 0xFFFFFFFFFFFFFFFFFFFFFFFFFFFFFFFFFFFFFFFF MUL NOT AND SWAP1 SSTORE PUSH1 0x1 DUP3 ADD PUSH0 PUSH2 0xCC4 SWAP2 SWAP1 PUSH2 0x16E8 JUMP JUMPDEST PUSH1 0x2 DUP3 ADD PUSH0 SWAP1 SSTORE PUSH1 0x3 DUP3 ADD PUSH0 PUSH2 0x100 EXP DUP2 SLOAD SWAP1 PUSH1 0xFF MUL NOT AND SWAP1 SSTORE POP POP POP POP JUMP JUMPDEST PUSH0 DUP1 SLOAD SWAP1 PUSH2 0x100 EXP SWAP1 DIV PUSH20 0xFFFFFFFFFFFFFFFFFFFFFFFFFFFFFFFFFFFFFFFF AND PUSH20 0xFFFFFFFFFFFFFFFFFFFFFFFFFFFFFFFFFFFFFFFF AND CALLER PUSH20 0xFFFFFFFFFFFFFFFFFFFFFFFFFFFFFFFFFFFFFFFF AND EQ PUSH2 0xD71 JUMPI PUSH1 0x40 MLOAD PUSH32 0x8C379A000000000000000000000000000000000000000000000000000000000 DUP2 MSTORE PUSH1 0x4 ADD PUSH2 0xD68 SWAP1 PUSH2 0x1BE1 JUMP JUMPDEST PUSH1 0x40 MLOAD DUP1 SWAP2 SUB SWAP1 REVERT JUMPDEST PUSH0 JUMPDEST PUSH1 0x3 DUP1 SLOAD SWAP1 POP DUP2 LT ISZERO PUSH2 0xECF JUMPI DUP4 PUSH20 0xFFFFFFFFFFFFFFFFFFFFFFFFFFFFFFFFFFFFFFFF AND PUSH1 0x3 DUP3 DUP2 SLOAD DUP2 LT PUSH2 0xDAB JUMPI PUSH2 0xDAA PUSH2 0x1BFF JUMP JUMPDEST JUMPDEST SWAP1 PUSH0 MSTORE PUSH1 0x20 PUSH0 KECCAK256 SWAP1 PUSH1 0x4 MUL ADD PUSH0 ADD PUSH0 SWAP1 SLOAD SWAP1 PUSH2 0x100 EXP SWAP1 DIV PUSH20 0xFFFFFFFFFFFFFFFFFFFFFFFFFFFFFFFFFFFFFFFF AND PUSH20 0xFFFFFFFFFFFFFFFFFFFFFFFFFFFFFFFFFFFFFFFF AND EQ PUSH2 0xE2F JUMPI PUSH1 0x40 MLOAD PUSH32 0x8C379A000000000000000000000000000000000000000000000000000000000 DUP2 MSTORE PUSH1 0x4 ADD PUSH2 0xE26 SWAP1 PUSH2 0x20CE JUMP JUMPDEST PUSH1 0x40 MLOAD DUP1 SWAP2 SUB SWAP1 REVERT JUMPDEST DUP3 PUSH1 0x2 PUSH0 DUP7 PUSH20 0xFFFFFFFFFFFFFFFFFFFFFFFFFFFFFFFFFFFFFFFF AND PUSH20 0xFFFFFFFFFFFFFFFFFFFFFFFFFFFFFFFFFFFFFFFF AND DUP2 MSTORE PUSH1 0x20 ADD SWAP1 DUP2 MSTORE PUSH1 0x20 ADD PUSH0 KECCAK256 PUSH1 0x1 ADD SWAP1 DUP2 PUSH2 0xE7C SWAP2 SWAP1 PUSH2 0x1EE5 JUMP JUMPDEST POP DUP2 PUSH1 0x2 PUSH0 DUP7 PUSH20 0xFFFFFFFFFFFFFFFFFFFFFFFFFFFFFFFFFFFFFFFF AND PUSH20 0xFFFFFFFFFFFFFFFFFFFFFFFFFFFFFFFFFFFFFFFF AND DUP2 MSTORE PUSH1 0x20 ADD SWAP1 DUP2 MSTORE PUSH1 0x20 ADD PUSH0 KECCAK256 PUSH1 0x2 ADD DUP2 SWAP1 SSTORE POP DUP1 DUP1 PUSH1 0x1 ADD SWAP2 POP POP PUSH2 0xD73 JUMP JUMPDEST POP CALLER PUSH20 0xFFFFFFFFFFFFFFFFFFFFFFFFFFFFFFFFFFFFFFFF AND PUSH32 0xDCB94C0B2C025B0736B4B62B1C595F2CA7AD4C711EADA6026D477E87DE9CCA08 DUP4 DUP4 PUSH1 0x40 MLOAD PUSH2 0xF18 SWAP3 SWAP2 SWAP1 PUSH2 0x22A6 JUMP JUMPDEST PUSH1 0x40 MLOAD DUP1 SWAP2 SUB SWAP1 LOG2 POP POP POP JUMP JUMPDEST PUSH0 JUMPDEST PUSH1 0x3 DUP1 SLOAD SWAP1 POP DUP2 LT ISZERO PUSH2 0x11DB JUMPI PUSH1 0x3 DUP2 DUP2 SLOAD DUP2 LT PUSH2 0xF48 JUMPI PUSH2 0xF47 PUSH2 0x1BFF JUMP JUMPDEST JUMPDEST SWAP1 PUSH0 MSTORE PUSH1 0x20 PUSH0 KECCAK256 SWAP1 PUSH1 0x4 MUL ADD PUSH0 ADD PUSH0 SWAP1 SLOAD SWAP1 PUSH2 0x100 EXP SWAP1 DIV PUSH20 0xFFFFFFFFFFFFFFFFFFFFFFFFFFFFFFFFFFFFFFFF AND PUSH20 0xFFFFFFFFFFFFFFFFFFFFFFFFFFFFFFFFFFFFFFFF AND CALLER PUSH20 0xFFFFFFFFFFFFFFFFFFFFFFFFFFFFFFFFFFFFFFFF AND EQ PUSH2 0xFE3 JUMPI PUSH1 0x40 MLOAD PUSH32 0x8C379A000000000000000000000000000000000000000000000000000000000 DUP2 MSTORE PUSH1 0x4 ADD PUSH2 0xFDA SWAP1 PUSH2 0x1FFE JUMP JUMPDEST PUSH1 0x40 MLOAD DUP1 SWAP2 SUB SWAP1 REVERT JUMPDEST PUSH0 ISZERO ISZERO PUSH1 0x3 DUP3 DUP2 SLOAD DUP2 LT PUSH2 0xFFA JUMPI PUSH2 0xFF9 PUSH2 0x1BFF JUMP JUMPDEST JUMPDEST SWAP1 PUSH0 MSTORE PUSH1 0x20 PUSH0 KECCAK256 SWAP1 PUSH1 0x4 MUL ADD PUSH1 0x3 ADD PUSH0 SWAP1 SLOAD SWAP1 PUSH2 0x100 EXP SWAP1 DIV PUSH1 0xFF AND ISZERO ISZERO EQ PUSH2 0x1058 JUMPI PUSH1 0x40 MLOAD PUSH32 0x8C379A000000000000000000000000000000000000000000000000000000000 DUP2 MSTORE PUSH1 0x4 ADD PUSH2 0x104F SWAP1 PUSH2 0x231E JUMP JUMPDEST PUSH1 0x40 MLOAD DUP1 SWAP2 SUB SWAP1 REVERT JUMPDEST PUSH1 0x1 PUSH1 0x3 DUP3 DUP2 SLOAD DUP2 LT PUSH2 0x106E JUMPI PUSH2 0x106D PUSH2 0x1BFF JUMP JUMPDEST JUMPDEST SWAP1 PUSH0 MSTORE PUSH1 0x20 PUSH0 KECCAK256 SWAP1 PUSH1 0x4 MUL ADD PUSH1 0x3 ADD PUSH0 PUSH2 0x100 EXP DUP2 SLOAD DUP2 PUSH1 0xFF MUL NOT AND SWAP1 DUP4 ISZERO ISZERO MUL OR SWAP1 SSTORE POP PUSH1 0x4 PUSH1 0x3 DUP3 DUP2 SLOAD DUP2 LT PUSH2 0x10A9 JUMPI PUSH2 0x10A8 PUSH2 0x1BFF JUMP JUMPDEST JUMPDEST SWAP1 PUSH0 MSTORE PUSH1 0x20 PUSH0 KECCAK256 SWAP1 PUSH1 0x4 MUL ADD SWAP1 DUP1 PUSH1 0x1 DUP2 SLOAD ADD DUP1 DUP3 SSTORE DUP1 SWAP2 POP POP PUSH1 0x1 SWAP1 SUB SWAP1 PUSH0 MSTORE PUSH1 0x20 PUSH0 KECCAK256 SWAP1 PUSH1 0x4 MUL ADD PUSH0 SWAP1 SWAP2 SWAP1 SWAP2 SWAP1 SWAP2 POP PUSH0 DUP3 ADD PUSH0 SWAP1 SLOAD SWAP1 PUSH2 0x100 EXP SWAP1 DIV PUSH20 0xFFFFFFFFFFFFFFFFFFFFFFFFFFFFFFFFFFFFFFFF AND DUP2 PUSH0 ADD PUSH0 PUSH2 0x100 EXP DUP2 SLOAD DUP2 PUSH20 0xFFFFFFFFFFFFFFFFFFFFFFFFFFFFFFFFFFFFFFFF MUL NOT AND SWAP1 DUP4 PUSH20 0xFFFFFFFFFFFFFFFFFFFFFFFFFFFFFFFFFFFFFFFF AND MUL OR SWAP1 SSTORE POP PUSH1 0x1 DUP3 ADD DUP2 PUSH1 0x1 ADD SWAP1 DUP2 PUSH2 0x1152 SWAP2 SWAP1 PUSH2 0x2194 JUMP JUMPDEST POP PUSH1 0x2 DUP3 ADD SLOAD DUP2 PUSH1 0x2 ADD SSTORE PUSH1 0x3 DUP3 ADD PUSH0 SWAP1 SLOAD SWAP1 PUSH2 0x100 EXP SWAP1 DIV PUSH1 0xFF AND DUP2 PUSH1 0x3 ADD PUSH0 PUSH2 0x100 EXP DUP2 SLOAD DUP2 PUSH1 0xFF MUL NOT AND SWAP1 DUP4 ISZERO ISZERO MUL OR SWAP1 SSTORE POP POP POP CALLER PUSH20 0xFFFFFFFFFFFFFFFFFFFFFFFFFFFFFFFFFFFFFFFF AND TIMESTAMP PUSH32 0x80BC357386C693C2D6AD5938AF6765EACD7D7790C17E39C014AB30DEF6394165 PUSH1 0x40 MLOAD PUSH1 0x40 MLOAD DUP1 SWAP2 SUB SWAP1 LOG3 DUP1 DUP1 PUSH1 0x1 ADD SWAP2 POP POP PUSH2 0xF27 JUMP JUMPDEST POP JUMP JUMPDEST PUSH1 0x3 DUP2 DUP2 SLOAD DUP2 LT PUSH2 0x11ED JUMPI PUSH0 DUP1 REVERT JUMPDEST SWAP1 PUSH0 MSTORE PUSH1 0x20 PUSH0 KECCAK256 SWAP1 PUSH1 0x4 MUL ADD PUSH0 SWAP2 POP SWAP1 POP DUP1 PUSH0 ADD PUSH0 SWAP1 SLOAD SWAP1 PUSH2 0x100 EXP SWAP1 DIV PUSH20 0xFFFFFFFFFFFFFFFFFFFFFFFFFFFFFFFFFFFFFFFF AND SWAP1 DUP1 PUSH1 0x1 ADD DUP1 SLOAD PUSH2 0x1231 SWAP1 PUSH2 0x1B41 JUMP JUMPDEST DUP1 PUSH1 0x1F ADD PUSH1 0x20 DUP1 SWAP2 DIV MUL PUSH1 0x20 ADD PUSH1 0x40 MLOAD SWAP1 DUP2 ADD PUSH1 0x40 MSTORE DUP1 SWAP3 SWAP2 SWAP1 DUP2 DUP2 MSTORE PUSH1 0x20 ADD DUP3 DUP1 SLOAD PUSH2 0x125D SWAP1 PUSH2 0x1B41 JUMP JUMPDEST DUP1 ISZERO PUSH2 0x12A8 JUMPI DUP1 PUSH1 0x1F LT PUSH2 0x127F JUMPI PUSH2 0x100 DUP1 DUP4 SLOAD DIV MUL DUP4 MSTORE SWAP2 PUSH1 0x20 ADD SWAP2 PUSH2 0x12A8 JUMP JUMPDEST DUP3 ADD SWAP2 SWAP1 PUSH0 MSTORE PUSH1 0x20 PUSH0 KECCAK256 SWAP1 JUMPDEST DUP2 SLOAD DUP2 MSTORE SWAP1 PUSH1 0x1 ADD SWAP1 PUSH1 0x20 ADD DUP1 DUP4 GT PUSH2 0x128B JUMPI DUP3 SWAP1 SUB PUSH1 0x1F AND DUP3 ADD SWAP2 JUMPDEST POP POP POP POP POP SWAP1 DUP1 PUSH1 0x2 ADD SLOAD SWAP1 DUP1 PUSH1 0x3 ADD PUSH0 SWAP1 SLOAD SWAP1 PUSH2 0x100 EXP SWAP1 DIV PUSH1 0xFF AND SWAP1 POP DUP5 JUMP JUMPDEST PUSH1 0x60 PUSH0 DUP1 PUSH0 DUP1 SLOAD SWAP1 PUSH2 0x100 EXP SWAP1 DIV PUSH20 0xFFFFFFFFFFFFFFFFFFFFFFFFFFFFFFFFFFFFFFFF AND PUSH20 0xFFFFFFFFFFFFFFFFFFFFFFFFFFFFFFFFFFFFFFFF AND CALLER PUSH20 0xFFFFFFFFFFFFFFFFFFFFFFFFFFFFFFFFFFFFFFFF AND EQ PUSH2 0x135B JUMPI PUSH1 0x40 MLOAD PUSH32 0x8C379A000000000000000000000000000000000000000000000000000000000 DUP2 MSTORE PUSH1 0x4 ADD PUSH2 0x1352 SWAP1 PUSH2 0x1BE1 JUMP JUMPDEST PUSH1 0x40 MLOAD DUP1 SWAP2 SUB SWAP1 REVERT JUMPDEST PUSH0 JUMPDEST PUSH1 0x3 DUP1 SLOAD SWAP1 POP DUP2 LT ISZERO PUSH2 0x14F8 JUMPI PUSH1 0x3 DUP2 DUP2 SLOAD DUP2 LT PUSH2 0x137E JUMPI PUSH2 0x137D PUSH2 0x1BFF JUMP JUMPDEST JUMPDEST SWAP1 PUSH0 MSTORE PUSH1 0x20 PUSH0 KECCAK256 SWAP1 PUSH1 0x4 MUL ADD PUSH0 ADD PUSH0 SWAP1 SLOAD SWAP1 PUSH2 0x100 EXP SWAP1 DIV PUSH20 0xFFFFFFFFFFFFFFFFFFFFFFFFFFFFFFFFFFFFFFFF AND PUSH20 0xFFFFFFFFFFFFFFFFFFFFFFFFFFFFFFFFFFFFFFFF AND DUP6 PUSH20 0xFFFFFFFFFFFFFFFFFFFFFFFFFFFFFFFFFFFFFFFF AND SUB PUSH2 0x14EB JUMPI PUSH1 0x3 DUP2 DUP2 SLOAD DUP2 LT PUSH2 0x13F2 JUMPI PUSH2 0x13F1 PUSH2 0x1BFF JUMP JUMPDEST JUMPDEST SWAP1 PUSH0 MSTORE PUSH1 0x20 PUSH0 KECCAK256 SWAP1 PUSH1 0x4 MUL ADD PUSH1 0x1 ADD PUSH1 0x3 DUP3 DUP2 SLOAD DUP2 LT PUSH2 0x1415 JUMPI PUSH2 0x1414 PUSH2 0x1BFF JUMP JUMPDEST JUMPDEST SWAP1 PUSH0 MSTORE PUSH1 0x20 PUSH0 KECCAK256 SWAP1 PUSH1 0x4 MUL ADD PUSH1 0x2 ADD SLOAD PUSH1 0x3 DUP4 DUP2 SLOAD DUP2 LT PUSH2 0x1439 JUMPI PUSH2 0x1438 PUSH2 0x1BFF JUMP JUMPDEST JUMPDEST SWAP1 PUSH0 MSTORE PUSH1 0x20 PUSH0 KECCAK256 SWAP1 PUSH1 0x4 MUL ADD PUSH1 0x3 ADD PUSH0 SWAP1 SLOAD SWAP1 PUSH2 0x100 EXP SWAP1 DIV PUSH1 0xFF AND DUP3 DUP1 SLOAD PUSH2 0x1461 SWAP1 PUSH2 0x1B41 JUMP JUMPDEST DUP1 PUSH1 0x1F ADD PUSH1 0x20 DUP1 SWAP2 DIV MUL PUSH1 0x20 ADD PUSH1 0x40 MLOAD SWAP1 DUP2 ADD PUSH1 0x40 MSTORE DUP1 SWAP3 SWAP2 SWAP1 DUP2 DUP2 MSTORE PUSH1 0x20 ADD DUP3 DUP1 SLOAD PUSH2 0x148D SWAP1 PUSH2 0x1B41 JUMP JUMPDEST DUP1 ISZERO PUSH2 0x14D8 JUMPI DUP1 PUSH1 0x1F LT PUSH2 0x14AF JUMPI PUSH2 0x100 DUP1 DUP4 SLOAD DIV MUL DUP4 MSTORE SWAP2 PUSH1 0x20 ADD SWAP2 PUSH2 0x14D8 JUMP JUMPDEST DUP3 ADD SWAP2 SWAP1 PUSH0 MSTORE PUSH1 0x20 PUSH0 KECCAK256 SWAP1 JUMPDEST DUP2 SLOAD DUP2 MSTORE SWAP1 PUSH1 0x1 ADD SWAP1 PUSH1 0x20 ADD DUP1 DUP4 GT PUSH2 0x14BB JUMPI DUP3 SWAP1 SUB PUSH1 0x1F AND DUP3 ADD SWAP2 JUMPDEST POP POP POP POP POP SWAP3 POP SWAP4 POP SWAP4 POP SWAP4 POP POP PUSH2 0x1513 JUMP JUMPDEST DUP1 DUP1 PUSH1 0x1 ADD SWAP2 POP POP PUSH2 0x135D JUMP JUMPDEST POP PUSH0 DUP1 PUSH1 0x40 MLOAD DUP1 PUSH1 0x20 ADD PUSH1 0x40 MSTORE DUP1 PUSH0 DUP2 MSTORE POP SWAP2 SWAP1 SWAP3 POP SWAP3 POP SWAP3 POP JUMPDEST SWAP2 SWAP4 SWAP1 SWAP3 POP JUMP JUMPDEST PUSH0 DUP1 SLOAD SWAP1 PUSH2 0x100 EXP SWAP1 DIV PUSH20 0xFFFFFFFFFFFFFFFFFFFFFFFFFFFFFFFFFFFFFFFF AND PUSH20 0xFFFFFFFFFFFFFFFFFFFFFFFFFFFFFFFFFFFFFFFF AND CALLER PUSH20 0xFFFFFFFFFFFFFFFFFFFFFFFFFFFFFFFFFFFFFFFF AND EQ PUSH2 0x15A7 JUMPI PUSH1 0x40 MLOAD PUSH32 0x8C379A000000000000000000000000000000000000000000000000000000000 DUP2 MSTORE PUSH1 0x4 ADD PUSH2 0x159E SWAP1 PUSH2 0x1BE1 JUMP JUMPDEST PUSH1 0x40 MLOAD DUP1 SWAP2 SUB SWAP1 REVERT JUMPDEST PUSH3 0x11940 PUSH1 0x1 SLOAD PUSH2 0x15B8 SWAP2 SWAP1 PUSH2 0x214C JUMP JUMPDEST TIMESTAMP LT ISZERO PUSH2 0x15FA JUMPI PUSH1 0x40 MLOAD PUSH32 0x8C379A000000000000000000000000000000000000000000000000000000000 DUP2 MSTORE PUSH1 0x4 ADD PUSH2 0x15F1 SWAP1 PUSH2 0x23AC JUMP JUMPDEST PUSH1 0x40 MLOAD DUP1 SWAP2 SUB SWAP1 REVERT JUMPDEST PUSH0 JUMPDEST PUSH1 0x3 DUP1 SLOAD SWAP1 POP DUP2 LT ISZERO PUSH2 0x1650 JUMPI PUSH0 PUSH1 0x3 DUP3 DUP2 SLOAD DUP2 LT PUSH2 0x161E JUMPI PUSH2 0x161D PUSH2 0x1BFF JUMP JUMPDEST JUMPDEST SWAP1 PUSH0 MSTORE PUSH1 0x20 PUSH0 KECCAK256 SWAP1 PUSH1 0x4 MUL ADD PUSH1 0x3 ADD PUSH0 PUSH2 0x100 EXP DUP2 SLOAD DUP2 PUSH1 0xFF MUL NOT AND SWAP1 DUP4 ISZERO ISZERO MUL OR SWAP1 SSTORE POP DUP1 DUP1 PUSH1 0x1 ADD SWAP2 POP POP PUSH2 0x15FC JUMP JUMPDEST POP PUSH0 JUMPDEST PUSH1 0x4 DUP1 SLOAD SWAP1 POP DUP2 LT ISZERO PUSH2 0x16DE JUMPI PUSH1 0x4 DUP2 DUP2 SLOAD DUP2 LT PUSH2 0x1674 JUMPI PUSH2 0x1673 PUSH2 0x1BFF JUMP JUMPDEST JUMPDEST SWAP1 PUSH0 MSTORE PUSH1 0x20 PUSH0 KECCAK256 SWAP1 PUSH1 0x4 MUL ADD PUSH0 DUP1 DUP3 ADD PUSH0 PUSH2 0x100 EXP DUP2 SLOAD SWAP1 PUSH20 0xFFFFFFFFFFFFFFFFFFFFFFFFFFFFFFFFFFFFFFFF MUL NOT AND SWAP1 SSTORE PUSH1 0x1 DUP3 ADD PUSH0 PUSH2 0x16B5 SWAP2 SWAP1 PUSH2 0x16E8 JUMP JUMPDEST PUSH1 0x2 DUP3 ADD PUSH0 SWAP1 SSTORE PUSH1 0x3 DUP3 ADD PUSH0 PUSH2 0x100 EXP DUP2 SLOAD SWAP1 PUSH1 0xFF MUL NOT AND SWAP1 SSTORE POP POP DUP1 DUP1 PUSH1 0x1 ADD SWAP2 POP POP PUSH2 0x1653 JUMP JUMPDEST POP TIMESTAMP PUSH1 0x1 DUP2 SWAP1 SSTORE POP JUMP JUMPDEST POP DUP1 SLOAD PUSH2 0x16F4 SWAP1 PUSH2 0x1B41 JUMP JUMPDEST PUSH0 DUP3 SSTORE DUP1 PUSH1 0x1F LT PUSH2 0x1705 JUMPI POP PUSH2 0x1722 JUMP JUMPDEST PUSH1 0x1F ADD PUSH1 0x20 SWAP1 DIV SWAP1 PUSH0 MSTORE PUSH1 0x20 PUSH0 KECCAK256 SWAP1 DUP2 ADD SWAP1 PUSH2 0x1721 SWAP2 SWAP1 PUSH2 0x1725 JUMP JUMPDEST JUMPDEST POP JUMP JUMPDEST JUMPDEST DUP1 DUP3 GT ISZERO PUSH2 0x173C JUMPI PUSH0 DUP2 PUSH0 SWAP1 SSTORE POP PUSH1 0x1 ADD PUSH2 0x1726 JUMP JUMPDEST POP SWAP1 JUMP JUMPDEST PUSH0 PUSH1 0x40 MLOAD SWAP1 POP SWAP1 JUMP JUMPDEST PUSH0 DUP1 REVERT JUMPDEST PUSH0 DUP1 REVERT JUMPDEST PUSH0 DUP2 SWAP1 POP SWAP2 SWAP1 POP JUMP JUMPDEST PUSH2 0x1763 DUP2 PUSH2 0x1751 JUMP JUMPDEST DUP2 EQ PUSH2 0x176D JUMPI PUSH0 DUP1 REVERT JUMPDEST POP JUMP JUMPDEST PUSH0 DUP2 CALLDATALOAD SWAP1 POP PUSH2 0x177E DUP2 PUSH2 0x175A JUMP JUMPDEST SWAP3 SWAP2 POP POP JUMP JUMPDEST PUSH0 PUSH1 0x20 DUP3 DUP5 SUB SLT ISZERO PUSH2 0x1799 JUMPI PUSH2 0x1798 PUSH2 0x1749 JUMP JUMPDEST JUMPDEST PUSH0 PUSH2 0x17A6 DUP5 DUP3 DUP6 ADD PUSH2 0x1770 JUMP JUMPDEST SWAP2 POP POP SWAP3 SWAP2 POP POP JUMP JUMPDEST PUSH0 PUSH20 0xFFFFFFFFFFFFFFFFFFFFFFFFFFFFFFFFFFFFFFFF DUP3 AND SWAP1 POP SWAP2 SWAP1 POP JUMP JUMPDEST PUSH0 PUSH2 0x17D8 DUP3 PUSH2 0x17AF JUMP JUMPDEST SWAP1 POP SWAP2 SWAP1 POP JUMP JUMPDEST PUSH2 0x17E8 DUP2 PUSH2 0x17CE JUMP JUMPDEST DUP3 MSTORE POP POP JUMP JUMPDEST PUSH0 DUP2 MLOAD SWAP1 POP SWAP2 SWAP1 POP JUMP JUMPDEST PUSH0 DUP3 DUP3 MSTORE PUSH1 0x20 DUP3 ADD SWAP1 POP SWAP3 SWAP2 POP POP JUMP JUMPDEST PUSH0 JUMPDEST DUP4 DUP2 LT ISZERO PUSH2 0x1825 JUMPI DUP1 DUP3 ADD MLOAD DUP2 DUP5 ADD MSTORE PUSH1 0x20 DUP2 ADD SWAP1 POP PUSH2 0x180A JUMP JUMPDEST PUSH0 DUP5 DUP5 ADD MSTORE POP POP POP POP JUMP JUMPDEST PUSH0 PUSH1 0x1F NOT PUSH1 0x1F DUP4 ADD AND SWAP1 POP SWAP2 SWAP1 POP JUMP JUMPDEST PUSH0 PUSH2 0x184A DUP3 PUSH2 0x17EE JUMP JUMPDEST PUSH2 0x1854 DUP2 DUP6 PUSH2 0x17F8 JUMP JUMPDEST SWAP4 POP PUSH2 0x1864 DUP2 DUP6 PUSH1 0x20 DUP7 ADD PUSH2 0x1808 JUMP JUMPDEST PUSH2 0x186D DUP2 PUSH2 0x1830 JUMP JUMPDEST DUP5 ADD SWAP2 POP POP SWAP3 SWAP2 POP POP JUMP JUMPDEST PUSH2 0x1881 DUP2 PUSH2 0x1751 JUMP JUMPDEST DUP3 MSTORE POP POP JUMP JUMPDEST PUSH0 DUP2 ISZERO ISZERO SWAP1 POP SWAP2 SWAP1 POP JUMP JUMPDEST PUSH2 0x189B DUP2 PUSH2 0x1887 JUMP JUMPDEST DUP3 MSTORE POP POP JUMP JUMPDEST PUSH0 PUSH1 0x80 DUP3 ADD SWAP1 POP PUSH2 0x18B4 PUSH0 DUP4 ADD DUP8 PUSH2 0x17DF JUMP JUMPDEST DUP2 DUP2 SUB PUSH1 0x20 DUP4 ADD MSTORE PUSH2 0x18C6 DUP2 DUP7 PUSH2 0x1840 JUMP JUMPDEST SWAP1 POP PUSH2 0x18D5 PUSH1 0x40 DUP4 ADD DUP6 PUSH2 0x1878 JUMP JUMPDEST PUSH2 0x18E2 PUSH1 0x60 DUP4 ADD DUP5 PUSH2 0x1892 JUMP JUMPDEST SWAP6 SWAP5 POP POP POP POP POP JUMP JUMPDEST PUSH2 0x18F4 DUP2 PUSH2 0x17CE JUMP JUMPDEST DUP2 EQ PUSH2 0x18FE JUMPI PUSH0 DUP1 REVERT JUMPDEST POP JUMP JUMPDEST PUSH0 DUP2 CALLDATALOAD SWAP1 POP PUSH2 0x190F DUP2 PUSH2 0x18EB JUMP JUMPDEST SWAP3 SWAP2 POP POP JUMP JUMPDEST PUSH0 DUP1 REVERT JUMPDEST PUSH0 DUP1 REVERT JUMPDEST PUSH32 0x4E487B7100000000000000000000000000000000000000000000000000000000 PUSH0 MSTORE PUSH1 0x41 PUSH1 0x4 MSTORE PUSH1 0x24 PUSH0 REVERT JUMPDEST PUSH2 0x1953 DUP3 PUSH2 0x1830 JUMP JUMPDEST DUP2 ADD DUP2 DUP2 LT PUSH8 0xFFFFFFFFFFFFFFFF DUP3 GT OR ISZERO PUSH2 0x1972 JUMPI PUSH2 0x1971 PUSH2 0x191D JUMP JUMPDEST JUMPDEST DUP1 PUSH1 0x40 MSTORE POP POP POP JUMP JUMPDEST PUSH0 PUSH2 0x1984 PUSH2 0x1740 JUMP JUMPDEST SWAP1 POP PUSH2 0x1990 DUP3 DUP3 PUSH2 0x194A JUMP JUMPDEST SWAP2 SWAP1 POP JUMP JUMPDEST PUSH0 PUSH8 0xFFFFFFFFFFFFFFFF DUP3 GT ISZERO PUSH2 0x19AF JUMPI PUSH2 0x19AE PUSH2 0x191D JUMP JUMPDEST JUMPDEST PUSH2 0x19B8 DUP3 PUSH2 0x1830 JUMP JUMPDEST SWAP1 POP PUSH1 0x20 DUP2 ADD SWAP1 POP SWAP2 SWAP1 POP JUMP JUMPDEST DUP3 DUP2 DUP4 CALLDATACOPY PUSH0 DUP4 DUP4 ADD MSTORE POP POP POP JUMP JUMPDEST PUSH0 PUSH2 0x19E5 PUSH2 0x19E0 DUP5 PUSH2 0x1995 JUMP JUMPDEST PUSH2 0x197B JUMP JUMPDEST SWAP1 POP DUP3 DUP2 MSTORE PUSH1 0x20 DUP2 ADD DUP5 DUP5 DUP5 ADD GT ISZERO PUSH2 0x1A01 JUMPI PUSH2 0x1A00 PUSH2 0x1919 JUMP JUMPDEST JUMPDEST PUSH2 0x1A0C DUP5 DUP3 DUP6 PUSH2 0x19C5 JUMP JUMPDEST POP SWAP4 SWAP3 POP POP POP JUMP JUMPDEST PUSH0 DUP3 PUSH1 0x1F DUP4 ADD SLT PUSH2 0x1A28 JUMPI PUSH2 0x1A27 PUSH2 0x1915 JUMP JUMPDEST JUMPDEST DUP2 CALLDATALOAD PUSH2 0x1A38 DUP5 DUP3 PUSH1 0x20 DUP7 ADD PUSH2 0x19D3 JUMP JUMPDEST SWAP2 POP POP SWAP3 SWAP2 POP POP JUMP JUMPDEST PUSH0 DUP1 PUSH0 PUSH1 0x60 DUP5 DUP7 SUB SLT ISZERO PUSH2 0x1A58 JUMPI PUSH2 0x1A57 PUSH2 0x1749 JUMP JUMPDEST JUMPDEST PUSH0 PUSH2 0x1A65 DUP7 DUP3 DUP8 ADD PUSH2 0x1901 JUMP JUMPDEST SWAP4 POP POP PUSH1 0x20 DUP5 ADD CALLDATALOAD PUSH8 0xFFFFFFFFFFFFFFFF DUP2 GT ISZERO PUSH2 0x1A86 JUMPI PUSH2 0x1A85 PUSH2 0x174D JUMP JUMPDEST JUMPDEST PUSH2 0x1A92 DUP7 DUP3 DUP8 ADD PUSH2 0x1A14 JUMP JUMPDEST SWAP3 POP POP PUSH1 0x40 PUSH2 0x1AA3 DUP7 DUP3 DUP8 ADD PUSH2 0x1770 JUMP JUMPDEST SWAP2 POP POP SWAP3 POP SWAP3 POP SWAP3 JUMP JUMPDEST PUSH0 PUSH1 0x20 DUP3 DUP5 SUB SLT ISZERO PUSH2 0x1AC2 JUMPI PUSH2 0x1AC1 PUSH2 0x1749 JUMP JUMPDEST JUMPDEST PUSH0 PUSH2 0x1ACF DUP5 DUP3 DUP6 ADD PUSH2 0x1901 JUMP JUMPDEST SWAP2 POP POP SWAP3 SWAP2 POP POP JUMP JUMPDEST PUSH0 PUSH1 0x60 DUP3 ADD SWAP1 POP DUP2 DUP2 SUB PUSH0 DUP4 ADD MSTORE PUSH2 0x1AF0 DUP2 DUP7 PUSH2 0x1840 JUMP JUMPDEST SWAP1 POP PUSH2 0x1AFF PUSH1 0x20 DUP4 ADD DUP6 PUSH2 0x1878 JUMP JUMPDEST PUSH2 0x1B0C PUSH1 0x40 DUP4 ADD DUP5 PUSH2 0x1892 JUMP JUMPDEST SWAP5 SWAP4 POP POP POP POP JUMP JUMPDEST PUSH32 0x4E487B7100000000000000000000000000000000000000000000000000000000 PUSH0 MSTORE PUSH1 0x22 PUSH1 0x4 MSTORE PUSH1 0x24 PUSH0 REVERT JUMPDEST PUSH0 PUSH1 0x2 DUP3 DIV SWAP1 POP PUSH1 0x1 DUP3 AND DUP1 PUSH2 0x1B58 JUMPI PUSH1 0x7F DUP3 AND SWAP2 POP JUMPDEST PUSH1 0x20 DUP3 LT DUP2 SUB PUSH2 0x1B6B JUMPI PUSH2 0x1B6A PUSH2 0x1B14 JUMP JUMPDEST JUMPDEST POP SWAP2 SWAP1 POP JUMP JUMPDEST PUSH32 0x4F6E6C792074686520426F73732063616E2063616C6C20746869732066756E63 PUSH0 DUP3 ADD MSTORE PUSH32 0x74696F6E00000000000000000000000000000000000000000000000000000000 PUSH1 0x20 DUP3 ADD MSTORE POP JUMP JUMPDEST PUSH0 PUSH2 0x1BCB PUSH1 0x24 DUP4 PUSH2 0x17F8 JUMP JUMPDEST SWAP2 POP PUSH2 0x1BD6 DUP3 PUSH2 0x1B71 JUMP JUMPDEST PUSH1 0x40 DUP3 ADD SWAP1 POP SWAP2 SWAP1 POP JUMP JUMPDEST PUSH0 PUSH1 0x20 DUP3 ADD SWAP1 POP DUP2 DUP2 SUB PUSH0 DUP4 ADD MSTORE PUSH2 0x1BF8 DUP2 PUSH2 0x1BBF JUMP JUMPDEST SWAP1 POP SWAP2 SWAP1 POP JUMP JUMPDEST PUSH32 0x4E487B7100000000000000000000000000000000000000000000000000000000 PUSH0 MSTORE PUSH1 0x32 PUSH1 0x4 MSTORE PUSH1 0x24 PUSH0 REVERT JUMPDEST PUSH32 0x576F726B65722077697468207468697320494420616C72656164792065786973 PUSH0 DUP3 ADD MSTORE PUSH32 0x7473000000000000000000000000000000000000000000000000000000000000 PUSH1 0x20 DUP3 ADD MSTORE POP JUMP JUMPDEST PUSH0 PUSH2 0x1C86 PUSH1 0x22 DUP4 PUSH2 0x17F8 JUMP JUMPDEST SWAP2 POP PUSH2 0x1C91 DUP3 PUSH2 0x1C2C JUMP JUMPDEST PUSH1 0x40 DUP3 ADD SWAP1 POP SWAP2 SWAP1 POP JUMP JUMPDEST PUSH0 PUSH1 0x20 DUP3 ADD SWAP1 POP DUP2 DUP2 SUB PUSH0 DUP4 ADD MSTORE PUSH2 0x1CB3 DUP2 PUSH2 0x1C7A JUMP JUMPDEST SWAP1 POP SWAP2 SWAP1 POP JUMP JUMPDEST PUSH32 0x576F726B657220776974682074686973206164647265737320616C7265616479 PUSH0 DUP3 ADD MSTORE PUSH32 0x2065786973747300000000000000000000000000000000000000000000000000 PUSH1 0x20 DUP3 ADD MSTORE POP JUMP JUMPDEST PUSH0 PUSH2 0x1D14 PUSH1 0x27 DUP4 PUSH2 0x17F8 JUMP JUMPDEST SWAP2 POP PUSH2 0x1D1F DUP3 PUSH2 0x1CBA JUMP JUMPDEST PUSH1 0x40 DUP3 ADD SWAP1 POP SWAP2 SWAP1 POP JUMP JUMPDEST PUSH0 PUSH1 0x20 DUP3 ADD SWAP1 POP DUP2 DUP2 SUB PUSH0 DUP4 ADD MSTORE PUSH2 0x1D41 DUP2 PUSH2 0x1D08 JUMP JUMPDEST SWAP1 POP SWAP2 SWAP1 POP JUMP JUMPDEST PUSH0 DUP2 SWAP1 POP DUP2 PUSH0 MSTORE PUSH1 0x20 PUSH0 KECCAK256 SWAP1 POP SWAP2 SWAP1 POP JUMP JUMPDEST PUSH0 PUSH1 0x20 PUSH1 0x1F DUP4 ADD DIV SWAP1 POP SWAP2 SWAP1 POP JUMP JUMPDEST PUSH0 DUP3 DUP3 SHL SWAP1 POP SWAP3 SWAP2 POP POP JUMP JUMPDEST PUSH0 PUSH1 0x8 DUP4 MUL PUSH2 0x1DA4 PUSH32 0xFFFFFFFFFFFFFFFFFFFFFFFFFFFFFFFFFFFFFFFFFFFFFFFFFFFFFFFFFFFFFFFF DUP3 PUSH2 0x1D69 JUMP JUMPDEST PUSH2 0x1DAE DUP7 DUP4 PUSH2 0x1D69 JUMP JUMPDEST SWAP6 POP DUP1 NOT DUP5 AND SWAP4 POP DUP1 DUP7 AND DUP5 OR SWAP3 POP POP POP SWAP4 SWAP3 POP POP POP JUMP JUMPDEST PUSH0 DUP2 SWAP1 POP SWAP2 SWAP1 POP JUMP JUMPDEST PUSH0 PUSH2 0x1DE9 PUSH2 0x1DE4 PUSH2 0x1DDF DUP5 PUSH2 0x1751 JUMP JUMPDEST PUSH2 0x1DC6 JUMP JUMPDEST PUSH2 0x1751 JUMP JUMPDEST SWAP1 POP SWAP2 SWAP1 POP JUMP JUMPDEST PUSH0 DUP2 SWAP1 POP SWAP2 SWAP1 POP JUMP JUMPDEST PUSH2 0x1E02 DUP4 PUSH2 0x1DCF JUMP JUMPDEST PUSH2 0x1E16 PUSH2 0x1E0E DUP3 PUSH2 0x1DF0 JUMP JUMPDEST DUP5 DUP5 SLOAD PUSH2 0x1D75 JUMP JUMPDEST DUP3 SSTORE POP POP POP POP JUMP JUMPDEST PUSH0 SWAP1 JUMP JUMPDEST PUSH2 0x1E2A PUSH2 0x1E1E JUMP JUMPDEST PUSH2 0x1E35 DUP2 DUP5 DUP5 PUSH2 0x1DF9 JUMP JUMPDEST POP POP POP JUMP JUMPDEST JUMPDEST DUP2 DUP2 LT ISZERO PUSH2 0x1E58 JUMPI PUSH2 0x1E4D PUSH0 DUP3 PUSH2 0x1E22 JUMP JUMPDEST PUSH1 0x1 DUP2 ADD SWAP1 POP PUSH2 0x1E3B JUMP JUMPDEST POP POP JUMP JUMPDEST PUSH1 0x1F DUP3 GT ISZERO PUSH2 0x1E9D JUMPI PUSH2 0x1E6E DUP2 PUSH2 0x1D48 JUMP JUMPDEST PUSH2 0x1E77 DUP5 PUSH2 0x1D5A JUMP JUMPDEST DUP2 ADD PUSH1 0x20 DUP6 LT ISZERO PUSH2 0x1E86 JUMPI DUP2 SWAP1 POP JUMPDEST PUSH2 0x1E9A PUSH2 0x1E92 DUP6 PUSH2 0x1D5A JUMP JUMPDEST DUP4 ADD DUP3 PUSH2 0x1E3A JUMP JUMPDEST POP POP JUMPDEST POP POP POP JUMP JUMPDEST PUSH0 DUP3 DUP3 SHR SWAP1 POP SWAP3 SWAP2 POP POP JUMP JUMPDEST PUSH0 PUSH2 0x1EBD PUSH0 NOT DUP5 PUSH1 0x8 MUL PUSH2 0x1EA2 JUMP JUMPDEST NOT DUP1 DUP4 AND SWAP2 POP POP SWAP3 SWAP2 POP POP JUMP JUMPDEST PUSH0 PUSH2 0x1ED5 DUP4 DUP4 PUSH2 0x1EAE JUMP JUMPDEST SWAP2 POP DUP3 PUSH1 0x2 MUL DUP3 OR SWAP1 POP SWAP3 SWAP2 POP POP JUMP JUMPDEST PUSH2 0x1EEE DUP3 PUSH2 0x17EE JUMP JUMPDEST PUSH8 0xFFFFFFFFFFFFFFFF DUP2 GT ISZERO PUSH2 0x1F07 JUMPI PUSH2 0x1F06 PUSH2 0x191D JUMP JUMPDEST JUMPDEST PUSH2 0x1F11 DUP3 SLOAD PUSH2 0x1B41 JUMP JUMPDEST PUSH2 0x1F1C DUP3 DUP3 DUP6 PUSH2 0x1E5C JUMP JUMPDEST PUSH0 PUSH1 0x20 SWAP1 POP PUSH1 0x1F DUP4 GT PUSH1 0x1 DUP2 EQ PUSH2 0x1F4D JUMPI PUSH0 DUP5 ISZERO PUSH2 0x1F3B JUMPI DUP3 DUP8 ADD MLOAD SWAP1 POP JUMPDEST PUSH2 0x1F45 DUP6 DUP3 PUSH2 0x1ECA JUMP JUMPDEST DUP7 SSTORE POP PUSH2 0x1FAC JUMP JUMPDEST PUSH1 0x1F NOT DUP5 AND PUSH2 0x1F5B DUP7 PUSH2 0x1D48 JUMP JUMPDEST PUSH0 JUMPDEST DUP3 DUP2 LT ISZERO PUSH2 0x1F82 JUMPI DUP5 DUP10 ADD MLOAD DUP3 SSTORE PUSH1 0x1 DUP3 ADD SWAP2 POP PUSH1 0x20 DUP6 ADD SWAP5 POP PUSH1 0x20 DUP2 ADD SWAP1 POP PUSH2 0x1F5D JUMP JUMPDEST DUP7 DUP4 LT ISZERO PUSH2 0x1F9F JUMPI DUP5 DUP10 ADD MLOAD PUSH2 0x1F9B PUSH1 0x1F DUP10 AND DUP3 PUSH2 0x1EAE JUMP JUMPDEST DUP4 SSTORE POP JUMPDEST PUSH1 0x1 PUSH1 0x2 DUP9 MUL ADD DUP9 SSTORE POP POP POP JUMPDEST POP POP POP POP POP POP JUMP JUMPDEST PUSH32 0x4E6F742061206D656D626572206F662074686520636F6D70616E790000000000 PUSH0 DUP3 ADD MSTORE POP JUMP JUMPDEST PUSH0 PUSH2 0x1FE8 PUSH1 0x1B DUP4 PUSH2 0x17F8 JUMP JUMPDEST SWAP2 POP PUSH2 0x1FF3 DUP3 PUSH2 0x1FB4 JUMP JUMPDEST PUSH1 0x20 DUP3 ADD SWAP1 POP SWAP2 SWAP1 POP JUMP JUMPDEST PUSH0 PUSH1 0x20 DUP3 ADD SWAP1 POP DUP2 DUP2 SUB PUSH0 DUP4 ADD MSTORE PUSH2 0x2015 DUP2 PUSH2 0x1FDC JUMP JUMPDEST SWAP1 POP SWAP2 SWAP1 POP JUMP JUMPDEST PUSH32 0x4469646E2774207369676E20696E20666F722074686520646179000000000000 PUSH0 DUP3 ADD MSTORE POP JUMP JUMPDEST PUSH0 PUSH2 0x2050 PUSH1 0x1A DUP4 PUSH2 0x17F8 JUMP JUMPDEST SWAP2 POP PUSH2 0x205B DUP3 PUSH2 0x201C JUMP JUMPDEST PUSH1 0x20 DUP3 ADD SWAP1 POP SWAP2 SWAP1 POP JUMP JUMPDEST PUSH0 PUSH1 0x20 DUP3 ADD SWAP1 POP DUP2 DUP2 SUB PUSH0 DUP4 ADD MSTORE PUSH2 0x207D DUP2 PUSH2 0x2044 JUMP JUMPDEST SWAP1 POP SWAP2 SWAP1 POP JUMP JUMPDEST PUSH32 0x576F726B657220646F6573206E6F742065786973747300000000000000000000 PUSH0 DUP3 ADD MSTORE POP JUMP JUMPDEST PUSH0 PUSH2 0x20B8 PUSH1 0x16 DUP4 PUSH2 0x17F8 JUMP JUMPDEST SWAP2 POP PUSH2 0x20C3 DUP3 PUSH2 0x2084 JUMP JUMPDEST PUSH1 0x20 DUP3 ADD SWAP1 POP SWAP2 SWAP1 POP JUMP JUMPDEST PUSH0 PUSH1 0x20 DUP3 ADD SWAP1 POP DUP2 DUP2 SUB PUSH0 DUP4 ADD MSTORE PUSH2 0x20E5 DUP2 PUSH2 0x20AC JUMP JUMPDEST SWAP1 POP SWAP2 SWAP1 POP JUMP JUMPDEST PUSH32 0x4E487B7100000000000000000000000000000000000000000000000000000000 PUSH0 MSTORE PUSH1 0x11 PUSH1 0x4 MSTORE PUSH1 0x24 PUSH0 REVERT JUMPDEST PUSH0 PUSH2 0x2123 DUP3 PUSH2 0x1751 JUMP JUMPDEST SWAP2 POP PUSH2 0x212E DUP4 PUSH2 0x1751 JUMP JUMPDEST SWAP3 POP DUP3 DUP3 SUB SWAP1 POP DUP2 DUP2 GT ISZERO PUSH2 0x2146 JUMPI PUSH2 0x2145 PUSH2 0x20EC JUMP JUMPDEST JUMPDEST SWAP3 SWAP2 POP POP JUMP JUMPDEST PUSH0 PUSH2 0x2156 DUP3 PUSH2 0x1751 JUMP JUMPDEST SWAP2 POP PUSH2 0x2161 DUP4 PUSH2 0x1751 JUMP JUMPDEST SWAP3 POP DUP3 DUP3 ADD SWAP1 POP DUP1 DUP3 GT ISZERO PUSH2 0x2179 JUMPI PUSH2 0x2178 PUSH2 0x20EC JUMP JUMPDEST JUMPDEST SWAP3 SWAP2 POP POP JUMP JUMPDEST PUSH0 DUP2 SLOAD SWAP1 POP PUSH2 0x218D DUP2 PUSH2 0x1B41 JUMP JUMPDEST SWAP1 POP SWAP2 SWAP1 POP JUMP JUMPDEST DUP2 DUP2 SUB PUSH2 0x21A2 JUMPI POP POP PUSH2 0x2277 JUMP JUMPDEST PUSH2 0x21AB DUP3 PUSH2 0x217F JUMP JUMPDEST PUSH8 0xFFFFFFFFFFFFFFFF DUP2 GT ISZERO PUSH2 0x21C4 JUMPI PUSH2 0x21C3 PUSH2 0x191D JUMP JUMPDEST JUMPDEST PUSH2 0x21CE DUP3 SLOAD PUSH2 0x1B41 JUMP JUMPDEST PUSH2 0x21D9 DUP3 DUP3 DUP6 PUSH2 0x1E5C JUMP JUMPDEST PUSH0 PUSH1 0x1F DUP4 GT PUSH1 0x1 DUP2 EQ PUSH2 0x2206 JUMPI PUSH0 DUP5 ISZERO PUSH2 0x21F4 JUMPI DUP3 DUP8 ADD SLOAD SWAP1 POP JUMPDEST PUSH2 0x21FE DUP6 DUP3 PUSH2 0x1ECA JUMP JUMPDEST DUP7 SSTORE POP PUSH2 0x2270 JUMP JUMPDEST PUSH1 0x1F NOT DUP5 AND PUSH2 0x2214 DUP8 PUSH2 0x1D48 JUMP JUMPDEST SWAP7 POP PUSH2 0x221F DUP7 PUSH2 0x1D48 JUMP JUMPDEST PUSH0 JUMPDEST DUP3 DUP2 LT ISZERO PUSH2 0x2246 JUMPI DUP5 DUP10 ADD SLOAD DUP3 SSTORE PUSH1 0x1 DUP3 ADD SWAP2 POP PUSH1 0x1 DUP6 ADD SWAP5 POP PUSH1 0x20 DUP2 ADD SWAP1 POP PUSH2 0x2221 JUMP JUMPDEST DUP7 DUP4 LT ISZERO PUSH2 0x2263 JUMPI DUP5 DUP10 ADD SLOAD PUSH2 0x225F PUSH1 0x1F DUP10 AND DUP3 PUSH2 0x1EAE JUMP JUMPDEST DUP4 SSTORE POP JUMPDEST PUSH1 0x1 PUSH1 0x2 DUP9 MUL ADD DUP9 SSTORE POP POP POP JUMPDEST POP POP POP POP POP POP JUMPDEST JUMP JUMPDEST PUSH32 0x4E487B7100000000000000000000000000000000000000000000000000000000 PUSH0 MSTORE PUSH1 0x31 PUSH1 0x4 MSTORE PUSH1 0x24 PUSH0 REVERT JUMPDEST PUSH0 PUSH1 0x40 DUP3 ADD SWAP1 POP DUP2 DUP2 SUB PUSH0 DUP4 ADD MSTORE PUSH2 0x22BE DUP2 DUP6 PUSH2 0x1840 JUMP JUMPDEST SWAP1 POP PUSH2 0x22CD PUSH1 0x20 DUP4 ADD DUP5 PUSH2 0x1878 JUMP JUMPDEST SWAP4 SWAP3 POP POP POP JUMP JUMPDEST PUSH32 0x7573657220616C7265616479207369676E656420696E00000000000000000000 PUSH0 DUP3 ADD MSTORE POP JUMP JUMPDEST PUSH0 PUSH2 0x2308 PUSH1 0x16 DUP4 PUSH2 0x17F8 JUMP JUMPDEST SWAP2 POP PUSH2 0x2313 DUP3 PUSH2 0x22D4 JUMP JUMPDEST PUSH1 0x20 DUP3 ADD SWAP1 POP SWAP2 SWAP1 POP JUMP JUMPDEST PUSH0 PUSH1 0x20 DUP3 ADD SWAP1 POP DUP2 DUP2 SUB PUSH0 DUP4 ADD MSTORE PUSH2 0x2335 DUP2 PUSH2 0x22FC JUMP JUMPDEST SWAP1 POP SWAP2 SWAP1 POP JUMP JUMPDEST PUSH32 0x526573657420696E74657276616C20686173206E6F7420656C61707365642079 PUSH0 DUP3 ADD MSTORE PUSH32 0x6574000000000000000000000000000000000000000000000000000000000000 PUSH1 0x20 DUP3 ADD MSTORE POP JUMP JUMPDEST PUSH0 PUSH2 0x2396 PUSH1 0x22 DUP4 PUSH2 0x17F8 JUMP JUMPDEST SWAP2 POP PUSH2 0x23A1 DUP3 PUSH2 0x233C JUMP JUMPDEST PUSH1 0x40 DUP3 ADD SWAP1 POP SWAP2 SWAP1 POP JUMP JUMPDEST PUSH0 PUSH1 0x20 DUP3 ADD SWAP1 POP DUP2 DUP2 SUB PUSH0 DUP4 ADD MSTORE PUSH2 0x23C3 DUP2 PUSH2 0x238A JUMP JUMPDEST SWAP1 POP SWAP2 SWAP1 POP JUMP INVALID LOG2 PUSH5 0x6970667358 0x22 SLT KECCAK256 0xF8 CHAINID GT MSTORE8 GT RETURNDATACOPY EXTCODECOPY SLT CREATE2 ISZERO 0xBD 0xC1 SWAP7 0xD7 CREATE EQ PUSH9 0x1DAEA83D710E2F138C SIGNEXTEND PUSH30 0x261BAAE564736F6C63430008180033000000000000000000000000000000 "
				},
				"gasEstimates": {
					"creation": {
						"codeDepositCost": "1843200",
						"executionCost": "48317",
						"totalCost": "1891517"
					},
					"external": {
						"addWorkers(address,string,uint256)": "infinite",
						"getWorkersData(address)": "infinite",
						"logOut()": "infinite",
						"loggedInWorkers(uint256)": "infinite",
						"removeWorkers(address)": "infinite",
						"resetSignIn()": "infinite",
						"signIn()": "infinite",
						"updateProfile(address,string,uint256)": "infinite",
						"workers(address)": "infinite",
						"workersList(uint256)": "infinite"
					}
				},
				"methodIdentifiers": {
					"addWorkers(address,string,uint256)": "35801f27",
					"getWorkersData(address)": "a8bb05d2",
					"logOut()": "4be422ae",
					"loggedInWorkers(uint256)": "21811a91",
					"removeWorkers(address)": "65cc7981",
					"resetSignIn()": "c47f7fdd",
					"signIn()": "9e4cda43",
					"updateProfile(address,string,uint256)": "6de95201",
					"workers(address)": "4048a257",
					"workersList(uint256)": "9fc1fce9"
				}
			},
			"storageLayout": {
				"storage": [
					{
						"astId": 3,
						"contract": "workers log book contract/logbook.sol:logBook",
						"label": "owner",
						"offset": 0,
						"slot": "0",
						"type": "t_address"
					},
					{
						"astId": 5,
						"contract": "workers log book contract/logbook.sol:logBook",
						"label": "lastResetTime",
						"offset": 0,
						"slot": "1",
						"type": "t_uint256"
					},
					{
						"astId": 50,
						"contract": "workers log book contract/logbook.sol:logBook",
						"label": "workers",
						"offset": 0,
						"slot": "2",
						"type": "t_mapping(t_address,t_struct(Worker)17_storage)"
					},
					{
						"astId": 66,
						"contract": "workers log book contract/logbook.sol:logBook",
						"label": "workersList",
						"offset": 0,
						"slot": "3",
						"type": "t_array(t_struct(Worker)17_storage)dyn_storage"
					},
					{
						"astId": 70,
						"contract": "workers log book contract/logbook.sol:logBook",
						"label": "loggedInWorkers",
						"offset": 0,
						"slot": "4",
						"type": "t_array(t_struct(Worker)17_storage)dyn_storage"
					}
				],
				"types": {
					"t_address": {
						"encoding": "inplace",
						"label": "address",
						"numberOfBytes": "20"
					},
					"t_array(t_struct(Worker)17_storage)dyn_storage": {
						"base": "t_struct(Worker)17_storage",
						"encoding": "dynamic_array",
						"label": "struct logBook.Worker[]",
						"numberOfBytes": "32"
					},
					"t_bool": {
						"encoding": "inplace",
						"label": "bool",
						"numberOfBytes": "1"
					},
					"t_mapping(t_address,t_struct(Worker)17_storage)": {
						"encoding": "mapping",
						"key": "t_address",
						"label": "mapping(address => struct logBook.Worker)",
						"numberOfBytes": "32",
						"value": "t_struct(Worker)17_storage"
					},
					"t_string_storage": {
						"encoding": "bytes",
						"label": "string",
						"numberOfBytes": "32"
					},
					"t_struct(Worker)17_storage": {
						"encoding": "inplace",
						"label": "struct logBook.Worker",
						"members": [
							{
								"astId": 10,
								"contract": "workers log book contract/logbook.sol:logBook",
								"label": "workerAddress",
								"offset": 0,
								"slot": "0",
								"type": "t_address"
							},
							{
								"astId": 12,
								"contract": "workers log book contract/logbook.sol:logBook",
								"label": "name",
								"offset": 0,
								"slot": "1",
								"type": "t_string_storage"
							},
							{
								"astId": 14,
								"contract": "workers log book contract/logbook.sol:logBook",
								"label": "Id",
								"offset": 0,
								"slot": "2",
								"type": "t_uint256"
							},
							{
								"astId": 16,
								"contract": "workers log book contract/logbook.sol:logBook",
								"label": "signed",
								"offset": 0,
								"slot": "3",
								"type": "t_bool"
							}
						],
						"numberOfBytes": "128"
					},
					"t_uint256": {
						"encoding": "inplace",
						"label": "uint256",
						"numberOfBytes": "32"
					}
				}
			},
			"userdoc": {
				"kind": "user",
				"methods": {},
				"version": 1
			}
		}
	}
}